{
  "contractName": "MarketPlace",
  "abi": [
    {
      "constant": true,
      "inputs": [
        {
          "name": "",
          "type": "address"
        },
        {
          "name": "",
          "type": "uint256"
        }
      ],
      "name": "StoreOwnerMap",
      "outputs": [
        {
          "name": "",
          "type": "uint256"
        }
      ],
      "payable": false,
      "stateMutability": "view",
      "type": "function"
    },
    {
      "constant": true,
      "inputs": [
        {
          "name": "",
          "type": "address"
        },
        {
          "name": "",
          "type": "uint256"
        }
      ],
      "name": "OrderOwnerMap",
      "outputs": [
        {
          "name": "",
          "type": "uint256"
        }
      ],
      "payable": false,
      "stateMutability": "view",
      "type": "function"
    },
    {
      "constant": true,
      "inputs": [
        {
          "name": "",
          "type": "uint256"
        }
      ],
      "name": "users",
      "outputs": [
        {
          "name": "uid",
          "type": "uint256"
        },
        {
          "name": "user",
          "type": "address"
        },
        {
          "name": "username",
          "type": "string"
        },
        {
          "name": "usertype",
          "type": "uint8"
        },
        {
          "name": "amount",
          "type": "uint256"
        }
      ],
      "payable": false,
      "stateMutability": "view",
      "type": "function"
    },
    {
      "constant": true,
      "inputs": [
        {
          "name": "",
          "type": "address"
        },
        {
          "name": "",
          "type": "uint256"
        }
      ],
      "name": "ProductOwnerMap",
      "outputs": [
        {
          "name": "",
          "type": "uint256"
        }
      ],
      "payable": false,
      "stateMutability": "view",
      "type": "function"
    },
    {
      "constant": false,
      "inputs": [],
      "name": "renounceOwnership",
      "outputs": [],
      "payable": false,
      "stateMutability": "nonpayable",
      "type": "function"
    },
    {
      "constant": true,
      "inputs": [
        {
          "name": "",
          "type": "uint256"
        }
      ],
      "name": "products",
      "outputs": [
        {
          "name": "pid",
          "type": "uint256"
        },
        {
          "name": "owner",
          "type": "address"
        },
        {
          "name": "name",
          "type": "string"
        },
        {
          "name": "description",
          "type": "string"
        },
        {
          "name": "imgsrc",
          "type": "string"
        }
      ],
      "payable": false,
      "stateMutability": "view",
      "type": "function"
    },
    {
      "constant": true,
      "inputs": [
        {
          "name": "",
          "type": "uint256"
        },
        {
          "name": "",
          "type": "uint256"
        }
      ],
      "name": "StoreProductMap",
      "outputs": [
        {
          "name": "",
          "type": "uint256"
        }
      ],
      "payable": false,
      "stateMutability": "view",
      "type": "function"
    },
    {
      "constant": true,
      "inputs": [],
      "name": "owner",
      "outputs": [
        {
          "name": "",
          "type": "address"
        }
      ],
      "payable": false,
      "stateMutability": "view",
      "type": "function"
    },
    {
      "constant": true,
      "inputs": [
        {
          "name": "",
          "type": "uint256"
        }
      ],
      "name": "orders",
      "outputs": [
        {
          "name": "oid",
          "type": "uint256"
        },
        {
          "name": "uid",
          "type": "uint256"
        },
        {
          "name": "sid",
          "type": "uint256"
        },
        {
          "name": "pid",
          "type": "uint256"
        },
        {
          "name": "price",
          "type": "uint256"
        },
        {
          "name": "qty",
          "type": "uint256"
        }
      ],
      "payable": false,
      "stateMutability": "view",
      "type": "function"
    },
    {
      "constant": true,
      "inputs": [],
      "name": "creationTime",
      "outputs": [
        {
          "name": "",
          "type": "uint256"
        }
      ],
      "payable": false,
      "stateMutability": "view",
      "type": "function"
    },
    {
      "constant": true,
      "inputs": [
        {
          "name": "",
          "type": "uint256"
        }
      ],
      "name": "stores",
      "outputs": [
        {
          "name": "sid",
          "type": "uint256"
        },
        {
          "name": "owner",
          "type": "address"
        },
        {
          "name": "name",
          "type": "string"
        },
        {
          "name": "description",
          "type": "string"
        },
        {
          "name": "amount",
          "type": "uint256"
        }
      ],
      "payable": false,
      "stateMutability": "view",
      "type": "function"
    },
    {
      "constant": false,
      "inputs": [
        {
          "name": "_newOwner",
          "type": "address"
        }
      ],
      "name": "transferOwnership",
      "outputs": [],
      "payable": false,
      "stateMutability": "nonpayable",
      "type": "function"
    },
    {
      "constant": true,
      "inputs": [
        {
          "name": "",
          "type": "address"
        },
        {
          "name": "",
          "type": "uint256"
        }
      ],
      "name": "UserOwnerMap",
      "outputs": [
        {
          "name": "",
          "type": "uint256"
        }
      ],
      "payable": false,
      "stateMutability": "view",
      "type": "function"
    },
    {
      "constant": true,
      "inputs": [
        {
          "name": "",
          "type": "uint256"
        }
      ],
      "name": "storeproducts",
      "outputs": [
        {
          "name": "spid",
          "type": "uint256"
        },
        {
          "name": "sid",
          "type": "uint256"
        },
        {
          "name": "pid",
          "type": "uint256"
        },
        {
          "name": "price",
          "type": "uint256"
        },
        {
          "name": "qty_avail",
          "type": "uint256"
        },
        {
          "name": "status",
          "type": "uint8"
        }
      ],
      "payable": false,
      "stateMutability": "view",
      "type": "function"
    },
    {
      "inputs": [],
      "payable": false,
      "stateMutability": "nonpayable",
      "type": "constructor"
    },
    {
      "anonymous": false,
      "inputs": [
        {
          "indexed": false,
          "name": "message",
          "type": "string"
        }
      ],
      "name": "throwError",
      "type": "event"
    },
    {
      "anonymous": false,
      "inputs": [
        {
          "indexed": false,
          "name": "message",
          "type": "string"
        }
      ],
      "name": "log",
      "type": "event"
    },
    {
      "anonymous": false,
      "inputs": [
        {
          "indexed": false,
          "name": "uid",
          "type": "uint256"
        },
        {
          "indexed": false,
          "name": "user",
          "type": "address"
        },
        {
          "indexed": false,
          "name": "username",
          "type": "string"
        },
        {
          "indexed": false,
          "name": "usertype",
          "type": "uint8"
        },
        {
          "indexed": false,
          "name": "amount",
          "type": "uint256"
        },
        {
          "indexed": false,
          "name": "timestamp",
          "type": "uint256"
        }
      ],
      "name": "userCreated",
      "type": "event"
    },
    {
      "anonymous": false,
      "inputs": [
        {
          "indexed": false,
          "name": "uid",
          "type": "uint256"
        },
        {
          "indexed": false,
          "name": "username",
          "type": "string"
        },
        {
          "indexed": false,
          "name": "usertype",
          "type": "uint8"
        },
        {
          "indexed": false,
          "name": "timestamp",
          "type": "uint256"
        }
      ],
      "name": "userUpdated",
      "type": "event"
    },
    {
      "anonymous": false,
      "inputs": [
        {
          "indexed": false,
          "name": "sid",
          "type": "uint256"
        },
        {
          "indexed": false,
          "name": "owner",
          "type": "address"
        },
        {
          "indexed": false,
          "name": "name",
          "type": "string"
        },
        {
          "indexed": false,
          "name": "description",
          "type": "string"
        },
        {
          "indexed": false,
          "name": "amount",
          "type": "uint256"
        },
        {
          "indexed": false,
          "name": "timestamp",
          "type": "uint256"
        }
      ],
      "name": "storeCreated",
      "type": "event"
    },
    {
      "anonymous": false,
      "inputs": [
        {
          "indexed": false,
          "name": "sid",
          "type": "uint256"
        },
        {
          "indexed": false,
          "name": "name",
          "type": "string"
        },
        {
          "indexed": false,
          "name": "description",
          "type": "string"
        },
        {
          "indexed": false,
          "name": "timestamp",
          "type": "uint256"
        }
      ],
      "name": "storeUpdated",
      "type": "event"
    },
    {
      "anonymous": false,
      "inputs": [
        {
          "indexed": false,
          "name": "pid",
          "type": "uint256"
        },
        {
          "indexed": false,
          "name": "owner",
          "type": "address"
        },
        {
          "indexed": false,
          "name": "name",
          "type": "string"
        },
        {
          "indexed": false,
          "name": "description",
          "type": "string"
        },
        {
          "indexed": false,
          "name": "imgsrc",
          "type": "string"
        }
      ],
      "name": "productCreated",
      "type": "event"
    },
    {
      "anonymous": false,
      "inputs": [
        {
          "indexed": false,
          "name": "pid",
          "type": "uint256"
        },
        {
          "indexed": false,
          "name": "name",
          "type": "string"
        },
        {
          "indexed": false,
          "name": "description",
          "type": "string"
        },
        {
          "indexed": false,
          "name": "imgsrc",
          "type": "string"
        },
        {
          "indexed": false,
          "name": "timestamp",
          "type": "uint256"
        }
      ],
      "name": "productUpdated",
      "type": "event"
    },
    {
      "anonymous": false,
      "inputs": [
        {
          "indexed": false,
          "name": "spid",
          "type": "uint256"
        },
        {
          "indexed": false,
          "name": "sid",
          "type": "uint256"
        },
        {
          "indexed": false,
          "name": "pid",
          "type": "uint256"
        },
        {
          "indexed": false,
          "name": "price",
          "type": "uint256"
        },
        {
          "indexed": false,
          "name": "qty_avail",
          "type": "uint256"
        }
      ],
      "name": "storeproductCreated",
      "type": "event"
    },
    {
      "anonymous": false,
      "inputs": [
        {
          "indexed": false,
          "name": "oid",
          "type": "uint256"
        },
        {
          "indexed": false,
          "name": "uid",
          "type": "uint256"
        },
        {
          "indexed": false,
          "name": "sid",
          "type": "uint256"
        },
        {
          "indexed": false,
          "name": "pid",
          "type": "uint256"
        },
        {
          "indexed": false,
          "name": "price",
          "type": "uint256"
        },
        {
          "indexed": false,
          "name": "qty",
          "type": "uint256"
        }
      ],
      "name": "orderCreated",
      "type": "event"
    },
    {
      "anonymous": false,
      "inputs": [
        {
          "indexed": true,
          "name": "previousOwner",
          "type": "address"
        }
      ],
      "name": "OwnershipRenounced",
      "type": "event"
    },
    {
      "anonymous": false,
      "inputs": [
        {
          "indexed": true,
          "name": "previousOwner",
          "type": "address"
        },
        {
          "indexed": true,
          "name": "newOwner",
          "type": "address"
        }
      ],
      "name": "OwnershipTransferred",
      "type": "event"
    },
    {
      "constant": false,
      "inputs": [],
      "name": "destroyContract",
      "outputs": [],
      "payable": false,
      "stateMutability": "nonpayable",
      "type": "function"
    },
    {
      "constant": false,
      "inputs": [
        {
          "name": "_user",
          "type": "address"
        },
        {
          "name": "_username",
          "type": "string"
        },
        {
          "name": "_usertype",
          "type": "uint8"
        },
        {
          "name": "_amount",
          "type": "uint256"
        }
      ],
      "name": "createUser",
      "outputs": [
        {
          "name": "id",
          "type": "uint256"
        }
      ],
      "payable": false,
      "stateMutability": "nonpayable",
      "type": "function"
    },
    {
      "constant": false,
      "inputs": [
        {
          "name": "_uid",
          "type": "uint256"
        },
        {
          "name": "_username",
          "type": "string"
        },
        {
          "name": "_usertype",
          "type": "uint8"
        }
      ],
      "name": "updateUser",
      "outputs": [
        {
          "name": "success",
          "type": "bool"
        }
      ],
      "payable": false,
      "stateMutability": "nonpayable",
      "type": "function"
    },
    {
      "constant": true,
      "inputs": [
        {
          "name": "idx",
          "type": "uint256"
        }
      ],
      "name": "getUser",
      "outputs": [
        {
          "name": "",
          "type": "uint256"
        },
        {
          "name": "",
          "type": "address"
        },
        {
          "name": "",
          "type": "string"
        },
        {
          "name": "",
          "type": "uint8"
        },
        {
          "name": "",
          "type": "uint256"
        }
      ],
      "payable": false,
      "stateMutability": "view",
      "type": "function"
    },
    {
      "constant": true,
      "inputs": [],
      "name": "getUserCount",
      "outputs": [
        {
          "name": "",
          "type": "uint256"
        }
      ],
      "payable": false,
      "stateMutability": "view",
      "type": "function"
    },
    {
      "constant": false,
      "inputs": [
        {
          "name": "_owner",
          "type": "address"
        },
        {
          "name": "_name",
          "type": "string"
        },
        {
          "name": "_description",
          "type": "string"
        },
        {
          "name": "_amount",
          "type": "uint256"
        }
      ],
      "name": "createStore",
      "outputs": [
        {
          "name": "id",
          "type": "uint256"
        }
      ],
      "payable": false,
      "stateMutability": "nonpayable",
      "type": "function"
    },
    {
      "constant": false,
      "inputs": [
        {
          "name": "_sid",
          "type": "uint256"
        },
        {
          "name": "_storename",
          "type": "string"
        },
        {
          "name": "_storedescription",
          "type": "string"
        }
      ],
      "name": "updateStore",
      "outputs": [
        {
          "name": "success",
          "type": "bool"
        }
      ],
      "payable": false,
      "stateMutability": "nonpayable",
      "type": "function"
    },
    {
      "constant": true,
      "inputs": [
        {
          "name": "idx",
          "type": "uint256"
        }
      ],
      "name": "getStore",
      "outputs": [
        {
          "name": "",
          "type": "uint256"
        },
        {
          "name": "",
          "type": "address"
        },
        {
          "name": "",
          "type": "string"
        },
        {
          "name": "",
          "type": "string"
        },
        {
          "name": "",
          "type": "uint256"
        }
      ],
      "payable": false,
      "stateMutability": "view",
      "type": "function"
    },
    {
      "constant": true,
      "inputs": [],
      "name": "getStoreCount",
      "outputs": [
        {
          "name": "",
          "type": "uint256"
        }
      ],
      "payable": false,
      "stateMutability": "view",
      "type": "function"
    },
    {
      "constant": true,
      "inputs": [
        {
          "name": "_owner",
          "type": "address"
        },
        {
          "name": "idx",
          "type": "uint256"
        }
      ],
      "name": "getStoreForOwner",
      "outputs": [
        {
          "name": "",
          "type": "uint256"
        },
        {
          "name": "",
          "type": "address"
        },
        {
          "name": "",
          "type": "string"
        },
        {
          "name": "",
          "type": "string"
        },
        {
          "name": "",
          "type": "uint256"
        }
      ],
      "payable": false,
      "stateMutability": "view",
      "type": "function"
    },
    {
      "constant": true,
      "inputs": [
        {
          "name": "_owner",
          "type": "address"
        }
      ],
      "name": "getStoreCountForOwner",
      "outputs": [
        {
          "name": "",
          "type": "uint256"
        }
      ],
      "payable": false,
      "stateMutability": "view",
      "type": "function"
    },
    {
      "constant": false,
      "inputs": [
        {
          "name": "_owner",
          "type": "address"
        },
        {
          "name": "_name",
          "type": "string"
        },
        {
          "name": "_description",
          "type": "string"
        },
        {
          "name": "_imgsrc",
          "type": "string"
        }
      ],
      "name": "createProduct",
      "outputs": [
        {
          "name": "id",
          "type": "uint256"
        }
      ],
      "payable": false,
      "stateMutability": "nonpayable",
      "type": "function"
    },
    {
      "constant": false,
      "inputs": [
        {
          "name": "_pid",
          "type": "uint256"
        },
        {
          "name": "_name",
          "type": "string"
        },
        {
          "name": "_description",
          "type": "string"
        },
        {
          "name": "_imgsrc",
          "type": "string"
        }
      ],
      "name": "updateProduct",
      "outputs": [
        {
          "name": "success",
          "type": "bool"
        }
      ],
      "payable": false,
      "stateMutability": "nonpayable",
      "type": "function"
    },
    {
      "constant": true,
      "inputs": [
        {
          "name": "idx",
          "type": "uint256"
        }
      ],
      "name": "getProduct",
      "outputs": [
        {
          "name": "",
          "type": "uint256"
        },
        {
          "name": "",
          "type": "address"
        },
        {
          "name": "",
          "type": "string"
        },
        {
          "name": "",
          "type": "string"
        },
        {
          "name": "",
          "type": "string"
        }
      ],
      "payable": false,
      "stateMutability": "view",
      "type": "function"
    },
    {
      "constant": true,
      "inputs": [],
      "name": "getProductCount",
      "outputs": [
        {
          "name": "",
          "type": "uint256"
        }
      ],
      "payable": false,
      "stateMutability": "view",
      "type": "function"
    },
    {
      "constant": true,
      "inputs": [
        {
          "name": "_owner",
          "type": "address"
        },
        {
          "name": "idx",
          "type": "uint256"
        }
      ],
      "name": "getProductForOwner",
      "outputs": [
        {
          "name": "",
          "type": "uint256"
        },
        {
          "name": "",
          "type": "address"
        },
        {
          "name": "",
          "type": "string"
        },
        {
          "name": "",
          "type": "string"
        },
        {
          "name": "",
          "type": "string"
        }
      ],
      "payable": false,
      "stateMutability": "view",
      "type": "function"
    },
    {
      "constant": true,
      "inputs": [
        {
          "name": "_owner",
          "type": "address"
        }
      ],
      "name": "getProductCountForOwner",
      "outputs": [
        {
          "name": "",
          "type": "uint256"
        }
      ],
      "payable": false,
      "stateMutability": "view",
      "type": "function"
    },
    {
      "constant": false,
      "inputs": [
        {
          "name": "_sid",
          "type": "uint256"
        },
        {
          "name": "_pid",
          "type": "uint256"
        },
        {
          "name": "_price",
          "type": "uint256"
        },
        {
          "name": "_qty_avail",
          "type": "uint256"
        }
      ],
      "name": "createStoreProduct",
      "outputs": [
        {
          "name": "id",
          "type": "uint256"
        }
      ],
      "payable": false,
      "stateMutability": "nonpayable",
      "type": "function"
    },
    {
      "constant": true,
      "inputs": [
        {
          "name": "idx",
          "type": "uint256"
        }
      ],
      "name": "getStoreProduct",
      "outputs": [
        {
          "name": "",
          "type": "uint256"
        },
        {
          "name": "",
          "type": "uint256"
        },
        {
          "name": "",
          "type": "uint256"
        },
        {
          "name": "",
          "type": "uint256"
        },
        {
          "name": "",
          "type": "uint256"
        }
      ],
      "payable": false,
      "stateMutability": "view",
      "type": "function"
    },
    {
      "constant": true,
      "inputs": [],
      "name": "getStoreProductCount",
      "outputs": [
        {
          "name": "",
          "type": "uint256"
        }
      ],
      "payable": false,
      "stateMutability": "view",
      "type": "function"
    },
    {
      "constant": true,
      "inputs": [
        {
          "name": "_sid",
          "type": "uint256"
        },
        {
          "name": "_idx",
          "type": "uint256"
        }
      ],
      "name": "getStoreProductForStore",
      "outputs": [
        {
          "name": "",
          "type": "uint256"
        },
        {
          "name": "",
          "type": "uint256"
        },
        {
          "name": "",
          "type": "uint256"
        },
        {
          "name": "",
          "type": "uint256"
        },
        {
          "name": "",
          "type": "uint256"
        }
      ],
      "payable": false,
      "stateMutability": "view",
      "type": "function"
    },
    {
      "constant": true,
      "inputs": [
        {
          "name": "_sid",
          "type": "uint256"
        }
      ],
      "name": "getStoreProductCountForStore",
      "outputs": [
        {
          "name": "",
          "type": "uint256"
        }
      ],
      "payable": false,
      "stateMutability": "view",
      "type": "function"
    },
    {
      "constant": false,
      "inputs": [
        {
          "name": "_sowner",
          "type": "address"
        },
        {
          "name": "_uid",
          "type": "uint256"
        },
        {
          "name": "_sid",
          "type": "uint256"
        },
        {
          "name": "_pid",
          "type": "uint256"
        },
        {
          "name": "_price",
          "type": "uint256"
        },
        {
          "name": "_qty",
          "type": "uint256"
        }
      ],
      "name": "createOrder",
      "outputs": [
        {
          "name": "id",
          "type": "uint256"
        }
      ],
      "payable": false,
      "stateMutability": "nonpayable",
      "type": "function"
    },
    {
      "constant": true,
      "inputs": [
        {
          "name": "idx",
          "type": "uint256"
        }
      ],
      "name": "getOrder",
      "outputs": [
        {
          "name": "",
          "type": "uint256"
        },
        {
          "name": "",
          "type": "uint256"
        },
        {
          "name": "",
          "type": "uint256"
        },
        {
          "name": "",
          "type": "uint256"
        },
        {
          "name": "",
          "type": "uint256"
        },
        {
          "name": "",
          "type": "uint256"
        }
      ],
      "payable": false,
      "stateMutability": "view",
      "type": "function"
    },
    {
      "constant": true,
      "inputs": [],
      "name": "getOrderCount",
      "outputs": [
        {
          "name": "",
          "type": "uint256"
        }
      ],
      "payable": false,
      "stateMutability": "view",
      "type": "function"
    }
  ],
  "bytecode": "0x6080604052426001553480156200001557600080fd5b50336000806101000a81548173ffffffffffffffffffffffffffffffffffffffff021916908373ffffffffffffffffffffffffffffffffffffffff16021790555033600260006101000a81548173ffffffffffffffffffffffffffffffffffffffff021916908373ffffffffffffffffffffffffffffffffffffffff160217905550620000ea336040805190810160405280600581526020017f41646d696e00000000000000000000000000000000000000000000000000000081525060008062000159640100000000026401000000009004565b507f41304facd9323d75b11bcdd609cb38effffdb05710f7caf0e9b16c6d9d709f506040518080602001828103825260128152602001807f6f776e6572203d206d73672e73656e646572000000000000000000000000000081525060200191505060405180910390a1620005e0565b6000806008805480919060010162000172919062000431565b91506008828154811015156200018457fe5b90600052602060002090600502019050858160010160006101000a81548173ffffffffffffffffffffffffffffffffffffffff021916908373ffffffffffffffffffffffffffffffffffffffff1602179055508360ff166002811115620001e757fe5b8160030160006101000a81548160ff021916908360028111156200020757fe5b0217905550848160020190805190602001906200022692919062000466565b50818160000181905550828160040181905550600360008260010160009054906101000a900473ffffffffffffffffffffffffffffffffffffffff1673ffffffffffffffffffffffffffffffffffffffff1673ffffffffffffffffffffffffffffffffffffffff1681526020019081526020016000208290806001815401808255809150509060018203906000526020600020016000909192909190915055507faf7b8b0357323c008aa01aade6185caf920e5789190d8be8e6993a704c338f74828260010160009054906101000a900473ffffffffffffffffffffffffffffffffffffffff16836002018460030160009054906101000a900460ff1660028111156200032f57fe5b856004015442604051808781526020018673ffffffffffffffffffffffffffffffffffffffff1673ffffffffffffffffffffffffffffffffffffffff168152602001806020018560ff1660ff168152602001848152602001838152602001828103825286818154600181600116156101000203166002900481526020019150805460018160011615610100020316600290048015620004125780601f10620003e65761010080835404028352916020019162000412565b820191906000526020600020905b815481529060010190602001808311620003f457829003601f168201915b505097505050505050505060405180910390a181915050949350505050565b8154818355818111156200046157600502816005028360005260206000209182019101620004609190620004ed565b5b505050565b828054600181600116156101000203166002900490600052602060002090601f016020900481019282601f10620004a957805160ff1916838001178555620004da565b82800160010185558215620004da579182015b82811115620004d9578251825591602001919060010190620004bc565b5b509050620004e991906200056c565b5090565b6200056991905b8082111562000565576000808201600090556001820160006101000a81549073ffffffffffffffffffffffffffffffffffffffff02191690556002820160006200053f919062000594565b6003820160006101000a81549060ff0219169055600482016000905550600501620004f4565b5090565b90565b6200059191905b808211156200058d57600081600090555060010162000573565b5090565b90565b50805460018160011615610100020316600290046000825580601f10620005bc5750620005dd565b601f016020900490600052602060002090810190620005dc91906200056c565b5b50565b61475480620005f06000396000f3006080604052600436106101e3576000357c0100000000000000000000000000000000000000000000000000000000900463ffffffff16806302a11eb7146101e8578063092a5cce146102495780630b018d8d14610260578063120030b2146102c7578063120954661461043a5780631e7054b3146104ee57806323a347a714610617578063258e1ff714610678578063365b98b2146106d55780633f22dab3146107d157806347eece58146108e85780634a348da91461093f578063522a024c1461096a5780635a494fd8146109ab5780636fdf001514610a0c578063715018a614610a6b57806372e3d23d14610a825780637acc0b2014610ad95780637bf1940914610c9157806380d5611314610d7e5780638340312014610e16578063859b832014610f6957806386390d5e1461103a5780638d0a5fbb146110855780638da5cb5b146110b057806398e8bd97146111075780639d9cbbb814611132578063a85c38ef1461130a578063b0467deb1461136e578063b5cb15f714611462578063b9db15b41461148d578063bc3934f714611645578063c6025dad146116ce578063d09ef241146116f9578063d8270dce1461175d578063e8a59cd814611788578063f2fde38b146118db578063f9c9929e1461191e578063fe5ed7d61461197f575b600080fd5b3480156101f457600080fd5b50610233600480360381019080803573ffffffffffffffffffffffffffffffffffffffff169060200190929190803590602001909291905050506119f1565b6040518082815260200191505060405180910390f35b34801561025557600080fd5b5061025e611a21565b005b34801561026c57600080fd5b506102956004803603810190808035906020019092919080359060200190929190505050611b21565b604051808681526020018581526020018481526020018381526020018281526020019550505050505060405180910390f35b3480156102d357600080fd5b50610312600480360381019080803573ffffffffffffffffffffffffffffffffffffffff16906020019092919080359060200190929190505050611c1a565b604051808681526020018573ffffffffffffffffffffffffffffffffffffffff1673ffffffffffffffffffffffffffffffffffffffff1681526020018060200180602001848152602001838103835286818151815260200191508051906020019080838360005b83811015610394578082015181840152602081019050610379565b50505050905090810190601f1680156103c15780820380516001836020036101000a031916815260200191505b50838103825285818151815260200191508051906020019080838360005b838110156103fa5780820151818401526020810190506103df565b50505050905090810190601f1680156104275780820380516001836020036101000a031916815260200191505b5097505050505050505060405180910390f35b34801561044657600080fd5b506104d8600480360381019080803573ffffffffffffffffffffffffffffffffffffffff169060200190929190803590602001908201803590602001908080601f0160208091040260200160405190810160405280939291908181526020018383808284378201915050505050509192919290803560ff16906020019092919080359060200190929190505050611d3f565b6040518082815260200191505060405180910390f35b3480156104fa57600080fd5b50610601600480360381019080803573ffffffffffffffffffffffffffffffffffffffff169060200190929190803590602001908201803590602001908080601f0160208091040260200160405190810160405280939291908181526020018383808284378201915050505050509192919290803590602001908201803590602001908080601f0160208091040260200160405190810160405280939291908181526020018383808284378201915050505050509192919290803590602001908201803590602001908080601f016020809104026020016040519081016040528093929190818152602001838380828437820191505050505050919291929050505061200b565b6040518082815260200191505060405180910390f35b34801561062357600080fd5b50610662600480360381019080803573ffffffffffffffffffffffffffffffffffffffff169060200190929190803590602001909291905050506124e1565b6040518082815260200191505060405180910390f35b34801561068457600080fd5b506106a360048036038101908080359060200190929190505050612511565b604051808681526020018581526020018481526020018381526020018281526020019550505050505060405180910390f35b3480156106e157600080fd5b50610700600480360381019080803590602001909291905050506125d8565b604051808681526020018573ffffffffffffffffffffffffffffffffffffffff1673ffffffffffffffffffffffffffffffffffffffff1681526020018060200184600281111561074c57fe5b60ff168152602001838152602001828103825285818151815260200191508051906020019080838360005b83811015610792578082015181840152602081019050610777565b50505050905090810190601f1680156107bf5780820380516001836020036101000a031916815260200191505b50965050505050505060405180910390f35b3480156107dd57600080fd5b506108ce60048036038101908080359060200190929190803590602001908201803590602001908080601f0160208091040260200160405190810160405280939291908181526020018383808284378201915050505050509192919290803590602001908201803590602001908080601f0160208091040260200160405190810160405280939291908181526020018383808284378201915050505050509192919290803590602001908201803590602001908080601f01602080910402602001604051908101604052809392919081815260200183838082843782019150505050505091929192905050506126e2565b604051808215151515815260200191505060405180910390f35b3480156108f457600080fd5b50610929600480360381019080803573ffffffffffffffffffffffffffffffffffffffff1690602001909291905050506128e0565b6040518082815260200191505060405180910390f35b34801561094b57600080fd5b5061095461292c565b6040518082815260200191505060405180910390f35b34801561097657600080fd5b5061099560048036038101908080359060200190929190505050612939565b6040518082815260200191505060405180910390f35b3480156109b757600080fd5b506109f6600480360381019080803573ffffffffffffffffffffffffffffffffffffffff16906020019092919080359060200190929190505050612959565b6040518082815260200191505060405180910390f35b348015610a1857600080fd5b50610a5560048036038101908080359060200190929190803590602001909291908035906020019092919080359060200190929190505050612989565b6040518082815260200191505060405180910390f35b348015610a7757600080fd5b50610a80612acf565b005b348015610a8e57600080fd5b50610ac3600480360381019080803573ffffffffffffffffffffffffffffffffffffffff169060200190929190505050612bd1565b6040518082815260200191505060405180910390f35b348015610ae557600080fd5b50610b0460048036038101908080359060200190929190505050612c1d565b604051808681526020018573ffffffffffffffffffffffffffffffffffffffff1673ffffffffffffffffffffffffffffffffffffffff168152602001806020018060200180602001848103845287818151815260200191508051906020019080838360005b83811015610b84578082015181840152602081019050610b69565b50505050905090810190601f168015610bb15780820380516001836020036101000a031916815260200191505b50848103835286818151815260200191508051906020019080838360005b83811015610bea578082015181840152602081019050610bcf565b50505050905090810190601f168015610c175780820380516001836020036101000a031916815260200191505b50848103825285818151815260200191508051906020019080838360005b83811015610c50578082015181840152602081019050610c35565b50505050905090810190601f168015610c7d5780820380516001836020036101000a031916815260200191505b509850505050505050505060405180910390f35b348015610c9d57600080fd5b50610d68600480360381019080803573ffffffffffffffffffffffffffffffffffffffff169060200190929190803590602001908201803590602001908080601f0160208091040260200160405190810160405280939291908181526020018383808284378201915050505050509192919290803590602001908201803590602001908080601f016020809104026020016040519081016040528093929190818152602001838380828437820191505050505050919291929080359060200190929190505050612e4a565b6040518082815260200191505060405180910390f35b348015610d8a57600080fd5b50610dfc60048036038101908080359060200190929190803590602001908201803590602001908080601f0160208091040260200160405190810160405280939291908181526020018383808284378201915050505050509192919290803560ff16906020019092919050505061315f565b604051808215151515815260200191505060405180910390f35b348015610e2257600080fd5b50610e4160048036038101908080359060200190929190505050613275565b604051808681526020018573ffffffffffffffffffffffffffffffffffffffff1673ffffffffffffffffffffffffffffffffffffffff1681526020018060200180602001848152602001838103835286818151815260200191508051906020019080838360005b83811015610ec3578082015181840152602081019050610ea8565b50505050905090810190601f168015610ef05780820380516001836020036101000a031916815260200191505b50838103825285818151815260200191508051906020019080838360005b83811015610f29578082015181840152602081019050610f0e565b50505050905090810190601f168015610f565780820380516001836020036101000a031916815260200191505b5097505050505050505060405180910390f35b348015610f7557600080fd5b5061102060048036038101908080359060200190929190803590602001908201803590602001908080601f0160208091040260200160405190810160405280939291908181526020018383808284378201915050505050509192919290803590602001908201803590602001908080601f0160208091040260200160405190810160405280939291908181526020018383808284378201915050505050509192919290505050613491565b604051808215151515815260200191505060405180910390f35b34801561104657600080fd5b5061106f60048036038101908080359060200190929190803590602001909291905050506135ec565b6040518082815260200191505060405180910390f35b34801561109157600080fd5b5061109a61361c565b6040518082815260200191505060405180910390f35b3480156110bc57600080fd5b506110c5613629565b604051808273ffffffffffffffffffffffffffffffffffffffff1673ffffffffffffffffffffffffffffffffffffffff16815260200191505060405180910390f35b34801561111357600080fd5b5061111c61364e565b6040518082815260200191505060405180910390f35b34801561113e57600080fd5b5061117d600480360381019080803573ffffffffffffffffffffffffffffffffffffffff1690602001909291908035906020019092919050505061365b565b604051808681526020018573ffffffffffffffffffffffffffffffffffffffff1673ffffffffffffffffffffffffffffffffffffffff168152602001806020018060200180602001848103845287818151815260200191508051906020019080838360005b838110156111fd5780820151818401526020810190506111e2565b50505050905090810190601f16801561122a5780820380516001836020036101000a031916815260200191505b50848103835286818151815260200191508051906020019080838360005b83811015611263578082015181840152602081019050611248565b50505050905090810190601f1680156112905780820380516001836020036101000a031916815260200191505b50848103825285818151815260200191508051906020019080838360005b838110156112c95780820151818401526020810190506112ae565b50505050905090810190601f1680156112f65780820380516001836020036101000a031916815260200191505b509850505050505050505060405180910390f35b34801561131657600080fd5b5061133560048036038101908080359060200190929190505050613780565b60405180878152602001868152602001858152602001848152602001838152602001828152602001965050505050505060405180910390f35b34801561137a57600080fd5b50611399600480360381019080803590602001909291905050506137cb565b604051808681526020018573ffffffffffffffffffffffffffffffffffffffff1673ffffffffffffffffffffffffffffffffffffffff168152602001806020018460ff1660ff168152602001838152602001828103825285818151815260200191508051906020019080838360005b83811015611423578082015181840152602081019050611408565b50505050905090810190601f1680156114505780820380516001836020036101000a031916815260200191505b50965050505050505060405180910390f35b34801561146e57600080fd5b5061147761397a565b6040518082815260200191505060405180910390f35b34801561149957600080fd5b506114b860048036038101908080359060200190929190505050613987565b604051808681526020018573ffffffffffffffffffffffffffffffffffffffff1673ffffffffffffffffffffffffffffffffffffffff168152602001806020018060200180602001848103845287818151815260200191508051906020019080838360005b8381101561153857808201518184015260208101905061151d565b50505050905090810190601f1680156115655780820380516001836020036101000a031916815260200191505b50848103835286818151815260200191508051906020019080838360005b8381101561159e578082015181840152602081019050611583565b50505050905090810190601f1680156115cb5780820380516001836020036101000a031916815260200191505b50848103825285818151815260200191508051906020019080838360005b838110156116045780820151818401526020810190506115e9565b50505050905090810190601f1680156116315780820380516001836020036101000a031916815260200191505b509850505050505050505060405180910390f35b34801561165157600080fd5b506116b8600480360381019080803573ffffffffffffffffffffffffffffffffffffffff1690602001909291908035906020019092919080359060200190929190803590602001909291908035906020019092919080359060200190929190505050613c3e565b6040518082815260200191505060405180910390f35b3480156116da57600080fd5b506116e3613d96565b6040518082815260200191505060405180910390f35b34801561170557600080fd5b5061172460048036038101908080359060200190929190505050613da3565b60405180878152602001868152602001858152602001848152602001838152602001828152602001965050505050505060405180910390f35b34801561176957600080fd5b50611772613e4f565b6040518082815260200191505060405180910390f35b34801561179457600080fd5b506117b360048036038101908080359060200190929190505050613e55565b604051808681526020018573ffffffffffffffffffffffffffffffffffffffff1673ffffffffffffffffffffffffffffffffffffffff1681526020018060200180602001848152602001838103835286818151815260200191508051906020019080838360005b8381101561183557808201518184015260208101905061181a565b50505050905090810190601f1680156118625780820380516001836020036101000a031916815260200191505b50838103825285818151815260200191508051906020019080838360005b8381101561189b578082015181840152602081019050611880565b50505050905090810190601f1680156118c85780820380516001836020036101000a031916815260200191505b5097505050505050505060405180910390f35b3480156118e757600080fd5b5061191c600480360381019080803573ffffffffffffffffffffffffffffffffffffffff169060200190929190505050613fea565b005b34801561192a57600080fd5b50611969600480360381019080803573ffffffffffffffffffffffffffffffffffffffff16906020019092919080359060200190929190505050614051565b6040518082815260200191505060405180910390f35b34801561198b57600080fd5b506119aa60048036038101908080359060200190929190505050614081565b604051808781526020018681526020018581526020018481526020018381526020018260018111156119d857fe5b60ff168152602001965050505050505060405180910390f35b600460205281600052604060002081815481101515611a0c57fe5b90600052602060002001600091509150505481565b3373ffffffffffffffffffffffffffffffffffffffff16600260009054906101000a900473ffffffffffffffffffffffffffffffffffffffff1673ffffffffffffffffffffffffffffffffffffffff16141515611ae6576040517f08c379a00000000000000000000000000000000000000000000000000000000081526004018080602001828103825260128152602001807f726573747269637465642066656174757265000000000000000000000000000081525060200191505060405180910390fd5b600260009054906101000a900473ffffffffffffffffffffffffffffffffffffffff1673ffffffffffffffffffffffffffffffffffffffff16ff5b600080600080600085611b3388612939565b101515611b7c57611b6d6006600089815260200190815260200160002087815481101515611b5d57fe5b9060005260206000200154612511565b94509450945094509450611c10565b6040517f08c379a00000000000000000000000000000000000000000000000000000000081526004018080602001828103825260318152602001807f73746f72652070726f64756374696e64657820646f6573206e6f74206578697381526020017f7420666f722074686973206f776e65722100000000000000000000000000000081525060400191505060405180910390fd5b9295509295909350565b600080606080600085611c2c886128e0565b101515611ca157611c92600460008973ffffffffffffffffffffffffffffffffffffffff1673ffffffffffffffffffffffffffffffffffffffff16815260200190815260200160002087815481101515611c8257fe5b9060005260206000200154613275565b94509450945094509450611d35565b6040517f08c379a000000000000000000000000000000000000000000000000000000000815260040180806020018281038252602a8152602001807f73746f726520696e64657820646f6573206e6f7420657869737420666f72207481526020017f686973206f776e6572210000000000000000000000000000000000000000000081525060400191505060405180910390fd5b9295509295909350565b60008060088054809190600101611d5691906141d3565b9150600882815481101515611d6757fe5b90600052602060002090600502019050858160010160006101000a81548173ffffffffffffffffffffffffffffffffffffffff021916908373ffffffffffffffffffffffffffffffffffffffff1602179055508360ff166002811115611dc957fe5b8160030160006101000a81548160ff02191690836002811115611de857fe5b021790555084816002019080519060200190611e05929190614205565b50818160000181905550828160040181905550600360008260010160009054906101000a900473ffffffffffffffffffffffffffffffffffffffff1673ffffffffffffffffffffffffffffffffffffffff1673ffffffffffffffffffffffffffffffffffffffff1681526020019081526020016000208290806001815401808255809150509060018203906000526020600020016000909192909190915055507faf7b8b0357323c008aa01aade6185caf920e5789190d8be8e6993a704c338f74828260010160009054906101000a900473ffffffffffffffffffffffffffffffffffffffff16836002018460030160009054906101000a900460ff166002811115611f0d57fe5b856004015442604051808781526020018673ffffffffffffffffffffffffffffffffffffffff1673ffffffffffffffffffffffffffffffffffffffff168152602001806020018560ff1660ff168152602001848152602001838152602001828103825286818154600181600116156101000203166002900481526020019150805460018160011615610100020316600290048015611fec5780601f10611fc157610100808354040283529160200191611fec565b820191906000526020600020905b815481529060010190602001808311611fcf57829003601f168201915b505097505050505050505060405180910390a181915050949350505050565b6000807f41304facd9323d75b11bcdd609cb38effffdb05710f7caf0e9b16c6d9d709f5060405180806020018281038252601b8152602001807f4d61726b6574506c6163652063726561746550726f647563742331000000000081525060200191505060405180910390a1600a805480919060010161208a9190614285565b9150600a8281548110151561209b57fe5b90600052602060002090600502019050818160000181905550858160010160006101000a81548173ffffffffffffffffffffffffffffffffffffffff021916908373ffffffffffffffffffffffffffffffffffffffff1602179055508481600201908051906020019061210f929190614205565b5083816003019080519060200190612128929190614205565b5082816004019080519060200190612141929190614205565b507f41304facd9323d75b11bcdd609cb38effffdb05710f7caf0e9b16c6d9d709f5060405180806020018281038252601b8152602001807f4d61726b6574506c6163652063726561746550726f647563742332000000000081525060200191505060405180910390a1600560008260010160009054906101000a900473ffffffffffffffffffffffffffffffffffffffff1673ffffffffffffffffffffffffffffffffffffffff1673ffffffffffffffffffffffffffffffffffffffff1681526020019081526020016000208290806001815401808255809150509060018203906000526020600020016000909192909190915055507fe4ad4da471c32df82e4662cb34bca4d035b223b7f16817748c133f732b51d8e7828260010160009054906101000a900473ffffffffffffffffffffffffffffffffffffffff16836002018460030185600401604051808681526020018573ffffffffffffffffffffffffffffffffffffffff1673ffffffffffffffffffffffffffffffffffffffff1681526020018060200180602001806020018481038452878181546001816001161561010002031660029004815260200191508054600181600116156101000203166002900480156123535780601f1061232857610100808354040283529160200191612353565b820191906000526020600020905b81548152906001019060200180831161233657829003601f168201915b50508481038352868181546001816001161561010002031660029004815260200191508054600181600116156101000203166002900480156123d65780601f106123ab576101008083540402835291602001916123d6565b820191906000526020600020905b8154815290600101906020018083116123b957829003601f168201915b50508481038252858181546001816001161561010002031660029004815260200191508054600181600116156101000203166002900480156124595780601f1061242e57610100808354040283529160200191612459565b820191906000526020600020905b81548152906001019060200180831161243c57829003601f168201915b50509850505050505050505060405180910390a17f41304facd9323d75b11bcdd609cb38effffdb05710f7caf0e9b16c6d9d709f5060405180806020018281038252601b8152602001807f4d61726b6574506c6163652063726561746550726f647563742333000000000081525060200191505060405180910390a181915050949350505050565b6007602052816000526040600020818154811015156124fc57fe5b90600052602060002001600091509150505481565b60008060008060006125216142b7565b600b8781548110151561253057fe5b906000526020600020906006020160c0604051908101604052908160008201548152602001600182015481526020016002820154815260200160038201548152602001600482015481526020016005820160009054906101000a900460ff16600181111561259a57fe5b60018111156125a557fe5b81525050905080600001518160200151826040015183606001518460800151955095509550955095505091939590929450565b6008818154811015156125e757fe5b90600052602060002090600502016000915090508060000154908060010160009054906101000a900473ffffffffffffffffffffffffffffffffffffffff1690806002018054600181600116156101000203166002900480601f0160208091040260200160405190810160405280929190818152602001828054600181600116156101000203166002900480156126bf5780601f10612694576101008083540402835291602001916126bf565b820191906000526020600020905b8154815290600101906020018083116126a257829003601f168201915b5050505050908060030160009054906101000a900460ff16908060040154905085565b600082600a868154811015156126f457fe5b90600052602060002090600502016003019080519060200190612718929190614205565b5081600a8681548110151561272957fe5b9060005260206000209060050201600401908051906020019061274d929190614205565b507f899cfc3364ae9e338fe89c2e276640e6ff57adc68b9e2eabbe0ea261c8bffc96858585854260405180868152602001806020018060200180602001858152602001848103845288818151815260200191508051906020019080838360005b838110156127c85780820151818401526020810190506127ad565b50505050905090810190601f1680156127f55780820380516001836020036101000a031916815260200191505b50848103835287818151815260200191508051906020019080838360005b8381101561282e578082015181840152602081019050612813565b50505050905090810190601f16801561285b5780820380516001836020036101000a031916815260200191505b50848103825286818151815260200191508051906020019080838360005b83811015612894578082015181840152602081019050612879565b50505050905090810190601f1680156128c15780820380516001836020036101000a031916815260200191505b509850505050505050505060405180910390a160019050949350505050565b6000600460008373ffffffffffffffffffffffffffffffffffffffff1673ffffffffffffffffffffffffffffffffffffffff168152602001908152602001600020805490509050919050565b6000600a80549050905090565b600060066000838152602001908152602001600020805490509050919050565b60056020528160005260406000208181548110151561297457fe5b90600052602060002001600091509150505481565b600080600b80548091906001016129a091906142f9565b9150600b828154811015156129b157fe5b90600052602060002090600602019050858160010181905550848160020181905550818160000181905550838160030181905550828160040181905550600060018111156129fb57fe5b8160050160006101000a81548160ff02191690836001811115612a1a57fe5b0217905550600660008781526020019081526020016000208290806001815401808255809150509060018203906000526020600020016000909192909190915055507fc37a30aa9383268ada71ddf15f71337c4a20bfa590e49d9229445f0adb6603e9828260010154836002015484600301548560040154604051808681526020018581526020018481526020018381526020018281526020019550505050505060405180910390a181915050949350505050565b6000809054906101000a900473ffffffffffffffffffffffffffffffffffffffff1673ffffffffffffffffffffffffffffffffffffffff163373ffffffffffffffffffffffffffffffffffffffff16141515612b2a57600080fd5b6000809054906101000a900473ffffffffffffffffffffffffffffffffffffffff1673ffffffffffffffffffffffffffffffffffffffff167ff8df31144d9c2f0f6b59d69b8b98abd5459d07f2742c4df920b25aae33c6482060405160405180910390a260008060006101000a81548173ffffffffffffffffffffffffffffffffffffffff021916908373ffffffffffffffffffffffffffffffffffffffff160217905550565b6000600560008373ffffffffffffffffffffffffffffffffffffffff1673ffffffffffffffffffffffffffffffffffffffff168152602001908152602001600020805490509050919050565b600a81815481101515612c2c57fe5b90600052602060002090600502016000915090508060000154908060010160009054906101000a900473ffffffffffffffffffffffffffffffffffffffff1690806002018054600181600116156101000203166002900480601f016020809104026020016040519081016040528092919081815260200182805460018160011615610100020316600290048015612d045780601f10612cd957610100808354040283529160200191612d04565b820191906000526020600020905b815481529060010190602001808311612ce757829003601f168201915b505050505090806003018054600181600116156101000203166002900480601f016020809104026020016040519081016040528092919081815260200182805460018160011615610100020316600290048015612da25780601f10612d7757610100808354040283529160200191612da2565b820191906000526020600020905b815481529060010190602001808311612d8557829003601f168201915b505050505090806004018054600181600116156101000203166002900480601f016020809104026020016040519081016040528092919081815260200182805460018160011615610100020316600290048015612e405780601f10612e1557610100808354040283529160200191612e40565b820191906000526020600020905b815481529060010190602001808311612e2357829003601f168201915b5050505050905085565b60008060098054809190600101612e61919061432b565b9150600982815481101515612e7257fe5b90600052602060002090600502019050858160010160006101000a81548173ffffffffffffffffffffffffffffffffffffffff021916908373ffffffffffffffffffffffffffffffffffffffff16021790555081816000018190555084816002019080519060200190612ee6929190614205565b5083816003019080519060200190612eff929190614205565b50828160040181905550600460008260010160009054906101000a900473ffffffffffffffffffffffffffffffffffffffff1673ffffffffffffffffffffffffffffffffffffffff1673ffffffffffffffffffffffffffffffffffffffff1681526020019081526020016000208290806001815401808255809150509060018203906000526020600020016000909192909190915055507f3cdc973b9e913ca324f10ecfe2e0755418a99d976dab1a186ef666bd766b7891828260010160009054906101000a900473ffffffffffffffffffffffffffffffffffffffff168360020184600301856004015442604051808781526020018673ffffffffffffffffffffffffffffffffffffffff1673ffffffffffffffffffffffffffffffffffffffff16815260200180602001806020018581526020018481526020018381038352878181546001816001161561010002031660029004815260200191508054600181600116156101000203166002900480156130bc5780601f10613091576101008083540402835291602001916130bc565b820191906000526020600020905b81548152906001019060200180831161309f57829003601f168201915b505083810382528681815460018160011615610100020316600290048152602001915080546001816001161561010002031660029004801561313f5780601f106131145761010080835404028352916020019161313f565b820191906000526020600020905b81548152906001019060200180831161312257829003601f168201915b50509850505050505050505060405180910390a181915050949350505050565b60008160ff16600281111561317057fe5b60088581548110151561317f57fe5b906000526020600020906005020160030160006101000a81548160ff021916908360028111156131ab57fe5b02179055507fa2cf4642a7d2520afe0ff52680df24740fe8c4d2b153d4bbf1ad375a6a887ab78484844260405180858152602001806020018460ff1660ff168152602001838152602001828103825285818151815260200191508051906020019080838360005b8381101561322d578082015181840152602081019050613212565b50505050905090810190601f16801561325a5780820380516001836020036101000a031916815260200191505b509550505050505060405180910390a1600190509392505050565b600080606080600061328561435d565b60098781548110151561329457fe5b906000526020600020906005020160a06040519081016040529081600082015481526020016001820160009054906101000a900473ffffffffffffffffffffffffffffffffffffffff1673ffffffffffffffffffffffffffffffffffffffff1673ffffffffffffffffffffffffffffffffffffffff168152602001600282018054600181600116156101000203166002900480601f0160208091040260200160405190810160405280929190818152602001828054600181600116156101000203166002900480156133a75780601f1061337c576101008083540402835291602001916133a7565b820191906000526020600020905b81548152906001019060200180831161338a57829003601f168201915b50505050508152602001600382018054600181600116156101000203166002900480601f0160208091040260200160405190810160405280929190818152602001828054600181600116156101000203166002900480156134495780601f1061341e57610100808354040283529160200191613449565b820191906000526020600020905b81548152906001019060200180831161342c57829003601f168201915b50505050508152602001600482015481525050905080600001518160200151826040015183606001518460800151829250819150955095509550955095505091939590929450565b6000816009858154811015156134a357fe5b906000526020600020906005020160030190805190602001906134c7929190614205565b507fc95fb85251e3669833b8e5dc25e9d9559b6417d2f438344ed6ad9356377b923384848442604051808581526020018060200180602001848152602001838103835286818151815260200191508051906020019080838360005b8381101561353d578082015181840152602081019050613522565b50505050905090810190601f16801561356a5780820380516001836020036101000a031916815260200191505b50838103825285818151815260200191508051906020019080838360005b838110156135a3578082015181840152602081019050613588565b50505050905090810190601f1680156135d05780820380516001836020036101000a031916815260200191505b50965050505050505060405180910390a1600190509392505050565b60066020528160005260406000208181548110151561360757fe5b90600052602060002001600091509150505481565b6000600c80549050905090565b6000809054906101000a900473ffffffffffffffffffffffffffffffffffffffff1681565b6000600980549050905090565b60008060608060608561366d88612bd1565b1015156136e2576136d3600560008973ffffffffffffffffffffffffffffffffffffffff1673ffffffffffffffffffffffffffffffffffffffff168152602001908152602001600020878154811015156136c357fe5b9060005260206000200154613987565b94509450945094509450613776565b6040517f08c379a000000000000000000000000000000000000000000000000000000000815260040180806020018281038252602c8152602001807f70726f6475637420696e64657820646f6573206e6f7420657869737420666f7281526020017f2074686973206f776e657221000000000000000000000000000000000000000081525060400191505060405180910390fd5b9295509295909350565b600c8181548110151561378f57fe5b90600052602060002090600602016000915090508060000154908060010154908060020154908060030154908060040154908060050154905086565b60008060606000806137db6143a3565b6008878154811015156137ea57fe5b906000526020600020906005020160a06040519081016040529081600082015481526020016001820160009054906101000a900473ffffffffffffffffffffffffffffffffffffffff1673ffffffffffffffffffffffffffffffffffffffff1673ffffffffffffffffffffffffffffffffffffffff168152602001600282018054600181600116156101000203166002900480601f0160208091040260200160405190810160405280929190818152602001828054600181600116156101000203166002900480156138fd5780601f106138d2576101008083540402835291602001916138fd565b820191906000526020600020905b8154815290600101906020018083116138e057829003601f168201915b505050505081526020016003820160009054906101000a900460ff16600281111561392457fe5b600281111561392f57fe5b815260200160048201548152505090508060000151816020015182604001518360600151600281111561395e57fe5b8460800151829250955095509550955095505091939590929450565b6000600880549050905090565b60008060608060606139976143f4565b600a878154811015156139a657fe5b906000526020600020906005020160a06040519081016040529081600082015481526020016001820160009054906101000a900473ffffffffffffffffffffffffffffffffffffffff1673ffffffffffffffffffffffffffffffffffffffff1673ffffffffffffffffffffffffffffffffffffffff168152602001600282018054600181600116156101000203166002900480601f016020809104026020016040519081016040528092919081815260200182805460018160011615610100020316600290048015613ab95780601f10613a8e57610100808354040283529160200191613ab9565b820191906000526020600020905b815481529060010190602001808311613a9c57829003601f168201915b50505050508152602001600382018054600181600116156101000203166002900480601f016020809104026020016040519081016040528092919081815260200182805460018160011615610100020316600290048015613b5b5780601f10613b3057610100808354040283529160200191613b5b565b820191906000526020600020905b815481529060010190602001808311613b3e57829003601f168201915b50505050508152602001600482018054600181600116156101000203166002900480601f016020809104026020016040519081016040528092919081815260200182805460018160011615610100020316600290048015613bfd5780601f10613bd257610100808354040283529160200191613bfd565b820191906000526020600020905b815481529060010190602001808311613be057829003601f168201915b505050505081525050905080600001518160200151826040015183606001518460800151829250819150809050955095509550955095505091939590929450565b600080600c8054809190600101613c55919061443a565b9150600c82815481101515613c6657fe5b90600052602060002090600602019050868160010181905550858160020181905550848160030181905550818160000181905550838160040181905550828160050181905550600560008973ffffffffffffffffffffffffffffffffffffffff1673ffffffffffffffffffffffffffffffffffffffff1681526020019081526020016000208290806001815401808255809150509060018203906000526020600020016000909192909190915055507fdbfdff4ea503e152ab2fb1f60ff8e2434f5642cff68cb295db49e4e5ad5323c9828260010154836002015484600301548560040154866005015460405180878152602001868152602001858152602001848152602001838152602001828152602001965050505050505060405180910390a1819150509695505050505050565b6000600b80549050905090565b600080600080600080613db461446c565b600c88815481101515613dc357fe5b906000526020600020906006020160c0604051908101604052908160008201548152602001600182015481526020016002820154815260200160038201548152602001600482015481526020016005820154815250509050806020015181600001518260400151836060015184608001518560a001519650965096509650965096505091939550919395565b60015481565b600981815481101515613e6457fe5b90600052602060002090600502016000915090508060000154908060010160009054906101000a900473ffffffffffffffffffffffffffffffffffffffff1690806002018054600181600116156101000203166002900480601f016020809104026020016040519081016040528092919081815260200182805460018160011615610100020316600290048015613f3c5780601f10613f1157610100808354040283529160200191613f3c565b820191906000526020600020905b815481529060010190602001808311613f1f57829003601f168201915b505050505090806003018054600181600116156101000203166002900480601f016020809104026020016040519081016040528092919081815260200182805460018160011615610100020316600290048015613fda5780601f10613faf57610100808354040283529160200191613fda565b820191906000526020600020905b815481529060010190602001808311613fbd57829003601f168201915b5050505050908060040154905085565b6000809054906101000a900473ffffffffffffffffffffffffffffffffffffffff1673ffffffffffffffffffffffffffffffffffffffff163373ffffffffffffffffffffffffffffffffffffffff1614151561404557600080fd5b61404e816140d9565b50565b60036020528160005260406000208181548110151561406c57fe5b90600052602060002001600091509150505481565b600b8181548110151561409057fe5b90600052602060002090600602016000915090508060000154908060010154908060020154908060030154908060040154908060050160009054906101000a900460ff16905086565b600073ffffffffffffffffffffffffffffffffffffffff168173ffffffffffffffffffffffffffffffffffffffff161415151561411557600080fd5b8073ffffffffffffffffffffffffffffffffffffffff166000809054906101000a900473ffffffffffffffffffffffffffffffffffffffff1673ffffffffffffffffffffffffffffffffffffffff167f8be0079c531659141344cd1fd0a4f28419497f9722a3daafe3b4186f6b6457e060405160405180910390a3806000806101000a81548173ffffffffffffffffffffffffffffffffffffffff021916908373ffffffffffffffffffffffffffffffffffffffff16021790555050565b815481835581811115614200576005028160050283600052602060002091820191016141ff91906144a3565b5b505050565b828054600181600116156101000203166002900490600052602060002090601f016020900481019282601f1061424657805160ff1916838001178555614274565b82800160010185558215614274579182015b82811115614273578251825591602001919060010190614258565b5b509050614281919061451d565b5090565b8154818355818111156142b2576005028160050283600052602060002091820191016142b19190614542565b5b505050565b60c0604051908101604052806000815260200160008152602001600081526020016000815260200160008152602001600060018111156142f357fe5b81525090565b8154818355818111156143265760060281600602836000526020600020918201910161432591906145c0565b5b505050565b81548183558181111561435857600502816005028360005260206000209182019101614357919061461b565b5b505050565b60a06040519081016040528060008152602001600073ffffffffffffffffffffffffffffffffffffffff1681526020016060815260200160608152602001600081525090565b60a06040519081016040528060008152602001600073ffffffffffffffffffffffffffffffffffffffff16815260200160608152602001600060028111156143e757fe5b8152602001600081525090565b60a06040519081016040528060008152602001600073ffffffffffffffffffffffffffffffffffffffff1681526020016060815260200160608152602001606081525090565b815481835581811115614467576006028160060283600052602060002091820191016144669190614691565b5b505050565b60c0604051908101604052806000815260200160008152602001600081526020016000815260200160008152602001600081525090565b61451a91905b80821115614516576000808201600090556001820160006101000a81549073ffffffffffffffffffffffffffffffffffffffff02191690556002820160006144f191906146e0565b6003820160006101000a81549060ff02191690556004820160009055506005016144a9565b5090565b90565b61453f91905b8082111561453b576000816000905550600101614523565b5090565b90565b6145bd91905b808211156145b9576000808201600090556001820160006101000a81549073ffffffffffffffffffffffffffffffffffffffff021916905560028201600061459091906146e0565b6003820160006145a091906146e0565b6004820160006145b091906146e0565b50600501614548565b5090565b90565b61461891905b808211156146145760008082016000905560018201600090556002820160009055600382016000905560048201600090556005820160006101000a81549060ff0219169055506006016145c6565b5090565b90565b61468e91905b8082111561468a576000808201600090556001820160006101000a81549073ffffffffffffffffffffffffffffffffffffffff021916905560028201600061466991906146e0565b60038201600061467991906146e0565b600482016000905550600501614621565b5090565b90565b6146dd91905b808211156146d9576000808201600090556001820160009055600282016000905560038201600090556004820160009055600582016000905550600601614697565b5090565b90565b50805460018160011615610100020316600290046000825580601f106147065750614725565b601f016020900490600052602060002090810190614724919061451d565b5b505600a165627a7a723058209179fb0b710125faeea7c73c8d19235d6e5793a0ec5d8e86ec2f79e2b4e3138d0029",
  "source": "pragma solidity ^0.4.17;\r\n//npm install -E openzeppelin-solidity\r\nimport \"openzeppelin-solidity/contracts/ownership/Ownable.sol\";\r\nimport \"openzeppelin-solidity/contracts/math/SafeMath.sol\";\r\n\r\ncontract MarketPlace is Ownable {\r\n   /** MarketPlace \r\n   The central marketplace is managed by a group of administrators.\r\n    Admins allow store owners to add stores to the marketplace. \r\n    Store owners can manage their stores inventory and funds.\r\n    Shoppers can visit stores and purchase goods that are in stock using cryptocurrency */\r\n\r\n   // Assigned at the construction\r\n   // phase, where `msg.sender` is the account\r\n   // creating this contract.\r\n    using SafeMath for uint;\r\n    uint public creationTime = now;\r\n\r\n    address owner; /* Owner of contract */\r\n    constructor() public\r\n     {\r\n    // Assigned at the construction\r\n    // phase, create ADMIN user as the where `msg.sender` is the account\r\n    // creating this contract.\r\n    //\r\n        owner = msg.sender;\r\n        createUser(msg.sender, \"Admin\", 0, 0);\r\n        emit log(\"owner = msg.sender\");\r\n    }\r\n\r\n    modifier ownerRestricted {\r\n        require(owner == msg.sender, \"restricted feature\");\r\n        _;\r\n        // the \"_;\"!  will\r\n        // be replaced by the actual function\r\n        // body when the modifier is used.\r\n    } \r\n\r\n    function destroyContract() external ownerRestricted {\r\n        selfdestruct(owner);\r\n    }\r\n\r\n   // Stucture for a user\r\n    \r\n    struct user\r\n    {\r\n        uint uid;\r\n        address user;\r\n        string username;\r\n        userType usertype;\r\n        uint256 amount;\r\n    }\r\n    enum userType {Admin, Owner, Shopper}\r\n\r\n    // define store entity\r\n    struct store\r\n    {\r\n        uint sid;\r\n        address owner;\r\n        string name;\r\n        string description;\r\n        uint256 amount;\r\n    }\r\n\r\n    // define product entity\r\n    struct product\r\n    {\r\n        uint pid;\r\n        address owner;\r\n        string name;\r\n        string description;\r\n        string imgsrc;\r\n    }\r\n\r\n    struct storeproduct\r\n    {\r\n        uint spid;\r\n        uint sid;\r\n        uint pid;\r\n        uint256 price;\r\n        uint256 qty_avail;\r\n        productStatus status;\r\n    }          \r\n    enum productStatus { Available, BackOrder}\r\n\r\n    struct order\r\n    {\r\n        uint oid;\r\n        uint uid;\r\n        uint sid;\r\n        uint pid;\r\n        uint256 price;\r\n        uint256 qty;\r\n    }    \r\n\r\n    mapping(address => uint[]) public UserOwnerMap;\r\n    mapping(address => uint[]) public StoreOwnerMap;\r\n    mapping(address => uint[]) public ProductOwnerMap;\r\n    mapping(uint => uint[]) public StoreProductMap;\r\n    mapping(address => uint[]) public OrderOwnerMap;\r\n\r\n    user[] public users;                    /* Array of user structures i.e. users */\r\n    store[] public stores;                  /* Array of store structures i.e. stores */\r\n    product[] public products;              /* Array of product structures i.e. products */\r\n    storeproduct[] public storeproducts;    /* Array of product in a store */\r\n    order[] public orders;                  /* Array of order of product in a store by a user */\r\n\r\n    // onlyAdministrator\r\n    modifier onlyAdministrator (address sid)\r\n    {\r\n    /*\r\n        // if address not that of Administrator then  \r\n        if (temp.userType != userTypes.Admin)\r\n        {\r\n            emit throwError(\"Error: user is not Admin !\");            \r\n            revert();\r\n        }\r\n    */\r\n        _;\r\n    }\r\n    // list all of the events and what we need to know about them\r\n    event throwError(string message);\r\n    event log(string message);\r\n    event userCreated(uint uid, address user, string username, uint8 usertype, uint256 amount, uint timestamp);\r\n    event userUpdated(uint uid, string username, uint8 usertype, uint timestamp);\r\n    event storeCreated(uint sid, address owner, string name, string description, uint256 amount, uint timestamp);\r\n    event storeUpdated(uint sid, string name, string description, uint timestamp);\r\n    event productCreated(uint pid, address owner, string name, string description, string imgsrc);\r\n    event productUpdated(uint pid, string name, string description, string imgsrc, uint timestamp);\r\n    event storeproductCreated(uint spid, uint sid, uint pid, uint256 price,uint256 qty_avail);\r\n    event orderCreated (uint oid, uint uid, uint sid, uint pid, uint256 price,uint256 qty);\r\n  \r\n    // these functions facilitate the CRUD for the MArketPlace Bill of Materials\r\n    // The BOM includes users: Admins and Store Owners\r\n    //                  stores, products and orders\r\n\r\n    function createUser( address _user, string _username, uint8 _usertype, uint256 _amount) public returns (uint id)\r\n    {\r\n        id = users.length++;\r\n        user storage newUser = users[id];\r\n        newUser.user = _user;\r\n        newUser.usertype = userType(_usertype);\r\n        newUser.username = _username;\r\n        newUser.uid = id;\r\n        newUser.amount = _amount;\r\n        UserOwnerMap[newUser.user].push(id);\r\n        emit userCreated(id, newUser.user, newUser.username, (uint8)(newUser.usertype), newUser.amount, now);\r\n        return id;\r\n    }\r\n\r\n    function updateUser( uint _uid, string _username, uint8 _usertype)\r\n        public returns (bool success)\r\n    {\r\n        /* Only allow changes to usertype */\r\n        users[_uid].usertype = userType(_usertype);\r\n        emit userUpdated(_uid, _username, (uint8)(_usertype), now);\r\n        return true;\r\n    }\r\n\r\n    function getUser(uint idx) public view returns (uint, address, string, uint8, uint256)\r\n    {\r\n        user memory temp = users[idx];\r\n        return (temp.uid, temp.user, temp.username, uint8(temp.usertype), temp.amount);\r\n    }\r\n\r\n    function getUserCount() public view returns (uint)\r\n    {\r\n        return users.length;\r\n    }\r\n\r\n    function createStore( address _owner, string _name, string _description, uint256 _amount ) public returns (uint id)\r\n    {\r\n        id = stores.length++;\r\n        store storage newStore = stores[id];\r\n        newStore.owner = _owner;\r\n        newStore.sid = id;\r\n        newStore.name = _name;\r\n        newStore.description = _description;\r\n        newStore.amount = _amount;\r\n        StoreOwnerMap[newStore.owner].push(id);\r\n        emit storeCreated(id, newStore.owner, newStore.name, newStore.description, newStore.amount, now);\r\n        return id;\r\n    }\r\n    \r\n    function updateStore( uint _sid, string _storename, string _storedescription)\r\n        public returns (bool success)\r\n    {\r\n        /* Only allow changes to description */\r\n        stores[_sid].description = _storedescription;\r\n        emit storeUpdated(_sid, _storename, _storedescription, now);\r\n        return true;\r\n    }\r\n\r\n    function getStore(uint idx) public view returns (uint, address, string, string, uint256)\r\n    {\r\n        store memory temp = stores[idx];\r\n        return (temp.sid, temp.owner, temp.name, temp.description, temp.amount);\r\n    }\r\n\r\n    function getStoreCount() public view returns (uint)\r\n    {\r\n        return stores.length;\r\n    }\r\n\r\n    function getStoreForOwner(address _owner, uint idx) public view returns (uint, address, string, string, uint256)\r\n    {\r\n        if (getStoreCountForOwner(_owner) >= idx)\r\n        {\r\n            return getStore(StoreOwnerMap[_owner][idx]);\r\n        }\r\n        else\r\n        {\r\n            revert(\"store index does not exist for this owner!\");\r\n        }\r\n    }\r\n\r\n    function getStoreCountForOwner(address _owner) public view returns (uint)\r\n    {\r\n        return StoreOwnerMap[_owner].length;\r\n    }\r\n\r\n    function createProduct( address _owner, string _name, string _description, string _imgsrc ) public returns (uint id)\r\n    {\r\n        emit log(\"MarketPlace createProduct#1\");\r\n        id = products.length++;\r\n        product storage newProduct = products[id];\r\n        newProduct.pid = id;\r\n        newProduct.owner = _owner;\r\n        newProduct.name = _name;\r\n        newProduct.description = _description;\r\n        newProduct.imgsrc = _imgsrc;\r\n        emit log(\"MarketPlace createProduct#2\");\r\n        ProductOwnerMap[newProduct.owner].push(id);\r\n        emit productCreated(id, newProduct.owner, newProduct.name, newProduct.description, newProduct.imgsrc);\r\n        emit log(\"MarketPlace createProduct#3\");\r\n        return id;\r\n    }\r\n\r\n    function updateProduct( uint _pid, string _name, string _description, string _imgsrc)\r\n        public returns (bool success)\r\n    {\r\n        /* Only allow changes to description and imgsrc */\r\n        products[_pid].description = _description;\r\n        products[_pid].imgsrc = _imgsrc;\r\n        emit productUpdated(_pid, _name, _description, _imgsrc, now);\r\n        return true;\r\n    }\r\n\r\n    function getProduct(uint idx) public view returns ( uint, address, string, string, string )\r\n    {\r\n        product memory temp = products[idx];\r\n        return (temp.pid, temp.owner, temp.name, temp.description, temp.imgsrc);\r\n    }\r\n\r\n    function getProductCount() public view returns (uint)\r\n    {\r\n        return products.length;\r\n    }\r\n    \r\n    function getProductForOwner(address _owner, uint idx) public view returns ( uint, address, string, string, string )\r\n    {\r\n        if (getProductCountForOwner(_owner) >= idx)\r\n        {\r\n            return getProduct(ProductOwnerMap[_owner][idx]);\r\n        }\r\n        else\r\n        {\r\n            revert(\"product index does not exist for this owner!\");\r\n        }\r\n    }\r\n\r\n    function getProductCountForOwner(address _owner) public view returns (uint)\r\n    {\r\n        return ProductOwnerMap[_owner].length;\r\n    }\r\n\r\n    function createStoreProduct( uint _sid, uint _pid, uint256 _price, uint256 _qty_avail) public returns (uint id)\r\n    {\r\n        id = storeproducts.length++;\r\n        storeproduct storage newStoreProduct = storeproducts[id];\r\n        newStoreProduct.sid = _sid;\r\n        newStoreProduct.pid = _pid;\r\n        newStoreProduct.spid = id;\r\n        newStoreProduct.price = _price;\r\n        newStoreProduct.qty_avail = _qty_avail;\r\n        newStoreProduct.status = productStatus(0);\r\n        StoreProductMap[_sid].push(id);\r\n        emit storeproductCreated(id, newStoreProduct.sid, newStoreProduct.pid, newStoreProduct.price, newStoreProduct.qty_avail);\r\n        return id;\r\n    }\r\n    \r\n    function getStoreProduct(uint idx) public view returns ( uint, uint, uint, uint256, uint256)\r\n    {\r\n        storeproduct memory temp = storeproducts[idx];\r\n        return (temp.spid, temp.sid,temp.pid, temp.price, temp.qty_avail);\r\n    }  \r\n\r\n    function getStoreProductCount() public view returns (uint)\r\n    {\r\n        return storeproducts.length;\r\n    }\r\n\r\n    // return the StoreProduct for the provided store and storeproduct index\r\n    function getStoreProductForStore(uint _sid, uint _idx) public view returns ( uint, uint, uint, uint256, uint256)\r\n    {\r\n        if (getStoreProductCountForStore(_sid) >= _idx)\r\n        {\r\n            return getStoreProduct(StoreProductMap[_sid][_idx]);\r\n        }\r\n        else\r\n        {\r\n            revert(\"store productindex does not exist for this owner!\");\r\n        }\r\n    }  \r\n\r\n    function getStoreProductCountForStore(uint _sid) public view returns (uint)\r\n    {\r\n        return StoreProductMap[_sid].length;\r\n    }\r\n\r\n    function createOrder( address _sowner, uint _uid, uint _sid, uint _pid, uint256 _price, uint256 _qty) public returns (uint id)\r\n    {\r\n        id = orders.length++;\r\n        order storage newOrder = orders[id];\r\n        newOrder.uid = _uid;\r\n        newOrder.sid = _sid;\r\n        newOrder.pid = _pid;\r\n        newOrder.oid = id;\r\n        newOrder.price = _price;\r\n        newOrder.qty = _qty;\r\n        ProductOwnerMap[_sowner].push(id);\r\n        emit orderCreated(id, newOrder.uid, newOrder.sid, newOrder.pid, newOrder.price, newOrder.qty);\r\n        return id;\r\n    }\r\n    \r\n    function getOrder(uint idx) public view returns ( uint, uint, uint, uint, uint256, uint256)\r\n    {\r\n        order memory temp = orders[idx];\r\n        //  product name and description temp.pid \r\n        //  store info temp.sid \r\n        //  user info  temp.uid \r\n        return (temp.uid, temp.oid, temp.sid, temp.pid, temp.price, temp.qty);\r\n    } \r\n\r\n    function getOrderCount() public view returns (uint)\r\n    {\r\n        return orders.length;\r\n    } \r\n\r\n    // function sellProduct(uint pid, uint sid, uint qty) public view returns ( uint)\r\n    // {\r\n    //   //getStoreProduct (_sid, _pid);\r\n    //   // ensure we have at least 1 \r\n    //   //createOrder( _sowner, _uid , _sid, _pid, _price, _qty)\r\n    //   // decrease inventory by 1\r\n    //   // decrease sellers wallet by price\r\n    //   // increase store owners wallet by price\r\n    // }                       \r\n\r\n}",
  "sourcePath": "C:\\Users\\jbambara\\Documents\\GitHub\\ConsensysFinalProject\\marketplace\\contracts\\MarketPlace.sol",
  "compiler": {
    "name": "solc",
    "version": "0.4.24+commit.e67f0147.Emscripten.clang"
  },
  "schemaVersion": "2.0.1",
  "updatedAt": "2018-08-20T13:02:13.694Z"
}