{
  "contractName": "MarketPlace",
  "abi": [
    {
      "constant": true,
      "inputs": [
        {
          "name": "",
          "type": "address"
        },
        {
          "name": "",
          "type": "uint256"
        }
      ],
      "name": "StoreOwnerMap",
      "outputs": [
        {
          "name": "",
          "type": "uint256"
        }
      ],
      "payable": false,
      "stateMutability": "view",
      "type": "function"
    },
    {
      "constant": true,
      "inputs": [
        {
          "name": "",
          "type": "uint256"
        }
      ],
      "name": "users",
      "outputs": [
        {
          "name": "uid",
          "type": "uint256"
        },
        {
          "name": "user",
          "type": "address"
        },
        {
          "name": "username",
          "type": "string"
        },
        {
          "name": "usertype",
          "type": "uint8"
        },
        {
          "name": "amount",
          "type": "uint256"
        }
      ],
      "payable": false,
      "stateMutability": "view",
      "type": "function"
    },
    {
      "constant": true,
      "inputs": [
        {
          "name": "",
          "type": "address"
        },
        {
          "name": "",
          "type": "uint256"
        }
      ],
      "name": "ProductOwnerMap",
      "outputs": [
        {
          "name": "",
          "type": "uint256"
        }
      ],
      "payable": false,
      "stateMutability": "view",
      "type": "function"
    },
    {
      "constant": true,
      "inputs": [
        {
          "name": "",
          "type": "uint256"
        }
      ],
      "name": "products",
      "outputs": [
        {
          "name": "pid",
          "type": "uint256"
        },
        {
          "name": "owner",
          "type": "address"
        },
        {
          "name": "name",
          "type": "string"
        },
        {
          "name": "description",
          "type": "string"
        },
        {
          "name": "imgsrc",
          "type": "string"
        }
      ],
      "payable": false,
      "stateMutability": "view",
      "type": "function"
    },
    {
      "constant": true,
      "inputs": [
        {
          "name": "",
          "type": "uint256"
        }
      ],
      "name": "orders",
      "outputs": [
        {
          "name": "oid",
          "type": "uint256"
        },
        {
          "name": "uid",
          "type": "uint256"
        },
        {
          "name": "sid",
          "type": "uint256"
        },
        {
          "name": "pid",
          "type": "uint256"
        },
        {
          "name": "price",
          "type": "uint256"
        },
        {
          "name": "qty",
          "type": "uint256"
        }
      ],
      "payable": false,
      "stateMutability": "view",
      "type": "function"
    },
    {
      "constant": true,
      "inputs": [
        {
          "name": "",
          "type": "uint256"
        }
      ],
      "name": "stores",
      "outputs": [
        {
          "name": "sid",
          "type": "uint256"
        },
        {
          "name": "owner",
          "type": "address"
        },
        {
          "name": "name",
          "type": "string"
        },
        {
          "name": "description",
          "type": "string"
        },
        {
          "name": "amount",
          "type": "uint256"
        }
      ],
      "payable": false,
      "stateMutability": "view",
      "type": "function"
    },
    {
      "constant": true,
      "inputs": [
        {
          "name": "",
          "type": "address"
        },
        {
          "name": "",
          "type": "uint256"
        }
      ],
      "name": "UserOwnerMap",
      "outputs": [
        {
          "name": "",
          "type": "uint256"
        }
      ],
      "payable": false,
      "stateMutability": "view",
      "type": "function"
    },
    {
      "constant": true,
      "inputs": [
        {
          "name": "",
          "type": "uint256"
        }
      ],
      "name": "storeproducts",
      "outputs": [
        {
          "name": "spid",
          "type": "uint256"
        },
        {
          "name": "sid",
          "type": "uint256"
        },
        {
          "name": "pid",
          "type": "uint256"
        },
        {
          "name": "price",
          "type": "uint256"
        },
        {
          "name": "qty_avail",
          "type": "uint256"
        },
        {
          "name": "status",
          "type": "uint8"
        }
      ],
      "payable": false,
      "stateMutability": "view",
      "type": "function"
    },
    {
      "inputs": [],
      "payable": false,
      "stateMutability": "nonpayable",
      "type": "constructor"
    },
    {
      "anonymous": false,
      "inputs": [
        {
          "indexed": false,
          "name": "message",
          "type": "string"
        }
      ],
      "name": "throwError",
      "type": "event"
    },
    {
      "anonymous": false,
      "inputs": [
        {
          "indexed": false,
          "name": "message",
          "type": "string"
        }
      ],
      "name": "log",
      "type": "event"
    },
    {
      "anonymous": false,
      "inputs": [
        {
          "indexed": false,
          "name": "uid",
          "type": "uint256"
        },
        {
          "indexed": false,
          "name": "user",
          "type": "address"
        },
        {
          "indexed": false,
          "name": "username",
          "type": "string"
        },
        {
          "indexed": false,
          "name": "usertype",
          "type": "uint8"
        },
        {
          "indexed": false,
          "name": "amount",
          "type": "uint256"
        },
        {
          "indexed": false,
          "name": "timestamp",
          "type": "uint256"
        }
      ],
      "name": "userCreated",
      "type": "event"
    },
    {
      "anonymous": false,
      "inputs": [
        {
          "indexed": false,
          "name": "uid",
          "type": "uint256"
        },
        {
          "indexed": false,
          "name": "username",
          "type": "string"
        },
        {
          "indexed": false,
          "name": "usertype",
          "type": "uint8"
        },
        {
          "indexed": false,
          "name": "timestamp",
          "type": "uint256"
        }
      ],
      "name": "userUpdated",
      "type": "event"
    },
    {
      "anonymous": false,
      "inputs": [
        {
          "indexed": false,
          "name": "sid",
          "type": "uint256"
        },
        {
          "indexed": false,
          "name": "owner",
          "type": "address"
        },
        {
          "indexed": false,
          "name": "name",
          "type": "string"
        },
        {
          "indexed": false,
          "name": "description",
          "type": "string"
        },
        {
          "indexed": false,
          "name": "amount",
          "type": "uint256"
        },
        {
          "indexed": false,
          "name": "timestamp",
          "type": "uint256"
        }
      ],
      "name": "storeCreated",
      "type": "event"
    },
    {
      "anonymous": false,
      "inputs": [
        {
          "indexed": false,
          "name": "sid",
          "type": "uint256"
        },
        {
          "indexed": false,
          "name": "name",
          "type": "string"
        },
        {
          "indexed": false,
          "name": "description",
          "type": "string"
        },
        {
          "indexed": false,
          "name": "timestamp",
          "type": "uint256"
        }
      ],
      "name": "storeUpdated",
      "type": "event"
    },
    {
      "anonymous": false,
      "inputs": [
        {
          "indexed": false,
          "name": "pid",
          "type": "uint256"
        },
        {
          "indexed": false,
          "name": "owner",
          "type": "address"
        },
        {
          "indexed": false,
          "name": "name",
          "type": "string"
        },
        {
          "indexed": false,
          "name": "description",
          "type": "string"
        },
        {
          "indexed": false,
          "name": "imgsrc",
          "type": "string"
        }
      ],
      "name": "productCreated",
      "type": "event"
    },
    {
      "anonymous": false,
      "inputs": [
        {
          "indexed": false,
          "name": "pid",
          "type": "uint256"
        },
        {
          "indexed": false,
          "name": "name",
          "type": "string"
        },
        {
          "indexed": false,
          "name": "description",
          "type": "string"
        },
        {
          "indexed": false,
          "name": "imgsrc",
          "type": "string"
        },
        {
          "indexed": false,
          "name": "timestamp",
          "type": "uint256"
        }
      ],
      "name": "productUpdated",
      "type": "event"
    },
    {
      "anonymous": false,
      "inputs": [
        {
          "indexed": false,
          "name": "spid",
          "type": "uint256"
        },
        {
          "indexed": false,
          "name": "sid",
          "type": "uint256"
        },
        {
          "indexed": false,
          "name": "pid",
          "type": "uint256"
        },
        {
          "indexed": false,
          "name": "price",
          "type": "uint256"
        },
        {
          "indexed": false,
          "name": "qty_avail",
          "type": "uint256"
        }
      ],
      "name": "storeproductCreated",
      "type": "event"
    },
    {
      "anonymous": false,
      "inputs": [
        {
          "indexed": false,
          "name": "oid",
          "type": "uint256"
        },
        {
          "indexed": false,
          "name": "uid",
          "type": "uint256"
        },
        {
          "indexed": false,
          "name": "sid",
          "type": "uint256"
        },
        {
          "indexed": false,
          "name": "pid",
          "type": "uint256"
        },
        {
          "indexed": false,
          "name": "price",
          "type": "uint256"
        },
        {
          "indexed": false,
          "name": "qty",
          "type": "uint256"
        }
      ],
      "name": "orderCreated",
      "type": "event"
    },
    {
      "constant": false,
      "inputs": [],
      "name": "destroyContract",
      "outputs": [],
      "payable": false,
      "stateMutability": "nonpayable",
      "type": "function"
    },
    {
      "constant": false,
      "inputs": [
        {
          "name": "_user",
          "type": "address"
        },
        {
          "name": "_username",
          "type": "string"
        },
        {
          "name": "_usertype",
          "type": "uint8"
        },
        {
          "name": "_amount",
          "type": "uint256"
        }
      ],
      "name": "createUser",
      "outputs": [
        {
          "name": "id",
          "type": "uint256"
        }
      ],
      "payable": false,
      "stateMutability": "nonpayable",
      "type": "function"
    },
    {
      "constant": false,
      "inputs": [
        {
          "name": "_uid",
          "type": "uint256"
        },
        {
          "name": "_username",
          "type": "string"
        },
        {
          "name": "_usertype",
          "type": "uint8"
        }
      ],
      "name": "updateUser",
      "outputs": [
        {
          "name": "success",
          "type": "bool"
        }
      ],
      "payable": false,
      "stateMutability": "nonpayable",
      "type": "function"
    },
    {
      "constant": true,
      "inputs": [
        {
          "name": "idx",
          "type": "uint256"
        }
      ],
      "name": "getUser",
      "outputs": [
        {
          "name": "",
          "type": "uint256"
        },
        {
          "name": "",
          "type": "address"
        },
        {
          "name": "",
          "type": "string"
        },
        {
          "name": "",
          "type": "uint8"
        },
        {
          "name": "",
          "type": "uint256"
        }
      ],
      "payable": false,
      "stateMutability": "view",
      "type": "function"
    },
    {
      "constant": true,
      "inputs": [],
      "name": "getUserCount",
      "outputs": [
        {
          "name": "",
          "type": "uint256"
        }
      ],
      "payable": false,
      "stateMutability": "view",
      "type": "function"
    },
    {
      "constant": false,
      "inputs": [
        {
          "name": "_owner",
          "type": "address"
        },
        {
          "name": "_name",
          "type": "string"
        },
        {
          "name": "_description",
          "type": "string"
        },
        {
          "name": "_amount",
          "type": "uint256"
        }
      ],
      "name": "createStore",
      "outputs": [
        {
          "name": "id",
          "type": "uint256"
        }
      ],
      "payable": false,
      "stateMutability": "nonpayable",
      "type": "function"
    },
    {
      "constant": false,
      "inputs": [
        {
          "name": "_sid",
          "type": "uint256"
        },
        {
          "name": "_storename",
          "type": "string"
        },
        {
          "name": "_storedescription",
          "type": "string"
        }
      ],
      "name": "updateStore",
      "outputs": [
        {
          "name": "success",
          "type": "bool"
        }
      ],
      "payable": false,
      "stateMutability": "nonpayable",
      "type": "function"
    },
    {
      "constant": true,
      "inputs": [
        {
          "name": "idx",
          "type": "uint256"
        }
      ],
      "name": "getStore",
      "outputs": [
        {
          "name": "",
          "type": "uint256"
        },
        {
          "name": "",
          "type": "address"
        },
        {
          "name": "",
          "type": "string"
        },
        {
          "name": "",
          "type": "string"
        },
        {
          "name": "",
          "type": "uint256"
        }
      ],
      "payable": false,
      "stateMutability": "view",
      "type": "function"
    },
    {
      "constant": true,
      "inputs": [],
      "name": "getStoreCount",
      "outputs": [
        {
          "name": "",
          "type": "uint256"
        }
      ],
      "payable": false,
      "stateMutability": "view",
      "type": "function"
    },
    {
      "constant": false,
      "inputs": [
        {
          "name": "_owner",
          "type": "address"
        },
        {
          "name": "_name",
          "type": "string"
        },
        {
          "name": "_description",
          "type": "string"
        },
        {
          "name": "_imgsrc",
          "type": "string"
        }
      ],
      "name": "createProduct",
      "outputs": [
        {
          "name": "id",
          "type": "uint256"
        }
      ],
      "payable": false,
      "stateMutability": "nonpayable",
      "type": "function"
    },
    {
      "constant": false,
      "inputs": [
        {
          "name": "_pid",
          "type": "uint256"
        },
        {
          "name": "_name",
          "type": "string"
        },
        {
          "name": "_description",
          "type": "string"
        },
        {
          "name": "_imgsrc",
          "type": "string"
        }
      ],
      "name": "updateProduct",
      "outputs": [
        {
          "name": "success",
          "type": "bool"
        }
      ],
      "payable": false,
      "stateMutability": "nonpayable",
      "type": "function"
    },
    {
      "constant": true,
      "inputs": [
        {
          "name": "idx",
          "type": "uint256"
        }
      ],
      "name": "getProduct",
      "outputs": [
        {
          "name": "",
          "type": "uint256"
        },
        {
          "name": "",
          "type": "address"
        },
        {
          "name": "",
          "type": "string"
        },
        {
          "name": "",
          "type": "string"
        },
        {
          "name": "",
          "type": "string"
        }
      ],
      "payable": false,
      "stateMutability": "view",
      "type": "function"
    },
    {
      "constant": true,
      "inputs": [],
      "name": "getProductCount",
      "outputs": [
        {
          "name": "",
          "type": "uint256"
        }
      ],
      "payable": false,
      "stateMutability": "view",
      "type": "function"
    },
    {
      "constant": false,
      "inputs": [
        {
          "name": "_sowner",
          "type": "address"
        },
        {
          "name": "_sid",
          "type": "uint256"
        },
        {
          "name": "_pid",
          "type": "uint256"
        },
        {
          "name": "_price",
          "type": "uint256"
        },
        {
          "name": "_qty_avail",
          "type": "uint256"
        }
      ],
      "name": "createStoreProduct",
      "outputs": [
        {
          "name": "id",
          "type": "uint256"
        }
      ],
      "payable": false,
      "stateMutability": "nonpayable",
      "type": "function"
    },
    {
      "constant": true,
      "inputs": [
        {
          "name": "idx",
          "type": "uint256"
        }
      ],
      "name": "getStoreProduct",
      "outputs": [
        {
          "name": "",
          "type": "uint256"
        },
        {
          "name": "",
          "type": "uint256"
        },
        {
          "name": "",
          "type": "uint256"
        },
        {
          "name": "",
          "type": "uint256"
        },
        {
          "name": "",
          "type": "uint256"
        }
      ],
      "payable": false,
      "stateMutability": "view",
      "type": "function"
    },
    {
      "constant": true,
      "inputs": [],
      "name": "getStoreProductCount",
      "outputs": [
        {
          "name": "",
          "type": "uint256"
        }
      ],
      "payable": false,
      "stateMutability": "view",
      "type": "function"
    },
    {
      "constant": false,
      "inputs": [
        {
          "name": "_sowner",
          "type": "address"
        },
        {
          "name": "_uid",
          "type": "uint256"
        },
        {
          "name": "_sid",
          "type": "uint256"
        },
        {
          "name": "_pid",
          "type": "uint256"
        },
        {
          "name": "_price",
          "type": "uint256"
        },
        {
          "name": "_qty",
          "type": "uint256"
        }
      ],
      "name": "createOrder",
      "outputs": [
        {
          "name": "id",
          "type": "uint256"
        }
      ],
      "payable": false,
      "stateMutability": "nonpayable",
      "type": "function"
    },
    {
      "constant": true,
      "inputs": [
        {
          "name": "idx",
          "type": "uint256"
        }
      ],
      "name": "getOrder",
      "outputs": [
        {
          "name": "",
          "type": "uint256"
        },
        {
          "name": "",
          "type": "uint256"
        },
        {
          "name": "",
          "type": "uint256"
        },
        {
          "name": "",
          "type": "uint256"
        },
        {
          "name": "",
          "type": "uint256"
        },
        {
          "name": "",
          "type": "uint256"
        }
      ],
      "payable": false,
      "stateMutability": "view",
      "type": "function"
    },
    {
      "constant": true,
      "inputs": [],
      "name": "getOrderCount",
      "outputs": [
        {
          "name": "",
          "type": "uint256"
        }
      ],
      "payable": false,
      "stateMutability": "view",
      "type": "function"
    }
  ],
  "bytecode": "0x60806040523480156200001157600080fd5b50336000806101000a81548173ffffffffffffffffffffffffffffffffffffffff021916908373ffffffffffffffffffffffffffffffffffffffff160217905550620000a6336040805190810160405280600581526020017f41646d696e0000000000000000000000000000000000000000000000000000008152506000600162000115640100000000026401000000009004565b507f41304facd9323d75b11bcdd609cb38effffdb05710f7caf0e9b16c6d9d709f506040518080602001828103825260128152602001807f6f776e6572203d206d73672e73656e646572000000000000000000000000000081525060200191505060405180910390a16200059c565b600080600480548091906001016200012e9190620003ed565b91506004828154811015156200014057fe5b90600052602060002090600502019050858160010160006101000a81548173ffffffffffffffffffffffffffffffffffffffff021916908373ffffffffffffffffffffffffffffffffffffffff1602179055508360ff166002811115620001a357fe5b8160030160006101000a81548160ff02191690836002811115620001c357fe5b021790555084816002019080519060200190620001e292919062000422565b50818160000181905550828160040181905550600160008260010160009054906101000a900473ffffffffffffffffffffffffffffffffffffffff1673ffffffffffffffffffffffffffffffffffffffff1673ffffffffffffffffffffffffffffffffffffffff1681526020019081526020016000208290806001815401808255809150509060018203906000526020600020016000909192909190915055507faf7b8b0357323c008aa01aade6185caf920e5789190d8be8e6993a704c338f74828260010160009054906101000a900473ffffffffffffffffffffffffffffffffffffffff16836002018460030160009054906101000a900460ff166002811115620002eb57fe5b856004015442604051808781526020018673ffffffffffffffffffffffffffffffffffffffff1673ffffffffffffffffffffffffffffffffffffffff168152602001806020018560ff1660ff168152602001848152602001838152602001828103825286818154600181600116156101000203166002900481526020019150805460018160011615610100020316600290048015620003ce5780601f10620003a257610100808354040283529160200191620003ce565b820191906000526020600020905b815481529060010190602001808311620003b057829003601f168201915b505097505050505050505060405180910390a181915050949350505050565b8154818355818111156200041d576005028160050283600052602060002091820191016200041c9190620004a9565b5b505050565b828054600181600116156101000203166002900490600052602060002090601f016020900481019282601f106200046557805160ff191683800117855562000496565b8280016001018555821562000496579182015b828111156200049557825182559160200191906001019062000478565b5b509050620004a5919062000528565b5090565b6200052591905b8082111562000521576000808201600090556001820160006101000a81549073ffffffffffffffffffffffffffffffffffffffff0219169055600282016000620004fb919062000550565b6003820160006101000a81549060ff0219169055600482016000905550600501620004b0565b5090565b90565b6200054d91905b80821115620005495760008160009055506001016200052f565b5090565b90565b50805460018160011615610100020316600290046000825580601f1062000578575062000599565b601f01602090049060005260206000209081019062000598919062000528565b5b50565b61396f80620005ac6000396000f30060806040526004361061015f576000357c0100000000000000000000000000000000000000000000000000000000900463ffffffff16806302a11eb714610164578063092a5cce146101c557806312095466146101dc5780631e7054b314610290578063258e1ff7146103b9578063365b98b2146104165780633f22dab3146105125780634a348da9146106295780635a494fd8146106545780637acc0b20146106b55780637bf194091461086d57806380d561131461095a57806383403120146109f2578063859b832014610b455780638d0a5fbb14610c1657806398e8bd9714610c41578063a85c38ef14610c6c578063b0467deb14610cd0578063b5cb15f714610dc4578063b7fd7e7f14610def578063b9db15b414610e6e578063bc3934f714611026578063c6025dad146110af578063d09ef241146110da578063e8a59cd81461113e578063f9c9929e14611291578063fe5ed7d6146112f2575b600080fd5b34801561017057600080fd5b506101af600480360381019080803573ffffffffffffffffffffffffffffffffffffffff16906020019092919080359060200190929190505050611364565b6040518082815260200191505060405180910390f35b3480156101d157600080fd5b506101da611394565b005b3480156101e857600080fd5b5061027a600480360381019080803573ffffffffffffffffffffffffffffffffffffffff169060200190929190803590602001908201803590602001908080601f0160208091040260200160405190810160405280939291908181526020018383808284378201915050505050509192919290803560ff16906020019092919080359060200190929190505050611429565b6040518082815260200191505060405180910390f35b34801561029c57600080fd5b506103a3600480360381019080803573ffffffffffffffffffffffffffffffffffffffff169060200190929190803590602001908201803590602001908080601f0160208091040260200160405190810160405280939291908181526020018383808284378201915050505050509192919290803590602001908201803590602001908080601f0160208091040260200160405190810160405280939291908181526020018383808284378201915050505050509192919290803590602001908201803590602001908080601f01602080910402602001604051908101604052809392919081815260200183838082843782019150505050505091929192905050506116f5565b6040518082815260200191505060405180910390f35b3480156103c557600080fd5b506103e460048036038101908080359060200190929190505050611bcb565b604051808681526020018581526020018481526020018381526020018281526020019550505050505060405180910390f35b34801561042257600080fd5b5061044160048036038101908080359060200190929190505050611c92565b604051808681526020018573ffffffffffffffffffffffffffffffffffffffff1673ffffffffffffffffffffffffffffffffffffffff1681526020018060200184600281111561048d57fe5b60ff168152602001838152602001828103825285818151815260200191508051906020019080838360005b838110156104d35780820151818401526020810190506104b8565b50505050905090810190601f1680156105005780820380516001836020036101000a031916815260200191505b50965050505050505060405180910390f35b34801561051e57600080fd5b5061060f60048036038101908080359060200190929190803590602001908201803590602001908080601f0160208091040260200160405190810160405280939291908181526020018383808284378201915050505050509192919290803590602001908201803590602001908080601f0160208091040260200160405190810160405280939291908181526020018383808284378201915050505050509192919290803590602001908201803590602001908080601f0160208091040260200160405190810160405280939291908181526020018383808284378201915050505050509192919290505050611d9c565b604051808215151515815260200191505060405180910390f35b34801561063557600080fd5b5061063e611f9a565b6040518082815260200191505060405180910390f35b34801561066057600080fd5b5061069f600480360381019080803573ffffffffffffffffffffffffffffffffffffffff16906020019092919080359060200190929190505050611fa7565b6040518082815260200191505060405180910390f35b3480156106c157600080fd5b506106e060048036038101908080359060200190929190505050611fd7565b604051808681526020018573ffffffffffffffffffffffffffffffffffffffff1673ffffffffffffffffffffffffffffffffffffffff168152602001806020018060200180602001848103845287818151815260200191508051906020019080838360005b83811015610760578082015181840152602081019050610745565b50505050905090810190601f16801561078d5780820380516001836020036101000a031916815260200191505b50848103835286818151815260200191508051906020019080838360005b838110156107c65780820151818401526020810190506107ab565b50505050905090810190601f1680156107f35780820380516001836020036101000a031916815260200191505b50848103825285818151815260200191508051906020019080838360005b8381101561082c578082015181840152602081019050610811565b50505050905090810190601f1680156108595780820380516001836020036101000a031916815260200191505b509850505050505050505060405180910390f35b34801561087957600080fd5b50610944600480360381019080803573ffffffffffffffffffffffffffffffffffffffff169060200190929190803590602001908201803590602001908080601f0160208091040260200160405190810160405280939291908181526020018383808284378201915050505050509192919290803590602001908201803590602001908080601f016020809104026020016040519081016040528093929190818152602001838380828437820191505050505050919291929080359060200190929190505050612204565b6040518082815260200191505060405180910390f35b34801561096657600080fd5b506109d860048036038101908080359060200190929190803590602001908201803590602001908080601f0160208091040260200160405190810160405280939291908181526020018383808284378201915050505050509192919290803560ff169060200190929190505050612519565b604051808215151515815260200191505060405180910390f35b3480156109fe57600080fd5b50610a1d6004803603810190808035906020019092919050505061262f565b604051808681526020018573ffffffffffffffffffffffffffffffffffffffff1673ffffffffffffffffffffffffffffffffffffffff1681526020018060200180602001848152602001838103835286818151815260200191508051906020019080838360005b83811015610a9f578082015181840152602081019050610a84565b50505050905090810190601f168015610acc5780820380516001836020036101000a031916815260200191505b50838103825285818151815260200191508051906020019080838360005b83811015610b05578082015181840152602081019050610aea565b50505050905090810190601f168015610b325780820380516001836020036101000a031916815260200191505b5097505050505050505060405180910390f35b348015610b5157600080fd5b50610bfc60048036038101908080359060200190929190803590602001908201803590602001908080601f0160208091040260200160405190810160405280939291908181526020018383808284378201915050505050509192919290803590602001908201803590602001908080601f016020809104026020016040519081016040528093929190818152602001838380828437820191505050505050919291929050505061284b565b604051808215151515815260200191505060405180910390f35b348015610c2257600080fd5b50610c2b6129a6565b6040518082815260200191505060405180910390f35b348015610c4d57600080fd5b50610c566129b3565b6040518082815260200191505060405180910390f35b348015610c7857600080fd5b50610c97600480360381019080803590602001909291905050506129c0565b60405180878152602001868152602001858152602001848152602001838152602001828152602001965050505050505060405180910390f35b348015610cdc57600080fd5b50610cfb60048036038101908080359060200190929190505050612a0b565b604051808681526020018573ffffffffffffffffffffffffffffffffffffffff1673ffffffffffffffffffffffffffffffffffffffff168152602001806020018460ff1660ff168152602001838152602001828103825285818151815260200191508051906020019080838360005b83811015610d85578082015181840152602081019050610d6a565b50505050905090810190601f168015610db25780820380516001836020036101000a031916815260200191505b50965050505050505060405180910390f35b348015610dd057600080fd5b50610dd9612bba565b6040518082815260200191505060405180910390f35b348015610dfb57600080fd5b50610e58600480360381019080803573ffffffffffffffffffffffffffffffffffffffff16906020019092919080359060200190929190803590602001909291908035906020019092919080359060200190929190505050612bc7565b6040518082815260200191505060405180910390f35b348015610e7a57600080fd5b50610e9960048036038101908080359060200190929190505050612d09565b604051808681526020018573ffffffffffffffffffffffffffffffffffffffff1673ffffffffffffffffffffffffffffffffffffffff168152602001806020018060200180602001848103845287818151815260200191508051906020019080838360005b83811015610f19578082015181840152602081019050610efe565b50505050905090810190601f168015610f465780820380516001836020036101000a031916815260200191505b50848103835286818151815260200191508051906020019080838360005b83811015610f7f578082015181840152602081019050610f64565b50505050905090810190601f168015610fac5780820380516001836020036101000a031916815260200191505b50848103825285818151815260200191508051906020019080838360005b83811015610fe5578082015181840152602081019050610fca565b50505050905090810190601f1680156110125780820380516001836020036101000a031916815260200191505b509850505050505050505060405180910390f35b34801561103257600080fd5b50611099600480360381019080803573ffffffffffffffffffffffffffffffffffffffff1690602001909291908035906020019092919080359060200190929190803590602001909291908035906020019092919080359060200190929190505050612fc0565b6040518082815260200191505060405180910390f35b3480156110bb57600080fd5b506110c4613118565b6040518082815260200191505060405180910390f35b3480156110e657600080fd5b5061110560048036038101908080359060200190929190505050613125565b60405180878152602001868152602001858152602001848152602001838152602001828152602001965050505050505060405180910390f35b34801561114a57600080fd5b50611169600480360381019080803590602001909291905050506131d1565b604051808681526020018573ffffffffffffffffffffffffffffffffffffffff1673ffffffffffffffffffffffffffffffffffffffff1681526020018060200180602001848152602001838103835286818151815260200191508051906020019080838360005b838110156111eb5780820151818401526020810190506111d0565b50505050905090810190601f1680156112185780820380516001836020036101000a031916815260200191505b50838103825285818151815260200191508051906020019080838360005b83811015611251578082015181840152602081019050611236565b50505050905090810190601f16801561127e5780820380516001836020036101000a031916815260200191505b5097505050505050505060405180910390f35b34801561129d57600080fd5b506112dc600480360381019080803573ffffffffffffffffffffffffffffffffffffffff16906020019092919080359060200190929190505050613366565b6040518082815260200191505060405180910390f35b3480156112fe57600080fd5b5061131d60048036038101908080359060200190929190505050613396565b6040518087815260200186815260200185815260200184815260200183815260200182600181111561134b57fe5b60ff168152602001965050505050505060405180910390f35b60026020528160005260406000208181548110151561137f57fe5b90600052602060002001600091509150505481565b3373ffffffffffffffffffffffffffffffffffffffff166000809054906101000a900473ffffffffffffffffffffffffffffffffffffffff1673ffffffffffffffffffffffffffffffffffffffff161415156113ef57600080fd5b6000809054906101000a900473ffffffffffffffffffffffffffffffffffffffff1673ffffffffffffffffffffffffffffffffffffffff16ff5b6000806004805480919060010161144091906133ee565b915060048281548110151561145157fe5b90600052602060002090600502019050858160010160006101000a81548173ffffffffffffffffffffffffffffffffffffffff021916908373ffffffffffffffffffffffffffffffffffffffff1602179055508360ff1660028111156114b357fe5b8160030160006101000a81548160ff021916908360028111156114d257fe5b0217905550848160020190805190602001906114ef929190613420565b50818160000181905550828160040181905550600160008260010160009054906101000a900473ffffffffffffffffffffffffffffffffffffffff1673ffffffffffffffffffffffffffffffffffffffff1673ffffffffffffffffffffffffffffffffffffffff1681526020019081526020016000208290806001815401808255809150509060018203906000526020600020016000909192909190915055507faf7b8b0357323c008aa01aade6185caf920e5789190d8be8e6993a704c338f74828260010160009054906101000a900473ffffffffffffffffffffffffffffffffffffffff16836002018460030160009054906101000a900460ff1660028111156115f757fe5b856004015442604051808781526020018673ffffffffffffffffffffffffffffffffffffffff1673ffffffffffffffffffffffffffffffffffffffff168152602001806020018560ff1660ff1681526020018481526020018381526020018281038252868181546001816001161561010002031660029004815260200191508054600181600116156101000203166002900480156116d65780601f106116ab576101008083540402835291602001916116d6565b820191906000526020600020905b8154815290600101906020018083116116b957829003601f168201915b505097505050505050505060405180910390a181915050949350505050565b6000807f41304facd9323d75b11bcdd609cb38effffdb05710f7caf0e9b16c6d9d709f5060405180806020018281038252601b8152602001807f4d61726b6574506c6163652063726561746550726f647563742331000000000081525060200191505060405180910390a16006805480919060010161177491906134a0565b915060068281548110151561178557fe5b90600052602060002090600502019050818160000181905550858160010160006101000a81548173ffffffffffffffffffffffffffffffffffffffff021916908373ffffffffffffffffffffffffffffffffffffffff160217905550848160020190805190602001906117f9929190613420565b5083816003019080519060200190611812929190613420565b508281600401908051906020019061182b929190613420565b507f41304facd9323d75b11bcdd609cb38effffdb05710f7caf0e9b16c6d9d709f5060405180806020018281038252601b8152602001807f4d61726b6574506c6163652063726561746550726f647563742332000000000081525060200191505060405180910390a1600360008260010160009054906101000a900473ffffffffffffffffffffffffffffffffffffffff1673ffffffffffffffffffffffffffffffffffffffff1673ffffffffffffffffffffffffffffffffffffffff1681526020019081526020016000208290806001815401808255809150509060018203906000526020600020016000909192909190915055507fe4ad4da471c32df82e4662cb34bca4d035b223b7f16817748c133f732b51d8e7828260010160009054906101000a900473ffffffffffffffffffffffffffffffffffffffff16836002018460030185600401604051808681526020018573ffffffffffffffffffffffffffffffffffffffff1673ffffffffffffffffffffffffffffffffffffffff168152602001806020018060200180602001848103845287818154600181600116156101000203166002900481526020019150805460018160011615610100020316600290048015611a3d5780601f10611a1257610100808354040283529160200191611a3d565b820191906000526020600020905b815481529060010190602001808311611a2057829003601f168201915b5050848103835286818154600181600116156101000203166002900481526020019150805460018160011615610100020316600290048015611ac05780601f10611a9557610100808354040283529160200191611ac0565b820191906000526020600020905b815481529060010190602001808311611aa357829003601f168201915b5050848103825285818154600181600116156101000203166002900481526020019150805460018160011615610100020316600290048015611b435780601f10611b1857610100808354040283529160200191611b43565b820191906000526020600020905b815481529060010190602001808311611b2657829003601f168201915b50509850505050505050505060405180910390a17f41304facd9323d75b11bcdd609cb38effffdb05710f7caf0e9b16c6d9d709f5060405180806020018281038252601b8152602001807f4d61726b6574506c6163652063726561746550726f647563742333000000000081525060200191505060405180910390a181915050949350505050565b6000806000806000611bdb6134d2565b600787815481101515611bea57fe5b906000526020600020906006020160c0604051908101604052908160008201548152602001600182015481526020016002820154815260200160038201548152602001600482015481526020016005820160009054906101000a900460ff166001811115611c5457fe5b6001811115611c5f57fe5b81525050905080600001518160200151826040015183606001518460800151955095509550955095505091939590929450565b600481815481101515611ca157fe5b90600052602060002090600502016000915090508060000154908060010160009054906101000a900473ffffffffffffffffffffffffffffffffffffffff1690806002018054600181600116156101000203166002900480601f016020809104026020016040519081016040528092919081815260200182805460018160011615610100020316600290048015611d795780601f10611d4e57610100808354040283529160200191611d79565b820191906000526020600020905b815481529060010190602001808311611d5c57829003601f168201915b5050505050908060030160009054906101000a900460ff16908060040154905085565b600082600686815481101515611dae57fe5b90600052602060002090600502016003019080519060200190611dd2929190613420565b5081600686815481101515611de357fe5b90600052602060002090600502016004019080519060200190611e07929190613420565b507f899cfc3364ae9e338fe89c2e276640e6ff57adc68b9e2eabbe0ea261c8bffc96858585854260405180868152602001806020018060200180602001858152602001848103845288818151815260200191508051906020019080838360005b83811015611e82578082015181840152602081019050611e67565b50505050905090810190601f168015611eaf5780820380516001836020036101000a031916815260200191505b50848103835287818151815260200191508051906020019080838360005b83811015611ee8578082015181840152602081019050611ecd565b50505050905090810190601f168015611f155780820380516001836020036101000a031916815260200191505b50848103825286818151815260200191508051906020019080838360005b83811015611f4e578082015181840152602081019050611f33565b50505050905090810190601f168015611f7b5780820380516001836020036101000a031916815260200191505b509850505050505050505060405180910390a160019050949350505050565b6000600680549050905090565b600360205281600052604060002081815481101515611fc257fe5b90600052602060002001600091509150505481565b600681815481101515611fe657fe5b90600052602060002090600502016000915090508060000154908060010160009054906101000a900473ffffffffffffffffffffffffffffffffffffffff1690806002018054600181600116156101000203166002900480601f0160208091040260200160405190810160405280929190818152602001828054600181600116156101000203166002900480156120be5780601f10612093576101008083540402835291602001916120be565b820191906000526020600020905b8154815290600101906020018083116120a157829003601f168201915b505050505090806003018054600181600116156101000203166002900480601f01602080910402602001604051908101604052809291908181526020018280546001816001161561010002031660029004801561215c5780601f106121315761010080835404028352916020019161215c565b820191906000526020600020905b81548152906001019060200180831161213f57829003601f168201915b505050505090806004018054600181600116156101000203166002900480601f0160208091040260200160405190810160405280929190818152602001828054600181600116156101000203166002900480156121fa5780601f106121cf576101008083540402835291602001916121fa565b820191906000526020600020905b8154815290600101906020018083116121dd57829003601f168201915b5050505050905085565b6000806005805480919060010161221b9190613514565b915060058281548110151561222c57fe5b90600052602060002090600502019050858160010160006101000a81548173ffffffffffffffffffffffffffffffffffffffff021916908373ffffffffffffffffffffffffffffffffffffffff160217905550818160000181905550848160020190805190602001906122a0929190613420565b50838160030190805190602001906122b9929190613420565b50828160040181905550600260008260010160009054906101000a900473ffffffffffffffffffffffffffffffffffffffff1673ffffffffffffffffffffffffffffffffffffffff1673ffffffffffffffffffffffffffffffffffffffff1681526020019081526020016000208290806001815401808255809150509060018203906000526020600020016000909192909190915055507f3cdc973b9e913ca324f10ecfe2e0755418a99d976dab1a186ef666bd766b7891828260010160009054906101000a900473ffffffffffffffffffffffffffffffffffffffff168360020184600301856004015442604051808781526020018673ffffffffffffffffffffffffffffffffffffffff1673ffffffffffffffffffffffffffffffffffffffff16815260200180602001806020018581526020018481526020018381038352878181546001816001161561010002031660029004815260200191508054600181600116156101000203166002900480156124765780601f1061244b57610100808354040283529160200191612476565b820191906000526020600020905b81548152906001019060200180831161245957829003601f168201915b50508381038252868181546001816001161561010002031660029004815260200191508054600181600116156101000203166002900480156124f95780601f106124ce576101008083540402835291602001916124f9565b820191906000526020600020905b8154815290600101906020018083116124dc57829003601f168201915b50509850505050505050505060405180910390a181915050949350505050565b60008160ff16600281111561252a57fe5b60048581548110151561253957fe5b906000526020600020906005020160030160006101000a81548160ff0219169083600281111561256557fe5b02179055507fa2cf4642a7d2520afe0ff52680df24740fe8c4d2b153d4bbf1ad375a6a887ab78484844260405180858152602001806020018460ff1660ff168152602001838152602001828103825285818151815260200191508051906020019080838360005b838110156125e75780820151818401526020810190506125cc565b50505050905090810190601f1680156126145780820380516001836020036101000a031916815260200191505b509550505050505060405180910390a1600190509392505050565b600080606080600061263f613546565b60058781548110151561264e57fe5b906000526020600020906005020160a06040519081016040529081600082015481526020016001820160009054906101000a900473ffffffffffffffffffffffffffffffffffffffff1673ffffffffffffffffffffffffffffffffffffffff1673ffffffffffffffffffffffffffffffffffffffff168152602001600282018054600181600116156101000203166002900480601f0160208091040260200160405190810160405280929190818152602001828054600181600116156101000203166002900480156127615780601f1061273657610100808354040283529160200191612761565b820191906000526020600020905b81548152906001019060200180831161274457829003601f168201915b50505050508152602001600382018054600181600116156101000203166002900480601f0160208091040260200160405190810160405280929190818152602001828054600181600116156101000203166002900480156128035780601f106127d857610100808354040283529160200191612803565b820191906000526020600020905b8154815290600101906020018083116127e657829003601f168201915b50505050508152602001600482015481525050905080600001518160200151826040015183606001518460800151829250819150955095509550955095505091939590929450565b60008160058581548110151561285d57fe5b90600052602060002090600502016003019080519060200190612881929190613420565b507fc95fb85251e3669833b8e5dc25e9d9559b6417d2f438344ed6ad9356377b923384848442604051808581526020018060200180602001848152602001838103835286818151815260200191508051906020019080838360005b838110156128f75780820151818401526020810190506128dc565b50505050905090810190601f1680156129245780820380516001836020036101000a031916815260200191505b50838103825285818151815260200191508051906020019080838360005b8381101561295d578082015181840152602081019050612942565b50505050905090810190601f16801561298a5780820380516001836020036101000a031916815260200191505b50965050505050505060405180910390a1600190509392505050565b6000600880549050905090565b6000600580549050905090565b6008818154811015156129cf57fe5b90600052602060002090600602016000915090508060000154908060010154908060020154908060030154908060040154908060050154905086565b6000806060600080612a1b61358c565b600487815481101515612a2a57fe5b906000526020600020906005020160a06040519081016040529081600082015481526020016001820160009054906101000a900473ffffffffffffffffffffffffffffffffffffffff1673ffffffffffffffffffffffffffffffffffffffff1673ffffffffffffffffffffffffffffffffffffffff168152602001600282018054600181600116156101000203166002900480601f016020809104026020016040519081016040528092919081815260200182805460018160011615610100020316600290048015612b3d5780601f10612b1257610100808354040283529160200191612b3d565b820191906000526020600020905b815481529060010190602001808311612b2057829003601f168201915b505050505081526020016003820160009054906101000a900460ff166002811115612b6457fe5b6002811115612b6f57fe5b8152602001600482015481525050905080600001518160200151826040015183606001516002811115612b9e57fe5b8460800151829250955095509550955095505091939590929450565b6000600480549050905090565b60008060078054809190600101612bde91906135dd565b9150600782815481101515612bef57fe5b90600052602060002090600602019050858160010181905550848160020181905550818160000181905550838160030181905550828160040181905550600360008873ffffffffffffffffffffffffffffffffffffffff1673ffffffffffffffffffffffffffffffffffffffff1681526020019081526020016000208290806001815401808255809150509060018203906000526020600020016000909192909190915055507fc37a30aa9383268ada71ddf15f71337c4a20bfa590e49d9229445f0adb6603e9828260010154836002015484600301548560040154604051808681526020018581526020018481526020018381526020018281526020019550505050505060405180910390a18191505095945050505050565b6000806060806060612d1961360f565b600687815481101515612d2857fe5b906000526020600020906005020160a06040519081016040529081600082015481526020016001820160009054906101000a900473ffffffffffffffffffffffffffffffffffffffff1673ffffffffffffffffffffffffffffffffffffffff1673ffffffffffffffffffffffffffffffffffffffff168152602001600282018054600181600116156101000203166002900480601f016020809104026020016040519081016040528092919081815260200182805460018160011615610100020316600290048015612e3b5780601f10612e1057610100808354040283529160200191612e3b565b820191906000526020600020905b815481529060010190602001808311612e1e57829003601f168201915b50505050508152602001600382018054600181600116156101000203166002900480601f016020809104026020016040519081016040528092919081815260200182805460018160011615610100020316600290048015612edd5780601f10612eb257610100808354040283529160200191612edd565b820191906000526020600020905b815481529060010190602001808311612ec057829003601f168201915b50505050508152602001600482018054600181600116156101000203166002900480601f016020809104026020016040519081016040528092919081815260200182805460018160011615610100020316600290048015612f7f5780601f10612f5457610100808354040283529160200191612f7f565b820191906000526020600020905b815481529060010190602001808311612f6257829003601f168201915b505050505081525050905080600001518160200151826040015183606001518460800151829250819150809050955095509550955095505091939590929450565b60008060088054809190600101612fd79190613655565b9150600882815481101515612fe857fe5b90600052602060002090600602019050868160010181905550858160020181905550848160030181905550818160000181905550838160040181905550828160050181905550600360008973ffffffffffffffffffffffffffffffffffffffff1673ffffffffffffffffffffffffffffffffffffffff1681526020019081526020016000208290806001815401808255809150509060018203906000526020600020016000909192909190915055507fdbfdff4ea503e152ab2fb1f60ff8e2434f5642cff68cb295db49e4e5ad5323c9828260010154836002015484600301548560040154866005015460405180878152602001868152602001858152602001848152602001838152602001828152602001965050505050505060405180910390a1819150509695505050505050565b6000600780549050905090565b600080600080600080613136613687565b60088881548110151561314557fe5b906000526020600020906006020160c0604051908101604052908160008201548152602001600182015481526020016002820154815260200160038201548152602001600482015481526020016005820154815250509050806020015181600001518260400151836060015184608001518560a001519650965096509650965096505091939550919395565b6005818154811015156131e057fe5b90600052602060002090600502016000915090508060000154908060010160009054906101000a900473ffffffffffffffffffffffffffffffffffffffff1690806002018054600181600116156101000203166002900480601f0160208091040260200160405190810160405280929190818152602001828054600181600116156101000203166002900480156132b85780601f1061328d576101008083540402835291602001916132b8565b820191906000526020600020905b81548152906001019060200180831161329b57829003601f168201915b505050505090806003018054600181600116156101000203166002900480601f0160208091040260200160405190810160405280929190818152602001828054600181600116156101000203166002900480156133565780601f1061332b57610100808354040283529160200191613356565b820191906000526020600020905b81548152906001019060200180831161333957829003601f168201915b5050505050908060040154905085565b60016020528160005260406000208181548110151561338157fe5b90600052602060002001600091509150505481565b6007818154811015156133a557fe5b90600052602060002090600602016000915090508060000154908060010154908060020154908060030154908060040154908060050160009054906101000a900460ff16905086565b81548183558181111561341b5760050281600502836000526020600020918201910161341a91906136be565b5b505050565b828054600181600116156101000203166002900490600052602060002090601f016020900481019282601f1061346157805160ff191683800117855561348f565b8280016001018555821561348f579182015b8281111561348e578251825591602001919060010190613473565b5b50905061349c9190613738565b5090565b8154818355818111156134cd576005028160050283600052602060002091820191016134cc919061375d565b5b505050565b60c06040519081016040528060008152602001600081526020016000815260200160008152602001600081526020016000600181111561350e57fe5b81525090565b8154818355818111156135415760050281600502836000526020600020918201910161354091906137db565b5b505050565b60a06040519081016040528060008152602001600073ffffffffffffffffffffffffffffffffffffffff1681526020016060815260200160608152602001600081525090565b60a06040519081016040528060008152602001600073ffffffffffffffffffffffffffffffffffffffff16815260200160608152602001600060028111156135d057fe5b8152602001600081525090565b81548183558181111561360a576006028160060283600052602060002091820191016136099190613851565b5b505050565b60a06040519081016040528060008152602001600073ffffffffffffffffffffffffffffffffffffffff1681526020016060815260200160608152602001606081525090565b8154818355818111156136825760060281600602836000526020600020918201910161368191906138ac565b5b505050565b60c0604051908101604052806000815260200160008152602001600081526020016000815260200160008152602001600081525090565b61373591905b80821115613731576000808201600090556001820160006101000a81549073ffffffffffffffffffffffffffffffffffffffff021916905560028201600061370c91906138fb565b6003820160006101000a81549060ff02191690556004820160009055506005016136c4565b5090565b90565b61375a91905b8082111561375657600081600090555060010161373e565b5090565b90565b6137d891905b808211156137d4576000808201600090556001820160006101000a81549073ffffffffffffffffffffffffffffffffffffffff02191690556002820160006137ab91906138fb565b6003820160006137bb91906138fb565b6004820160006137cb91906138fb565b50600501613763565b5090565b90565b61384e91905b8082111561384a576000808201600090556001820160006101000a81549073ffffffffffffffffffffffffffffffffffffffff021916905560028201600061382991906138fb565b60038201600061383991906138fb565b6004820160009055506005016137e1565b5090565b90565b6138a991905b808211156138a55760008082016000905560018201600090556002820160009055600382016000905560048201600090556005820160006101000a81549060ff021916905550600601613857565b5090565b90565b6138f891905b808211156138f45760008082016000905560018201600090556002820160009055600382016000905560048201600090556005820160009055506006016138b2565b5090565b90565b50805460018160011615610100020316600290046000825580601f106139215750613940565b601f01602090049060005260206000209081019061393f9190613738565b5b505600a165627a7a723058200821a55a40beb6167143af09aee4227e511e235d8bf719a349038dc6f182c1b80029",
  "source": "pragma solidity ^0.4.17;\n\ncontract MarketPlace {\n\n    address owner; /* Owner of contract */\n\n    modifier ownerRestricted {\n      require(owner == msg.sender);\n      _;\n   } \n\n    constructor() public\n     {\n         owner = msg.sender;\n         createUser( msg.sender, \"Admin\", 0,1);\n         emit log(\"owner = msg.sender\");\n     }\n\n    function destroyContract() ownerRestricted {\n     selfdestruct(owner);\n   }\n\n    struct user\n    {\n        uint uid;\n        address user;\n        string username;\n        userType usertype;\n        uint256 amount;\n    }\n    enum userType {Admin, Owner, Shopper}\n\n    // define store entity\n    struct store\n    {\n        uint sid;\n        address owner;\n        string name;\n        string description;\n        uint256 amount;\n    }\n\n    // define product entity\n    struct product\n    {\n        uint pid;\n        address owner;\n        string name;\n        string description;\n        string imgsrc;\n    }\n\n    struct storeproduct\n    {\n        uint spid;\n        uint sid;\n        uint pid;\n        uint256 price;\n        uint256 qty_avail;\n        productStatus status;\n    }          \n    enum productStatus { Available, BackOrder}\n\n    struct order\n    {\n        uint oid;\n        uint uid;\n        uint sid;\n        uint pid;\n        uint256 price;\n        uint256 qty;\n    }    \n\n    mapping(address => uint[]) public UserOwnerMap;\n    mapping(address => uint[]) public StoreOwnerMap;\n    mapping(address => uint[]) public ProductOwnerMap;\n\n    user[] public users;                    /* Array of user structures i.e. users */\n    store[] public stores;                  /* Array of store structures i.e. stores */\n    product[] public products;              /* Array of product structures i.e. products */\n    storeproduct[] public storeproducts;    /* Array of product in a store */\n    order[] public orders;                  /* Array of order of product in a store by a user */\n\n    modifier onlyAdministrator (address sid)\n    {\n    /*\n        // if address not that of Administrator then  \n        if (temp.userType != userTypes.Admin)\n        {\n            emit throwError(\"Error: user is not Admin !\");            \n            revert();\n        }\n    */\n        _;\n    }\n\n    event throwError(string message);\n    event log(string message);\n    event userCreated(uint uid, address user, string username, uint8 usertype, uint256 amount, uint timestamp);\n    event userUpdated(uint uid, string username, uint8 usertype, uint timestamp);\n    event storeCreated(uint sid, address owner, string name, string description, uint256 amount, uint timestamp);\n    event storeUpdated(uint sid, string name, string description, uint timestamp);\n    event productCreated(uint pid, address owner, string name, string description, string imgsrc);\n    event productUpdated(uint pid, string name, string description, string imgsrc, uint timestamp);\n    event storeproductCreated(uint spid, uint sid, uint pid, uint256 price,uint256 qty_avail);\n    event orderCreated (uint oid, uint uid, uint sid, uint pid, uint256 price,uint256 qty);\n  \n    function createUser( address _user, string _username, uint8 _usertype, uint256 _amount) public returns (uint id)\n    {\n        id = users.length++;\n        user storage newUser = users[id];\n        newUser.user = _user;\n        newUser.usertype = userType(_usertype);\n        newUser.username = _username;\n        newUser.uid = id;\n        newUser.amount = _amount;\n        UserOwnerMap[newUser.user].push(id);\n        emit userCreated(id, newUser.user, newUser.username, (uint8)(newUser.usertype), newUser.amount, now);\n        return id;\n    }\n\n    function updateUser( uint _uid, string _username, uint8 _usertype)\n        public returns (bool success)\n    {\n        /* Only allow changes to usertype */\n        users[_uid].usertype = userType(_usertype);\n        emit userUpdated(_uid, _username, (uint8)(_usertype), now);\n        return true;\n    }\n\n    function getUser(uint idx) public view returns (uint, address, string, uint8, uint256)\n    {\n        user memory temp = users[idx];\n        return (temp.uid, temp.user, temp.username, uint8(temp.usertype), temp.amount);\n    }\n\n    function getUserCount() public view returns (uint)\n    {\n        return users.length;\n    }\n\n    function createStore( address _owner, string _name, string _description, uint256 _amount ) public returns (uint id)\n    {\n        id = stores.length++;\n        store storage newStore = stores[id];\n        newStore.owner = _owner;\n        newStore.sid = id;\n        newStore.name = _name;\n        newStore.description = _description;\n        newStore.amount = _amount;\n        StoreOwnerMap[newStore.owner].push(id);\n        emit storeCreated(id, newStore.owner, newStore.name, newStore.description, newStore.amount, now);\n        return id;\n    }\n    \n    function updateStore( uint _sid, string _storename, string _storedescription)\n        public returns (bool success)\n    {\n        /* Only allow changes to description */\n        stores[_sid].description = _storedescription;\n        emit storeUpdated(_sid, _storename, _storedescription, now);\n        return true;\n    }\n\n    function getStore(uint idx) public view returns (uint, address, string, string, uint256)\n    {\n        store memory temp = stores[idx];\n        return (temp.sid, temp.owner, temp.name, temp.description, temp.amount);\n    }\n    function getStoreCount() public view returns (uint)\n    {\n        return stores.length;\n    }\n\n    function createProduct( address _owner, string _name, string _description, string _imgsrc ) public returns (uint id)\n    {\n        emit log(\"MarketPlace createProduct#1\");\n        id = products.length++;\n        product storage newProduct = products[id];\n        newProduct.pid = id;\n        newProduct.owner = _owner;\n        newProduct.name = _name;\n        newProduct.description = _description;\n        newProduct.imgsrc = _imgsrc;\n        emit log(\"MarketPlace createProduct#2\");\n        ProductOwnerMap[newProduct.owner].push(id);\n        emit productCreated(id, newProduct.owner, newProduct.name, newProduct.description, newProduct.imgsrc);\n        emit log(\"MarketPlace createProduct#3\");\n        return id;\n    }\n\n    function updateProduct( uint _pid, string _name, string _description, string _imgsrc)\n        public returns (bool success)\n    {\n        /* Only allow changes to description and imgsrc */\n        products[_pid].description = _description;\n        products[_pid].imgsrc = _imgsrc;\n        emit productUpdated(_pid, _name, _description, _imgsrc, now);\n        return true;\n    }\n\n    function getProduct(uint idx) public view returns ( uint, address, string, string, string )\n    {\n        product memory temp = products[idx];\n        return (temp.pid, temp.owner, temp.name, temp.description, temp.imgsrc);\n    }\n\n    function getProductCount() public view returns (uint)\n    {\n        return products.length;\n    }\n    \n    function createStoreProduct( address _sowner, uint _sid, uint _pid, uint256 _price, uint256 _qty_avail) public returns (uint id)\n    {\n        id = storeproducts.length++;\n        storeproduct storage newStoreProduct = storeproducts[id];\n        newStoreProduct.sid = _sid;\n        newStoreProduct.pid = _pid;\n        newStoreProduct.spid = id;\n        newStoreProduct.price = _price;\n        newStoreProduct.qty_avail = _qty_avail;\n        ProductOwnerMap[_sowner].push(id);\n        emit storeproductCreated(id, newStoreProduct.sid, newStoreProduct.pid, newStoreProduct.price, newStoreProduct.qty_avail);\n        return id;\n    }\n    \n    function getStoreProduct(uint idx) public view returns ( uint, uint, uint, uint256, uint256)\n    {\n        storeproduct memory temp = storeproducts[idx];\n        return (temp.spid, temp.sid,temp.pid, temp.price, temp.qty_avail);\n    }  \n\n    function getStoreProductCount() public view returns (uint)\n    {\n        return storeproducts.length;\n    }\n\n    function createOrder( address _sowner, uint _uid, uint _sid, uint _pid, uint256 _price, uint256 _qty) public returns (uint id)\n    {\n        id = orders.length++;\n        order storage newOrder = orders[id];\n        newOrder.uid = _uid;\n        newOrder.sid = _sid;\n        newOrder.pid = _pid;\n        newOrder.oid = id;\n        newOrder.price = _price;\n        newOrder.qty = _qty;\n        ProductOwnerMap[_sowner].push(id);\n        emit orderCreated(id, newOrder.uid, newOrder.sid, newOrder.pid, newOrder.price, newOrder.qty);\n        return id;\n    }\n    \n    function getOrder(uint idx) public view returns ( uint, uint, uint, uint, uint256, uint256)\n    {\n        order memory temp = orders[idx];\n        //  product name and description temp.pid \n        //  store info temp.sid \n        //  user info  temp.uid \n        return (temp.uid, temp.oid, temp.sid, temp.pid, temp.price, temp.qty);\n    } \n\n    function getOrderCount() public view returns (uint)\n    {\n        return orders.length;\n    } \n\n    // function sellProduct(uint pid, uint sid, uint qty) public view returns ( uint)\n    // {\n    //   //getStoreProduct (_sid, _pid);\n    //   // ensure we have at least 1 \n    //   //createOrder( _sowner, _uid , _sid, _pid, _price, _qty)\n    //   // decrease inventory by 1\n    //   // decrease sellers wallet by price\n    //   // increase store owners wallet by price\n    // }                       \n\n}",
  "sourcePath": "C:\\Users\\jbambara\\Documents\\GitHub\\ConsensysFinalProject\\marketplace\\contracts\\MarketPlace.sol",
  "compiler": {
    "name": "solc",
    "version": "0.4.24+commit.e67f0147.Emscripten.clang"
  },
  "schemaVersion": "2.0.1",
  "updatedAt": "2018-08-16T11:59:57.069Z"
}