{
  "contractName": "MarketPlace",
  "abi": [
    {
      "constant": true,
      "inputs": [
        {
          "name": "",
          "type": "address"
        },
        {
          "name": "",
          "type": "uint256"
        }
      ],
      "name": "StoreOwnerMap",
      "outputs": [
        {
          "name": "",
          "type": "uint256"
        }
      ],
      "payable": false,
      "stateMutability": "view",
      "type": "function"
    },
    {
      "constant": true,
      "inputs": [
        {
          "name": "",
          "type": "address"
        },
        {
          "name": "",
          "type": "uint256"
        }
      ],
      "name": "OrderOwnerMap",
      "outputs": [
        {
          "name": "",
          "type": "uint256"
        }
      ],
      "payable": false,
      "stateMutability": "view",
      "type": "function"
    },
    {
      "constant": true,
      "inputs": [
        {
          "name": "",
          "type": "uint256"
        }
      ],
      "name": "users",
      "outputs": [
        {
          "name": "uid",
          "type": "uint256"
        },
        {
          "name": "user",
          "type": "address"
        },
        {
          "name": "username",
          "type": "string"
        },
        {
          "name": "usertype",
          "type": "uint8"
        },
        {
          "name": "amount",
          "type": "uint256"
        }
      ],
      "payable": false,
      "stateMutability": "view",
      "type": "function"
    },
    {
      "constant": true,
      "inputs": [
        {
          "name": "",
          "type": "address"
        },
        {
          "name": "",
          "type": "uint256"
        }
      ],
      "name": "ProductOwnerMap",
      "outputs": [
        {
          "name": "",
          "type": "uint256"
        }
      ],
      "payable": false,
      "stateMutability": "view",
      "type": "function"
    },
    {
      "constant": false,
      "inputs": [],
      "name": "renounceOwnership",
      "outputs": [],
      "payable": false,
      "stateMutability": "nonpayable",
      "type": "function"
    },
    {
      "constant": true,
      "inputs": [
        {
          "name": "",
          "type": "uint256"
        }
      ],
      "name": "products",
      "outputs": [
        {
          "name": "pid",
          "type": "uint256"
        },
        {
          "name": "owner",
          "type": "address"
        },
        {
          "name": "name",
          "type": "string"
        },
        {
          "name": "description",
          "type": "string"
        },
        {
          "name": "imgsrc",
          "type": "string"
        }
      ],
      "payable": false,
      "stateMutability": "view",
      "type": "function"
    },
    {
      "constant": true,
      "inputs": [
        {
          "name": "",
          "type": "uint256"
        },
        {
          "name": "",
          "type": "uint256"
        }
      ],
      "name": "StoreProductMap",
      "outputs": [
        {
          "name": "",
          "type": "uint256"
        }
      ],
      "payable": false,
      "stateMutability": "view",
      "type": "function"
    },
    {
      "constant": true,
      "inputs": [],
      "name": "owner",
      "outputs": [
        {
          "name": "",
          "type": "address"
        }
      ],
      "payable": false,
      "stateMutability": "view",
      "type": "function"
    },
    {
      "constant": true,
      "inputs": [
        {
          "name": "",
          "type": "uint256"
        }
      ],
      "name": "orders",
      "outputs": [
        {
          "name": "oid",
          "type": "uint256"
        },
        {
          "name": "sid",
          "type": "uint256"
        },
        {
          "name": "spid",
          "type": "uint256"
        },
        {
          "name": "pid",
          "type": "uint256"
        },
        {
          "name": "price",
          "type": "uint256"
        },
        {
          "name": "qty",
          "type": "uint256"
        }
      ],
      "payable": false,
      "stateMutability": "view",
      "type": "function"
    },
    {
      "constant": true,
      "inputs": [],
      "name": "creationTime",
      "outputs": [
        {
          "name": "",
          "type": "uint256"
        }
      ],
      "payable": false,
      "stateMutability": "view",
      "type": "function"
    },
    {
      "constant": true,
      "inputs": [
        {
          "name": "",
          "type": "uint256"
        }
      ],
      "name": "stores",
      "outputs": [
        {
          "name": "sid",
          "type": "uint256"
        },
        {
          "name": "owner",
          "type": "address"
        },
        {
          "name": "name",
          "type": "string"
        },
        {
          "name": "description",
          "type": "string"
        },
        {
          "name": "amount",
          "type": "uint256"
        }
      ],
      "payable": false,
      "stateMutability": "view",
      "type": "function"
    },
    {
      "constant": false,
      "inputs": [
        {
          "name": "_newOwner",
          "type": "address"
        }
      ],
      "name": "transferOwnership",
      "outputs": [],
      "payable": false,
      "stateMutability": "nonpayable",
      "type": "function"
    },
    {
      "constant": true,
      "inputs": [
        {
          "name": "",
          "type": "address"
        },
        {
          "name": "",
          "type": "uint256"
        }
      ],
      "name": "UserOwnerMap",
      "outputs": [
        {
          "name": "",
          "type": "uint256"
        }
      ],
      "payable": false,
      "stateMutability": "view",
      "type": "function"
    },
    {
      "constant": true,
      "inputs": [
        {
          "name": "",
          "type": "uint256"
        }
      ],
      "name": "storeproducts",
      "outputs": [
        {
          "name": "spid",
          "type": "uint256"
        },
        {
          "name": "sid",
          "type": "uint256"
        },
        {
          "name": "pid",
          "type": "uint256"
        },
        {
          "name": "price",
          "type": "uint256"
        },
        {
          "name": "qty_avail",
          "type": "uint256"
        },
        {
          "name": "status",
          "type": "uint8"
        }
      ],
      "payable": false,
      "stateMutability": "view",
      "type": "function"
    },
    {
      "inputs": [],
      "payable": false,
      "stateMutability": "nonpayable",
      "type": "constructor"
    },
    {
      "anonymous": false,
      "inputs": [
        {
          "indexed": false,
          "name": "message",
          "type": "string"
        }
      ],
      "name": "throwError",
      "type": "event"
    },
    {
      "anonymous": false,
      "inputs": [
        {
          "indexed": false,
          "name": "message",
          "type": "string"
        }
      ],
      "name": "log",
      "type": "event"
    },
    {
      "anonymous": false,
      "inputs": [
        {
          "indexed": false,
          "name": "uid",
          "type": "uint256"
        },
        {
          "indexed": false,
          "name": "user",
          "type": "address"
        },
        {
          "indexed": false,
          "name": "username",
          "type": "string"
        },
        {
          "indexed": false,
          "name": "usertype",
          "type": "uint8"
        },
        {
          "indexed": false,
          "name": "amount",
          "type": "uint256"
        },
        {
          "indexed": false,
          "name": "timestamp",
          "type": "uint256"
        }
      ],
      "name": "userCreated",
      "type": "event"
    },
    {
      "anonymous": false,
      "inputs": [
        {
          "indexed": false,
          "name": "uid",
          "type": "uint256"
        },
        {
          "indexed": false,
          "name": "username",
          "type": "string"
        },
        {
          "indexed": false,
          "name": "usertype",
          "type": "uint8"
        },
        {
          "indexed": false,
          "name": "timestamp",
          "type": "uint256"
        }
      ],
      "name": "userUpdated",
      "type": "event"
    },
    {
      "anonymous": false,
      "inputs": [
        {
          "indexed": false,
          "name": "sid",
          "type": "uint256"
        },
        {
          "indexed": false,
          "name": "owner",
          "type": "address"
        },
        {
          "indexed": false,
          "name": "name",
          "type": "string"
        },
        {
          "indexed": false,
          "name": "description",
          "type": "string"
        },
        {
          "indexed": false,
          "name": "amount",
          "type": "uint256"
        },
        {
          "indexed": false,
          "name": "timestamp",
          "type": "uint256"
        }
      ],
      "name": "storeCreated",
      "type": "event"
    },
    {
      "anonymous": false,
      "inputs": [
        {
          "indexed": false,
          "name": "sid",
          "type": "uint256"
        },
        {
          "indexed": false,
          "name": "name",
          "type": "string"
        },
        {
          "indexed": false,
          "name": "description",
          "type": "string"
        },
        {
          "indexed": false,
          "name": "timestamp",
          "type": "uint256"
        }
      ],
      "name": "storeUpdated",
      "type": "event"
    },
    {
      "anonymous": false,
      "inputs": [
        {
          "indexed": false,
          "name": "pid",
          "type": "uint256"
        },
        {
          "indexed": false,
          "name": "owner",
          "type": "address"
        },
        {
          "indexed": false,
          "name": "name",
          "type": "string"
        },
        {
          "indexed": false,
          "name": "description",
          "type": "string"
        },
        {
          "indexed": false,
          "name": "imgsrc",
          "type": "string"
        }
      ],
      "name": "productCreated",
      "type": "event"
    },
    {
      "anonymous": false,
      "inputs": [
        {
          "indexed": false,
          "name": "pid",
          "type": "uint256"
        },
        {
          "indexed": false,
          "name": "name",
          "type": "string"
        },
        {
          "indexed": false,
          "name": "description",
          "type": "string"
        },
        {
          "indexed": false,
          "name": "imgsrc",
          "type": "string"
        },
        {
          "indexed": false,
          "name": "timestamp",
          "type": "uint256"
        }
      ],
      "name": "productUpdated",
      "type": "event"
    },
    {
      "anonymous": false,
      "inputs": [
        {
          "indexed": false,
          "name": "spid",
          "type": "uint256"
        },
        {
          "indexed": false,
          "name": "sid",
          "type": "uint256"
        },
        {
          "indexed": false,
          "name": "pid",
          "type": "uint256"
        },
        {
          "indexed": false,
          "name": "price",
          "type": "uint256"
        },
        {
          "indexed": false,
          "name": "qty_avail",
          "type": "uint256"
        }
      ],
      "name": "storeproductCreated",
      "type": "event"
    },
    {
      "anonymous": false,
      "inputs": [
        {
          "indexed": false,
          "name": "spid",
          "type": "uint256"
        },
        {
          "indexed": false,
          "name": "sid",
          "type": "uint256"
        },
        {
          "indexed": false,
          "name": "pid",
          "type": "uint256"
        },
        {
          "indexed": false,
          "name": "price",
          "type": "uint256"
        },
        {
          "indexed": false,
          "name": "qty_avail",
          "type": "uint256"
        },
        {
          "indexed": false,
          "name": "status",
          "type": "uint256"
        },
        {
          "indexed": false,
          "name": "timestamp",
          "type": "uint256"
        }
      ],
      "name": "storeproductUpdated",
      "type": "event"
    },
    {
      "anonymous": false,
      "inputs": [
        {
          "indexed": false,
          "name": "oid",
          "type": "uint256"
        },
        {
          "indexed": false,
          "name": "uid",
          "type": "uint256"
        },
        {
          "indexed": false,
          "name": "sid",
          "type": "uint256"
        },
        {
          "indexed": false,
          "name": "pid",
          "type": "uint256"
        },
        {
          "indexed": false,
          "name": "price",
          "type": "uint256"
        },
        {
          "indexed": false,
          "name": "qty",
          "type": "uint256"
        }
      ],
      "name": "orderCreated",
      "type": "event"
    },
    {
      "anonymous": false,
      "inputs": [
        {
          "indexed": true,
          "name": "previousOwner",
          "type": "address"
        }
      ],
      "name": "OwnershipRenounced",
      "type": "event"
    },
    {
      "anonymous": false,
      "inputs": [
        {
          "indexed": true,
          "name": "previousOwner",
          "type": "address"
        },
        {
          "indexed": true,
          "name": "newOwner",
          "type": "address"
        }
      ],
      "name": "OwnershipTransferred",
      "type": "event"
    },
    {
      "constant": false,
      "inputs": [],
      "name": "destroyContract",
      "outputs": [],
      "payable": false,
      "stateMutability": "nonpayable",
      "type": "function"
    },
    {
      "constant": false,
      "inputs": [
        {
          "name": "_user",
          "type": "address"
        },
        {
          "name": "_username",
          "type": "string"
        },
        {
          "name": "_usertype",
          "type": "uint8"
        },
        {
          "name": "_amount",
          "type": "uint256"
        }
      ],
      "name": "createUser",
      "outputs": [
        {
          "name": "id",
          "type": "uint256"
        }
      ],
      "payable": false,
      "stateMutability": "nonpayable",
      "type": "function"
    },
    {
      "constant": false,
      "inputs": [
        {
          "name": "_uid",
          "type": "uint256"
        },
        {
          "name": "_username",
          "type": "string"
        },
        {
          "name": "_usertype",
          "type": "uint8"
        }
      ],
      "name": "updateUser",
      "outputs": [
        {
          "name": "success",
          "type": "bool"
        }
      ],
      "payable": false,
      "stateMutability": "nonpayable",
      "type": "function"
    },
    {
      "constant": true,
      "inputs": [
        {
          "name": "idx",
          "type": "uint256"
        }
      ],
      "name": "getUser",
      "outputs": [
        {
          "name": "",
          "type": "uint256"
        },
        {
          "name": "",
          "type": "address"
        },
        {
          "name": "",
          "type": "string"
        },
        {
          "name": "",
          "type": "uint8"
        },
        {
          "name": "",
          "type": "uint256"
        }
      ],
      "payable": false,
      "stateMutability": "view",
      "type": "function"
    },
    {
      "constant": true,
      "inputs": [],
      "name": "getUserCount",
      "outputs": [
        {
          "name": "",
          "type": "uint256"
        }
      ],
      "payable": false,
      "stateMutability": "view",
      "type": "function"
    },
    {
      "constant": false,
      "inputs": [
        {
          "name": "_owner",
          "type": "address"
        },
        {
          "name": "_name",
          "type": "string"
        },
        {
          "name": "_description",
          "type": "string"
        },
        {
          "name": "_amount",
          "type": "uint256"
        }
      ],
      "name": "createStore",
      "outputs": [
        {
          "name": "id",
          "type": "uint256"
        }
      ],
      "payable": false,
      "stateMutability": "nonpayable",
      "type": "function"
    },
    {
      "constant": false,
      "inputs": [
        {
          "name": "_sid",
          "type": "uint256"
        },
        {
          "name": "_storename",
          "type": "string"
        },
        {
          "name": "_storedescription",
          "type": "string"
        }
      ],
      "name": "updateStore",
      "outputs": [
        {
          "name": "success",
          "type": "bool"
        }
      ],
      "payable": false,
      "stateMutability": "nonpayable",
      "type": "function"
    },
    {
      "constant": true,
      "inputs": [
        {
          "name": "idx",
          "type": "uint256"
        }
      ],
      "name": "getStore",
      "outputs": [
        {
          "name": "",
          "type": "uint256"
        },
        {
          "name": "",
          "type": "address"
        },
        {
          "name": "",
          "type": "string"
        },
        {
          "name": "",
          "type": "string"
        },
        {
          "name": "",
          "type": "uint256"
        }
      ],
      "payable": false,
      "stateMutability": "view",
      "type": "function"
    },
    {
      "constant": true,
      "inputs": [],
      "name": "getStoreCount",
      "outputs": [
        {
          "name": "",
          "type": "uint256"
        }
      ],
      "payable": false,
      "stateMutability": "view",
      "type": "function"
    },
    {
      "constant": true,
      "inputs": [
        {
          "name": "_owner",
          "type": "address"
        },
        {
          "name": "idx",
          "type": "uint256"
        }
      ],
      "name": "getStoreForOwner",
      "outputs": [
        {
          "name": "",
          "type": "uint256"
        },
        {
          "name": "",
          "type": "address"
        },
        {
          "name": "",
          "type": "string"
        },
        {
          "name": "",
          "type": "string"
        },
        {
          "name": "",
          "type": "uint256"
        }
      ],
      "payable": false,
      "stateMutability": "view",
      "type": "function"
    },
    {
      "constant": true,
      "inputs": [
        {
          "name": "_owner",
          "type": "address"
        }
      ],
      "name": "getStoreCountForOwner",
      "outputs": [
        {
          "name": "",
          "type": "uint256"
        }
      ],
      "payable": false,
      "stateMutability": "view",
      "type": "function"
    },
    {
      "constant": false,
      "inputs": [
        {
          "name": "_owner",
          "type": "address"
        },
        {
          "name": "_name",
          "type": "string"
        },
        {
          "name": "_description",
          "type": "string"
        },
        {
          "name": "_imgsrc",
          "type": "string"
        }
      ],
      "name": "createProduct",
      "outputs": [
        {
          "name": "id",
          "type": "uint256"
        }
      ],
      "payable": false,
      "stateMutability": "nonpayable",
      "type": "function"
    },
    {
      "constant": false,
      "inputs": [
        {
          "name": "_pid",
          "type": "uint256"
        },
        {
          "name": "_name",
          "type": "string"
        },
        {
          "name": "_description",
          "type": "string"
        },
        {
          "name": "_imgsrc",
          "type": "string"
        }
      ],
      "name": "updateProduct",
      "outputs": [
        {
          "name": "success",
          "type": "bool"
        }
      ],
      "payable": false,
      "stateMutability": "nonpayable",
      "type": "function"
    },
    {
      "constant": true,
      "inputs": [
        {
          "name": "idx",
          "type": "uint256"
        }
      ],
      "name": "getProduct",
      "outputs": [
        {
          "name": "",
          "type": "uint256"
        },
        {
          "name": "",
          "type": "address"
        },
        {
          "name": "",
          "type": "string"
        },
        {
          "name": "",
          "type": "string"
        },
        {
          "name": "",
          "type": "string"
        }
      ],
      "payable": false,
      "stateMutability": "view",
      "type": "function"
    },
    {
      "constant": true,
      "inputs": [],
      "name": "getProductCount",
      "outputs": [
        {
          "name": "",
          "type": "uint256"
        }
      ],
      "payable": false,
      "stateMutability": "view",
      "type": "function"
    },
    {
      "constant": true,
      "inputs": [
        {
          "name": "_owner",
          "type": "address"
        },
        {
          "name": "idx",
          "type": "uint256"
        }
      ],
      "name": "getProductForOwner",
      "outputs": [
        {
          "name": "",
          "type": "uint256"
        },
        {
          "name": "",
          "type": "address"
        },
        {
          "name": "",
          "type": "string"
        },
        {
          "name": "",
          "type": "string"
        },
        {
          "name": "",
          "type": "string"
        }
      ],
      "payable": false,
      "stateMutability": "view",
      "type": "function"
    },
    {
      "constant": true,
      "inputs": [
        {
          "name": "_owner",
          "type": "address"
        }
      ],
      "name": "getProductCountForOwner",
      "outputs": [
        {
          "name": "",
          "type": "uint256"
        }
      ],
      "payable": false,
      "stateMutability": "view",
      "type": "function"
    },
    {
      "constant": false,
      "inputs": [
        {
          "name": "_sid",
          "type": "uint256"
        },
        {
          "name": "_pid",
          "type": "uint256"
        },
        {
          "name": "_price",
          "type": "uint256"
        },
        {
          "name": "_qty_avail",
          "type": "uint256"
        },
        {
          "name": "_status",
          "type": "uint8"
        }
      ],
      "name": "createStoreProduct",
      "outputs": [
        {
          "name": "id",
          "type": "uint256"
        }
      ],
      "payable": false,
      "stateMutability": "nonpayable",
      "type": "function"
    },
    {
      "constant": false,
      "inputs": [
        {
          "name": "_spid",
          "type": "uint256"
        },
        {
          "name": "_sid",
          "type": "uint256"
        },
        {
          "name": "_pid",
          "type": "uint256"
        },
        {
          "name": "_price",
          "type": "uint256"
        },
        {
          "name": "_qty_avail",
          "type": "uint256"
        },
        {
          "name": "_status",
          "type": "uint8"
        }
      ],
      "name": "updateStoreProduct",
      "outputs": [
        {
          "name": "success",
          "type": "bool"
        }
      ],
      "payable": false,
      "stateMutability": "nonpayable",
      "type": "function"
    },
    {
      "constant": true,
      "inputs": [
        {
          "name": "idx",
          "type": "uint256"
        }
      ],
      "name": "getStoreProduct",
      "outputs": [
        {
          "name": "",
          "type": "uint256"
        },
        {
          "name": "",
          "type": "uint256"
        },
        {
          "name": "",
          "type": "uint256"
        },
        {
          "name": "",
          "type": "uint256"
        },
        {
          "name": "",
          "type": "uint256"
        },
        {
          "name": "",
          "type": "uint8"
        }
      ],
      "payable": false,
      "stateMutability": "view",
      "type": "function"
    },
    {
      "constant": true,
      "inputs": [],
      "name": "getStoreProductCount",
      "outputs": [
        {
          "name": "",
          "type": "uint256"
        }
      ],
      "payable": false,
      "stateMutability": "view",
      "type": "function"
    },
    {
      "constant": true,
      "inputs": [
        {
          "name": "_sid",
          "type": "uint256"
        },
        {
          "name": "_idx",
          "type": "uint256"
        }
      ],
      "name": "getStoreProductForStore",
      "outputs": [
        {
          "name": "",
          "type": "uint256"
        },
        {
          "name": "",
          "type": "uint256"
        },
        {
          "name": "",
          "type": "uint256"
        },
        {
          "name": "",
          "type": "uint256"
        },
        {
          "name": "",
          "type": "uint256"
        },
        {
          "name": "",
          "type": "uint256"
        }
      ],
      "payable": false,
      "stateMutability": "view",
      "type": "function"
    },
    {
      "constant": true,
      "inputs": [
        {
          "name": "_sid",
          "type": "uint256"
        }
      ],
      "name": "getStoreProductCountForStore",
      "outputs": [
        {
          "name": "",
          "type": "uint256"
        }
      ],
      "payable": false,
      "stateMutability": "view",
      "type": "function"
    },
    {
      "constant": false,
      "inputs": [
        {
          "name": "_owner",
          "type": "address"
        },
        {
          "name": "_sid",
          "type": "uint256"
        },
        {
          "name": "_spid",
          "type": "uint256"
        },
        {
          "name": "_pid",
          "type": "uint256"
        },
        {
          "name": "_price",
          "type": "uint256"
        },
        {
          "name": "_qty",
          "type": "uint256"
        }
      ],
      "name": "createOrder",
      "outputs": [
        {
          "name": "id",
          "type": "uint256"
        }
      ],
      "payable": false,
      "stateMutability": "nonpayable",
      "type": "function"
    },
    {
      "constant": true,
      "inputs": [
        {
          "name": "idx",
          "type": "uint256"
        }
      ],
      "name": "getOrder",
      "outputs": [
        {
          "name": "",
          "type": "uint256"
        },
        {
          "name": "",
          "type": "uint256"
        },
        {
          "name": "",
          "type": "uint256"
        },
        {
          "name": "",
          "type": "uint256"
        },
        {
          "name": "",
          "type": "uint256"
        },
        {
          "name": "",
          "type": "uint256"
        }
      ],
      "payable": false,
      "stateMutability": "view",
      "type": "function"
    },
    {
      "constant": true,
      "inputs": [],
      "name": "getOrderCount",
      "outputs": [
        {
          "name": "",
          "type": "uint256"
        }
      ],
      "payable": false,
      "stateMutability": "view",
      "type": "function"
    },
    {
      "constant": false,
      "inputs": [
        {
          "name": "sid",
          "type": "uint256"
        },
        {
          "name": "spid",
          "type": "uint256"
        },
        {
          "name": "pid",
          "type": "uint256"
        },
        {
          "name": "qty",
          "type": "uint256"
        }
      ],
      "name": "sellProduct",
      "outputs": [
        {
          "name": "",
          "type": "uint256"
        }
      ],
      "payable": true,
      "stateMutability": "payable",
      "type": "function"
    },
    {
      "constant": false,
      "inputs": [
        {
          "name": "sid",
          "type": "uint256"
        },
        {
          "name": "amount",
          "type": "uint256"
        }
      ],
      "name": "withdraw",
      "outputs": [
        {
          "name": "success",
          "type": "bool"
        }
      ],
      "payable": true,
      "stateMutability": "payable",
      "type": "function"
    }
  ],
  "bytecode": "0x6080604052426001553480156200001557600080fd5b50336000806101000a81548173ffffffffffffffffffffffffffffffffffffffff021916908373ffffffffffffffffffffffffffffffffffffffff16021790555033600260006101000a81548173ffffffffffffffffffffffffffffffffffffffff021916908373ffffffffffffffffffffffffffffffffffffffff160217905550620000ea336040805190810160405280600581526020017f41646d696e00000000000000000000000000000000000000000000000000000081525060008062000159640100000000026401000000009004565b507f41304facd9323d75b11bcdd609cb38effffdb05710f7caf0e9b16c6d9d709f506040518080602001828103825260128152602001807f6f776e6572203d206d73672e73656e646572000000000000000000000000000081525060200191505060405180910390a1620005e0565b6000806009805480919060010162000172919062000431565b91506009828154811015156200018457fe5b90600052602060002090600502019050858160010160006101000a81548173ffffffffffffffffffffffffffffffffffffffff021916908373ffffffffffffffffffffffffffffffffffffffff1602179055508360ff166002811115620001e757fe5b8160030160006101000a81548160ff021916908360028111156200020757fe5b0217905550848160020190805190602001906200022692919062000466565b50818160000181905550828160040181905550600460008260010160009054906101000a900473ffffffffffffffffffffffffffffffffffffffff1673ffffffffffffffffffffffffffffffffffffffff1673ffffffffffffffffffffffffffffffffffffffff1681526020019081526020016000208290806001815401808255809150509060018203906000526020600020016000909192909190915055507faf7b8b0357323c008aa01aade6185caf920e5789190d8be8e6993a704c338f74828260010160009054906101000a900473ffffffffffffffffffffffffffffffffffffffff16836002018460030160009054906101000a900460ff1660028111156200032f57fe5b856004015442604051808781526020018673ffffffffffffffffffffffffffffffffffffffff1673ffffffffffffffffffffffffffffffffffffffff168152602001806020018560ff1660ff168152602001848152602001838152602001828103825286818154600181600116156101000203166002900481526020019150805460018160011615610100020316600290048015620004125780601f10620003e65761010080835404028352916020019162000412565b820191906000526020600020905b815481529060010190602001808311620003f457829003601f168201915b505097505050505050505060405180910390a181915050949350505050565b8154818355818111156200046157600502816005028360005260206000209182019101620004609190620004ed565b5b505050565b828054600181600116156101000203166002900490600052602060002090601f016020900481019282601f10620004a957805160ff1916838001178555620004da565b82800160010185558215620004da579182015b82811115620004d9578251825591602001919060010190620004bc565b5b509050620004e991906200056c565b5090565b6200056991905b8082111562000565576000808201600090556001820160006101000a81549073ffffffffffffffffffffffffffffffffffffffff02191690556002820160006200053f919062000594565b6003820160006101000a81549060ff0219169055600482016000905550600501620004f4565b5090565b90565b6200059191905b808211156200058d57600081600090555060010162000573565b5090565b90565b50805460018160011615610100020316600290046000825580601f10620005bc5750620005dd565b601f016020900490600052602060002090810190620005dc91906200056c565b5b50565b6155ee80620005f06000396000f300608060405260043610610204576000357c0100000000000000000000000000000000000000000000000000000000900463ffffffff16806302a11eb714610209578063092a5cce1461026a5780630b018d8d14610281578063120030b2146102ef57806312095466146104625780631e7054b31461051657806323a347a71461063f578063258e1ff7146106a0578063365b98b21461070a5780633f22dab314610806578063441a3e701461091d57806347eece581461095f5780634a348da9146109b6578063522a024c146109e15780635a494fd814610a22578063715018a614610a8357806372e3d23d14610a9a5780637acc0b2014610af15780637bf1940914610ca957806380d5611314610d965780638340312014610e2e578063859b832014610f8157806386390d5e146110525780638d0a5fbb1461109d5780638da5cb5b146110c857806398e8bd971461111f5780639d9cbbb81461114a578063a85c38ef14611322578063a8819c7214611386578063b0467deb14611400578063b5cb15f7146114f4578063b9db15b41461151f578063bc3934f7146116d7578063c090840c14611760578063c6025dad146117b2578063d09ef241146117dd578063d8270dce14611841578063e3fb81971461186c578063e8a59cd8146118d8578063f2fde38b14611a2b578063f9c9929e14611a6e578063fe5ed7d614611acf575b600080fd5b34801561021557600080fd5b50610254600480360381019080803573ffffffffffffffffffffffffffffffffffffffff16906020019092919080359060200190929190505050611b41565b6040518082815260200191505060405180910390f35b34801561027657600080fd5b5061027f611b71565b005b34801561028d57600080fd5b506102b66004803603810190808035906020019092919080359060200190929190505050611c71565b60405180878152602001868152602001858152602001848152602001838152602001828152602001965050505050505060405180910390f35b3480156102fb57600080fd5b5061033a600480360381019080803573ffffffffffffffffffffffffffffffffffffffff16906020019092919080359060200190929190505050611d73565b604051808681526020018573ffffffffffffffffffffffffffffffffffffffff1673ffffffffffffffffffffffffffffffffffffffff1681526020018060200180602001848152602001838103835286818151815260200191508051906020019080838360005b838110156103bc5780820151818401526020810190506103a1565b50505050905090810190601f1680156103e95780820380516001836020036101000a031916815260200191505b50838103825285818151815260200191508051906020019080838360005b83811015610422578082015181840152602081019050610407565b50505050905090810190601f16801561044f5780820380516001836020036101000a031916815260200191505b5097505050505050505060405180910390f35b34801561046e57600080fd5b50610500600480360381019080803573ffffffffffffffffffffffffffffffffffffffff169060200190929190803590602001908201803590602001908080601f0160208091040260200160405190810160405280939291908181526020018383808284378201915050505050509192919290803560ff16906020019092919080359060200190929190505050611e98565b6040518082815260200191505060405180910390f35b34801561052257600080fd5b50610629600480360381019080803573ffffffffffffffffffffffffffffffffffffffff169060200190929190803590602001908201803590602001908080601f0160208091040260200160405190810160405280939291908181526020018383808284378201915050505050509192919290803590602001908201803590602001908080601f0160208091040260200160405190810160405280939291908181526020018383808284378201915050505050509192919290803590602001908201803590602001908080601f0160208091040260200160405190810160405280939291908181526020018383808284378201915050505050509192919290505050612164565b6040518082815260200191505060405180910390f35b34801561064b57600080fd5b5061068a600480360381019080803573ffffffffffffffffffffffffffffffffffffffff1690602001909291908035906020019092919050505061263a565b6040518082815260200191505060405180910390f35b3480156106ac57600080fd5b506106cb6004803603810190808035906020019092919050505061266a565b604051808781526020018681526020018581526020018481526020018381526020018260ff1660ff168152602001965050505050505060405180910390f35b34801561071657600080fd5b5061073560048036038101908080359060200190929190505050612744565b604051808681526020018573ffffffffffffffffffffffffffffffffffffffff1673ffffffffffffffffffffffffffffffffffffffff1681526020018060200184600281111561078157fe5b60ff168152602001838152602001828103825285818151815260200191508051906020019080838360005b838110156107c75780820151818401526020810190506107ac565b50505050905090810190601f1680156107f45780820380516001836020036101000a031916815260200191505b50965050505050505060405180910390f35b34801561081257600080fd5b5061090360048036038101908080359060200190929190803590602001908201803590602001908080601f0160208091040260200160405190810160405280939291908181526020018383808284378201915050505050509192919290803590602001908201803590602001908080601f0160208091040260200160405190810160405280939291908181526020018383808284378201915050505050509192919290803590602001908201803590602001908080601f016020809104026020016040519081016040528093929190818152602001838380828437820191505050505050919291929050505061284e565b604051808215151515815260200191505060405180910390f35b6109456004803603810190808035906020019092919080359060200190929190505050612a4c565b604051808215151515815260200191505060405180910390f35b34801561096b57600080fd5b506109a0600480360381019080803573ffffffffffffffffffffffffffffffffffffffff169060200190929190505050612c5a565b6040518082815260200191505060405180910390f35b3480156109c257600080fd5b506109cb612ca6565b6040518082815260200191505060405180910390f35b3480156109ed57600080fd5b50610a0c60048036038101908080359060200190929190505050612cb3565b6040518082815260200191505060405180910390f35b348015610a2e57600080fd5b50610a6d600480360381019080803573ffffffffffffffffffffffffffffffffffffffff16906020019092919080359060200190929190505050612cd3565b6040518082815260200191505060405180910390f35b348015610a8f57600080fd5b50610a98612d03565b005b348015610aa657600080fd5b50610adb600480360381019080803573ffffffffffffffffffffffffffffffffffffffff169060200190929190505050612e05565b6040518082815260200191505060405180910390f35b348015610afd57600080fd5b50610b1c60048036038101908080359060200190929190505050612e51565b604051808681526020018573ffffffffffffffffffffffffffffffffffffffff1673ffffffffffffffffffffffffffffffffffffffff168152602001806020018060200180602001848103845287818151815260200191508051906020019080838360005b83811015610b9c578082015181840152602081019050610b81565b50505050905090810190601f168015610bc95780820380516001836020036101000a031916815260200191505b50848103835286818151815260200191508051906020019080838360005b83811015610c02578082015181840152602081019050610be7565b50505050905090810190601f168015610c2f5780820380516001836020036101000a031916815260200191505b50848103825285818151815260200191508051906020019080838360005b83811015610c68578082015181840152602081019050610c4d565b50505050905090810190601f168015610c955780820380516001836020036101000a031916815260200191505b509850505050505050505060405180910390f35b348015610cb557600080fd5b50610d80600480360381019080803573ffffffffffffffffffffffffffffffffffffffff169060200190929190803590602001908201803590602001908080601f0160208091040260200160405190810160405280939291908181526020018383808284378201915050505050509192919290803590602001908201803590602001908080601f01602080910402602001604051908101604052809392919081815260200183838082843782019150505050505091929192908035906020019092919050505061307e565b6040518082815260200191505060405180910390f35b348015610da257600080fd5b50610e1460048036038101908080359060200190929190803590602001908201803590602001908080601f0160208091040260200160405190810160405280939291908181526020018383808284378201915050505050509192919290803560ff169060200190929190505050613393565b604051808215151515815260200191505060405180910390f35b348015610e3a57600080fd5b50610e59600480360381019080803590602001909291905050506134a9565b604051808681526020018573ffffffffffffffffffffffffffffffffffffffff1673ffffffffffffffffffffffffffffffffffffffff1681526020018060200180602001848152602001838103835286818151815260200191508051906020019080838360005b83811015610edb578082015181840152602081019050610ec0565b50505050905090810190601f168015610f085780820380516001836020036101000a031916815260200191505b50838103825285818151815260200191508051906020019080838360005b83811015610f41578082015181840152602081019050610f26565b50505050905090810190601f168015610f6e5780820380516001836020036101000a031916815260200191505b5097505050505050505060405180910390f35b348015610f8d57600080fd5b5061103860048036038101908080359060200190929190803590602001908201803590602001908080601f0160208091040260200160405190810160405280939291908181526020018383808284378201915050505050509192919290803590602001908201803590602001908080601f01602080910402602001604051908101604052809392919081815260200183838082843782019150505050505091929192905050506136c5565b604051808215151515815260200191505060405180910390f35b34801561105e57600080fd5b506110876004803603810190808035906020019092919080359060200190929190505050613820565b6040518082815260200191505060405180910390f35b3480156110a957600080fd5b506110b2613850565b6040518082815260200191505060405180910390f35b3480156110d457600080fd5b506110dd61385d565b604051808273ffffffffffffffffffffffffffffffffffffffff1673ffffffffffffffffffffffffffffffffffffffff16815260200191505060405180910390f35b34801561112b57600080fd5b50611134613882565b6040518082815260200191505060405180910390f35b34801561115657600080fd5b50611195600480360381019080803573ffffffffffffffffffffffffffffffffffffffff1690602001909291908035906020019092919050505061388f565b604051808681526020018573ffffffffffffffffffffffffffffffffffffffff1673ffffffffffffffffffffffffffffffffffffffff168152602001806020018060200180602001848103845287818151815260200191508051906020019080838360005b838110156112155780820151818401526020810190506111fa565b50505050905090810190601f1680156112425780820380516001836020036101000a031916815260200191505b50848103835286818151815260200191508051906020019080838360005b8381101561127b578082015181840152602081019050611260565b50505050905090810190601f1680156112a85780820380516001836020036101000a031916815260200191505b50848103825285818151815260200191508051906020019080838360005b838110156112e15780820151818401526020810190506112c6565b50505050905090810190601f16801561130e5780820380516001836020036101000a031916815260200191505b509850505050505050505060405180910390f35b34801561132e57600080fd5b5061134d600480360381019080803590602001909291905050506139b4565b60405180878152602001868152602001858152602001848152602001838152602001828152602001965050505050505060405180910390f35b34801561139257600080fd5b506113e66004803603810190808035906020019092919080359060200190929190803590602001909291908035906020019092919080359060200190929190803560ff1690602001909291905050506139ff565b604051808215151515815260200191505060405180910390f35b34801561140c57600080fd5b5061142b60048036038101908080359060200190929190505050613c8c565b604051808681526020018573ffffffffffffffffffffffffffffffffffffffff1673ffffffffffffffffffffffffffffffffffffffff168152602001806020018460ff1660ff168152602001838152602001828103825285818151815260200191508051906020019080838360005b838110156114b557808201518184015260208101905061149a565b50505050905090810190601f1680156114e25780820380516001836020036101000a031916815260200191505b50965050505050505060405180910390f35b34801561150057600080fd5b50611509613e3b565b6040518082815260200191505060405180910390f35b34801561152b57600080fd5b5061154a60048036038101908080359060200190929190505050613e48565b604051808681526020018573ffffffffffffffffffffffffffffffffffffffff1673ffffffffffffffffffffffffffffffffffffffff168152602001806020018060200180602001848103845287818151815260200191508051906020019080838360005b838110156115ca5780820151818401526020810190506115af565b50505050905090810190601f1680156115f75780820380516001836020036101000a031916815260200191505b50848103835286818151815260200191508051906020019080838360005b83811015611630578082015181840152602081019050611615565b50505050905090810190601f16801561165d5780820380516001836020036101000a031916815260200191505b50848103825285818151815260200191508051906020019080838360005b8381101561169657808201518184015260208101905061167b565b50505050905090810190601f1680156116c35780820380516001836020036101000a031916815260200191505b509850505050505050505060405180910390f35b3480156116e357600080fd5b5061174a600480360381019080803573ffffffffffffffffffffffffffffffffffffffff16906020019092919080359060200190929190803590602001909291908035906020019092919080359060200190929190803590602001909291905050506140ff565b6040518082815260200191505060405180910390f35b61179c600480360381019080803590602001909291908035906020019092919080359060200190929190803590602001909291905050506144a9565b6040518082815260200191505060405180910390f35b3480156117be57600080fd5b506117c7614ab2565b6040518082815260200191505060405180910390f35b3480156117e957600080fd5b5061180860048036038101908080359060200190929190505050614abf565b60405180878152602001868152602001858152602001848152602001838152602001828152602001965050505050505060405180910390f35b34801561184d57600080fd5b50611856614b6b565b6040518082815260200191505060405180910390f35b34801561187857600080fd5b506118c260048036038101908080359060200190929190803590602001909291908035906020019092919080359060200190929190803560ff169060200190929190505050614b71565b6040518082815260200191505060405180910390f35b3480156118e457600080fd5b5061190360048036038101908080359060200190929190505050614cba565b604051808681526020018573ffffffffffffffffffffffffffffffffffffffff1673ffffffffffffffffffffffffffffffffffffffff1681526020018060200180602001848152602001838103835286818151815260200191508051906020019080838360005b8381101561198557808201518184015260208101905061196a565b50505050905090810190601f1680156119b25780820380516001836020036101000a031916815260200191505b50838103825285818151815260200191508051906020019080838360005b838110156119eb5780820151818401526020810190506119d0565b50505050905090810190601f168015611a185780820380516001836020036101000a031916815260200191505b5097505050505050505060405180910390f35b348015611a3757600080fd5b50611a6c600480360381019080803573ffffffffffffffffffffffffffffffffffffffff169060200190929190505050614e4f565b005b348015611a7a57600080fd5b50611ab9600480360381019080803573ffffffffffffffffffffffffffffffffffffffff16906020019092919080359060200190929190505050614eb6565b6040518082815260200191505060405180910390f35b348015611adb57600080fd5b50611afa60048036038101908080359060200190929190505050614ee6565b60405180878152602001868152602001858152602001848152602001838152602001826001811115611b2857fe5b60ff168152602001965050505050505060405180910390f35b600560205281600052604060002081815481101515611b5c57fe5b90600052602060002001600091509150505481565b3373ffffffffffffffffffffffffffffffffffffffff16600260009054906101000a900473ffffffffffffffffffffffffffffffffffffffff1673ffffffffffffffffffffffffffffffffffffffff16141515611c36576040517f08c379a00000000000000000000000000000000000000000000000000000000081526004018080602001828103825260128152602001807f726573747269637465642066656174757265000000000000000000000000000081525060200191505060405180910390fd5b600260009054906101000a900473ffffffffffffffffffffffffffffffffffffffff1673ffffffffffffffffffffffffffffffffffffffff16ff5b60008060008060008086611c8489612cb3565b101515611cd557611cbe600760008a815260200190815260200160002088815481101515611cae57fe5b906000526020600020015461266a565b8060ff169050955095509550955095509550611d69565b6040517f08c379a00000000000000000000000000000000000000000000000000000000081526004018080602001828103825260328152602001807f73746f72652070726f6475637420696e64657820646f6573206e6f742065786981526020017f737420666f7220746869732073746f726521000000000000000000000000000081525060400191505060405180910390fd5b9295509295509295565b600080606080600085611d8588612c5a565b101515611dfa57611deb600560008973ffffffffffffffffffffffffffffffffffffffff1673ffffffffffffffffffffffffffffffffffffffff16815260200190815260200160002087815481101515611ddb57fe5b90600052602060002001546134a9565b94509450945094509450611e8e565b6040517f08c379a000000000000000000000000000000000000000000000000000000000815260040180806020018281038252602a8152602001807f73746f726520696e64657820646f6573206e6f7420657869737420666f72207481526020017f686973206f776e6572210000000000000000000000000000000000000000000081525060400191505060405180910390fd5b9295509295909350565b60008060098054809190600101611eaf919061506d565b9150600982815481101515611ec057fe5b90600052602060002090600502019050858160010160006101000a81548173ffffffffffffffffffffffffffffffffffffffff021916908373ffffffffffffffffffffffffffffffffffffffff1602179055508360ff166002811115611f2257fe5b8160030160006101000a81548160ff02191690836002811115611f4157fe5b021790555084816002019080519060200190611f5e92919061509f565b50818160000181905550828160040181905550600460008260010160009054906101000a900473ffffffffffffffffffffffffffffffffffffffff1673ffffffffffffffffffffffffffffffffffffffff1673ffffffffffffffffffffffffffffffffffffffff1681526020019081526020016000208290806001815401808255809150509060018203906000526020600020016000909192909190915055507faf7b8b0357323c008aa01aade6185caf920e5789190d8be8e6993a704c338f74828260010160009054906101000a900473ffffffffffffffffffffffffffffffffffffffff16836002018460030160009054906101000a900460ff16600281111561206657fe5b856004015442604051808781526020018673ffffffffffffffffffffffffffffffffffffffff1673ffffffffffffffffffffffffffffffffffffffff168152602001806020018560ff1660ff1681526020018481526020018381526020018281038252868181546001816001161561010002031660029004815260200191508054600181600116156101000203166002900480156121455780601f1061211a57610100808354040283529160200191612145565b820191906000526020600020905b81548152906001019060200180831161212857829003601f168201915b505097505050505050505060405180910390a181915050949350505050565b6000807f41304facd9323d75b11bcdd609cb38effffdb05710f7caf0e9b16c6d9d709f5060405180806020018281038252601b8152602001807f4d61726b6574506c6163652063726561746550726f647563742331000000000081525060200191505060405180910390a1600b80548091906001016121e3919061511f565b9150600b828154811015156121f457fe5b90600052602060002090600502019050818160000181905550858160010160006101000a81548173ffffffffffffffffffffffffffffffffffffffff021916908373ffffffffffffffffffffffffffffffffffffffff1602179055508481600201908051906020019061226892919061509f565b508381600301908051906020019061228192919061509f565b508281600401908051906020019061229a92919061509f565b507f41304facd9323d75b11bcdd609cb38effffdb05710f7caf0e9b16c6d9d709f5060405180806020018281038252601b8152602001807f4d61726b6574506c6163652063726561746550726f647563742332000000000081525060200191505060405180910390a1600660008260010160009054906101000a900473ffffffffffffffffffffffffffffffffffffffff1673ffffffffffffffffffffffffffffffffffffffff1673ffffffffffffffffffffffffffffffffffffffff1681526020019081526020016000208290806001815401808255809150509060018203906000526020600020016000909192909190915055507fe4ad4da471c32df82e4662cb34bca4d035b223b7f16817748c133f732b51d8e7828260010160009054906101000a900473ffffffffffffffffffffffffffffffffffffffff16836002018460030185600401604051808681526020018573ffffffffffffffffffffffffffffffffffffffff1673ffffffffffffffffffffffffffffffffffffffff1681526020018060200180602001806020018481038452878181546001816001161561010002031660029004815260200191508054600181600116156101000203166002900480156124ac5780601f10612481576101008083540402835291602001916124ac565b820191906000526020600020905b81548152906001019060200180831161248f57829003601f168201915b505084810383528681815460018160011615610100020316600290048152602001915080546001816001161561010002031660029004801561252f5780601f106125045761010080835404028352916020019161252f565b820191906000526020600020905b81548152906001019060200180831161251257829003601f168201915b50508481038252858181546001816001161561010002031660029004815260200191508054600181600116156101000203166002900480156125b25780601f10612587576101008083540402835291602001916125b2565b820191906000526020600020905b81548152906001019060200180831161259557829003601f168201915b50509850505050505050505060405180910390a17f41304facd9323d75b11bcdd609cb38effffdb05710f7caf0e9b16c6d9d709f5060405180806020018281038252601b8152602001807f4d61726b6574506c6163652063726561746550726f647563742333000000000081525060200191505060405180910390a181915050949350505050565b60086020528160005260406000208181548110151561265557fe5b90600052602060002001600091509150505481565b60008060008060008061267b615151565b600c8881548110151561268a57fe5b906000526020600020906006020160c0604051908101604052908160008201548152602001600182015481526020016002820154815260200160038201548152602001600482015481526020016005820160009054906101000a900460ff1660018111156126f457fe5b60018111156126ff57fe5b815250509050806000015181602001518260400151836060015184608001518560a00151600181111561272e57fe5b9650965096509650965096505091939550919395565b60098181548110151561275357fe5b90600052602060002090600502016000915090508060000154908060010160009054906101000a900473ffffffffffffffffffffffffffffffffffffffff1690806002018054600181600116156101000203166002900480601f01602080910402602001604051908101604052809291908181526020018280546001816001161561010002031660029004801561282b5780601f106128005761010080835404028352916020019161282b565b820191906000526020600020905b81548152906001019060200180831161280e57829003601f168201915b5050505050908060030160009054906101000a900460ff16908060040154905085565b600082600b8681548110151561286057fe5b9060005260206000209060050201600301908051906020019061288492919061509f565b5081600b8681548110151561289557fe5b906000526020600020906005020160040190805190602001906128b992919061509f565b507f899cfc3364ae9e338fe89c2e276640e6ff57adc68b9e2eabbe0ea261c8bffc96858585854260405180868152602001806020018060200180602001858152602001848103845288818151815260200191508051906020019080838360005b83811015612934578082015181840152602081019050612919565b50505050905090810190601f1680156129615780820380516001836020036101000a031916815260200191505b50848103835287818151815260200191508051906020019080838360005b8381101561299a57808201518184015260208101905061297f565b50505050905090810190601f1680156129c75780820380516001836020036101000a031916815260200191505b50848103825286818151815260200191508051906020019080838360005b83811015612a005780820151818401526020810190506129e5565b50505050905090810190601f168015612a2d5780820380516001836020036101000a031916815260200191505b509850505050505050505060405180910390a160019050949350505050565b60003373ffffffffffffffffffffffffffffffffffffffff16600a84815481101515612a7457fe5b906000526020600020906005020160010160009054906101000a900473ffffffffffffffffffffffffffffffffffffffff1673ffffffffffffffffffffffffffffffffffffffff16141515612b31576040517f08c379a00000000000000000000000000000000000000000000000000000000081526004018080602001828103825260168152602001807f6d757374206265206f776e6572206f662073746f72650000000000000000000081525060200191505060405180910390fd5b81600a84815481101515612b4157fe5b90600052602060002090600502016004015410151515612bc9576040517f08c379a000000000000000000000000000000000000000000000000000000000815260040180806020018281038252601f8152602001807f616d6f756e742067726561746572207468616e2073746f72652076616c75650081525060200191505060405180910390fd5b612bfc82600a85815481101515612bdc57fe5b906000526020600020906005020160040154614f3e90919063ffffffff16565b50612c4f82600360003373ffffffffffffffffffffffffffffffffffffffff1673ffffffffffffffffffffffffffffffffffffffff16815260200190815260200160002054614f5790919063ffffffff16565b506001905092915050565b6000600560008373ffffffffffffffffffffffffffffffffffffffff1673ffffffffffffffffffffffffffffffffffffffff168152602001908152602001600020805490509050919050565b6000600b80549050905090565b600060076000838152602001908152602001600020805490509050919050565b600660205281600052604060002081815481101515612cee57fe5b90600052602060002001600091509150505481565b6000809054906101000a900473ffffffffffffffffffffffffffffffffffffffff1673ffffffffffffffffffffffffffffffffffffffff163373ffffffffffffffffffffffffffffffffffffffff16141515612d5e57600080fd5b6000809054906101000a900473ffffffffffffffffffffffffffffffffffffffff1673ffffffffffffffffffffffffffffffffffffffff167ff8df31144d9c2f0f6b59d69b8b98abd5459d07f2742c4df920b25aae33c6482060405160405180910390a260008060006101000a81548173ffffffffffffffffffffffffffffffffffffffff021916908373ffffffffffffffffffffffffffffffffffffffff160217905550565b6000600660008373ffffffffffffffffffffffffffffffffffffffff1673ffffffffffffffffffffffffffffffffffffffff168152602001908152602001600020805490509050919050565b600b81815481101515612e6057fe5b90600052602060002090600502016000915090508060000154908060010160009054906101000a900473ffffffffffffffffffffffffffffffffffffffff1690806002018054600181600116156101000203166002900480601f016020809104026020016040519081016040528092919081815260200182805460018160011615610100020316600290048015612f385780601f10612f0d57610100808354040283529160200191612f38565b820191906000526020600020905b815481529060010190602001808311612f1b57829003601f168201915b505050505090806003018054600181600116156101000203166002900480601f016020809104026020016040519081016040528092919081815260200182805460018160011615610100020316600290048015612fd65780601f10612fab57610100808354040283529160200191612fd6565b820191906000526020600020905b815481529060010190602001808311612fb957829003601f168201915b505050505090806004018054600181600116156101000203166002900480601f0160208091040260200160405190810160405280929190818152602001828054600181600116156101000203166002900480156130745780601f1061304957610100808354040283529160200191613074565b820191906000526020600020905b81548152906001019060200180831161305757829003601f168201915b5050505050905085565b600080600a80548091906001016130959190615193565b9150600a828154811015156130a657fe5b90600052602060002090600502019050858160010160006101000a81548173ffffffffffffffffffffffffffffffffffffffff021916908373ffffffffffffffffffffffffffffffffffffffff1602179055508181600001819055508481600201908051906020019061311a92919061509f565b508381600301908051906020019061313392919061509f565b50828160040181905550600560008260010160009054906101000a900473ffffffffffffffffffffffffffffffffffffffff1673ffffffffffffffffffffffffffffffffffffffff1673ffffffffffffffffffffffffffffffffffffffff1681526020019081526020016000208290806001815401808255809150509060018203906000526020600020016000909192909190915055507f3cdc973b9e913ca324f10ecfe2e0755418a99d976dab1a186ef666bd766b7891828260010160009054906101000a900473ffffffffffffffffffffffffffffffffffffffff168360020184600301856004015442604051808781526020018673ffffffffffffffffffffffffffffffffffffffff1673ffffffffffffffffffffffffffffffffffffffff16815260200180602001806020018581526020018481526020018381038352878181546001816001161561010002031660029004815260200191508054600181600116156101000203166002900480156132f05780601f106132c5576101008083540402835291602001916132f0565b820191906000526020600020905b8154815290600101906020018083116132d357829003601f168201915b50508381038252868181546001816001161561010002031660029004815260200191508054600181600116156101000203166002900480156133735780601f1061334857610100808354040283529160200191613373565b820191906000526020600020905b81548152906001019060200180831161335657829003601f168201915b50509850505050505050505060405180910390a181915050949350505050565b60008160ff1660028111156133a457fe5b6009858154811015156133b357fe5b906000526020600020906005020160030160006101000a81548160ff021916908360028111156133df57fe5b02179055507fa2cf4642a7d2520afe0ff52680df24740fe8c4d2b153d4bbf1ad375a6a887ab78484844260405180858152602001806020018460ff1660ff168152602001838152602001828103825285818151815260200191508051906020019080838360005b83811015613461578082015181840152602081019050613446565b50505050905090810190601f16801561348e5780820380516001836020036101000a031916815260200191505b509550505050505060405180910390a1600190509392505050565b60008060608060006134b96151c5565b600a878154811015156134c857fe5b906000526020600020906005020160a06040519081016040529081600082015481526020016001820160009054906101000a900473ffffffffffffffffffffffffffffffffffffffff1673ffffffffffffffffffffffffffffffffffffffff1673ffffffffffffffffffffffffffffffffffffffff168152602001600282018054600181600116156101000203166002900480601f0160208091040260200160405190810160405280929190818152602001828054600181600116156101000203166002900480156135db5780601f106135b0576101008083540402835291602001916135db565b820191906000526020600020905b8154815290600101906020018083116135be57829003601f168201915b50505050508152602001600382018054600181600116156101000203166002900480601f01602080910402602001604051908101604052809291908181526020018280546001816001161561010002031660029004801561367d5780601f106136525761010080835404028352916020019161367d565b820191906000526020600020905b81548152906001019060200180831161366057829003601f168201915b50505050508152602001600482015481525050905080600001518160200151826040015183606001518460800151829250819150955095509550955095505091939590929450565b600081600a858154811015156136d757fe5b906000526020600020906005020160030190805190602001906136fb92919061509f565b507fc95fb85251e3669833b8e5dc25e9d9559b6417d2f438344ed6ad9356377b923384848442604051808581526020018060200180602001848152602001838103835286818151815260200191508051906020019080838360005b83811015613771578082015181840152602081019050613756565b50505050905090810190601f16801561379e5780820380516001836020036101000a031916815260200191505b50838103825285818151815260200191508051906020019080838360005b838110156137d75780820151818401526020810190506137bc565b50505050905090810190601f1680156138045780820380516001836020036101000a031916815260200191505b50965050505050505060405180910390a1600190509392505050565b60076020528160005260406000208181548110151561383b57fe5b90600052602060002001600091509150505481565b6000600d80549050905090565b6000809054906101000a900473ffffffffffffffffffffffffffffffffffffffff1681565b6000600a80549050905090565b6000806060806060856138a188612e05565b10151561391657613907600660008973ffffffffffffffffffffffffffffffffffffffff1673ffffffffffffffffffffffffffffffffffffffff168152602001908152602001600020878154811015156138f757fe5b9060005260206000200154613e48565b945094509450945094506139aa565b6040517f08c379a000000000000000000000000000000000000000000000000000000000815260040180806020018281038252602c8152602001807f70726f6475637420696e64657820646f6573206e6f7420657869737420666f7281526020017f2074686973206f776e657221000000000000000000000000000000000000000081525060400191505060405180910390fd5b9295509295909350565b600d818154811015156139c357fe5b90600052602060002090600602016000915090508060000154908060010154908060020154908060030154908060040154908060050154905086565b600085600c88815481101515613a1157fe5b906000526020600020906006020160010154141515613abe576040517f08c379a000000000000000000000000000000000000000000000000000000000815260040180806020018281038252602d8152602001807f73746f7265206964206d69736d6174636820647572696e67207570646174655381526020017f746f726550726f6475637428290000000000000000000000000000000000000081525060400191505060405180910390fd5b84600c88815481101515613ace57fe5b906000526020600020906006020160020154141515613b7b576040517f08c379a000000000000000000000000000000000000000000000000000000000815260040180806020018281038252602f8152602001807f70726f64756374206964206d69736d6174636820647572696e6720757064617481526020017f6553746f726550726f647563742829000000000000000000000000000000000081525060400191505060405180910390fd5b83600c88815481101515613b8b57fe5b90600052602060002090600602016003018190555082600c88815481101515613bb057fe5b9060005260206000209060060201600401819055508160ff166001811115613bd457fe5b600c88815481101515613be357fe5b906000526020600020906006020160050160006101000a81548160ff02191690836001811115613c0f57fe5b02179055507fec3e2bc0159748a840f3b8cef744e7ece595eda99df59b42b41c3eadae3ba20487878787878742604051808881526020018781526020018681526020018581526020018481526020018360ff16815260200182815260200197505050505050505060405180910390a1600190509695505050505050565b6000806060600080613c9c61520b565b600987815481101515613cab57fe5b906000526020600020906005020160a06040519081016040529081600082015481526020016001820160009054906101000a900473ffffffffffffffffffffffffffffffffffffffff1673ffffffffffffffffffffffffffffffffffffffff1673ffffffffffffffffffffffffffffffffffffffff168152602001600282018054600181600116156101000203166002900480601f016020809104026020016040519081016040528092919081815260200182805460018160011615610100020316600290048015613dbe5780601f10613d9357610100808354040283529160200191613dbe565b820191906000526020600020905b815481529060010190602001808311613da157829003601f168201915b505050505081526020016003820160009054906101000a900460ff166002811115613de557fe5b6002811115613df057fe5b8152602001600482015481525050905080600001518160200151826040015183606001516002811115613e1f57fe5b8460800151829250955095509550955095505091939590929450565b6000600980549050905090565b6000806060806060613e5861525c565b600b87815481101515613e6757fe5b906000526020600020906005020160a06040519081016040529081600082015481526020016001820160009054906101000a900473ffffffffffffffffffffffffffffffffffffffff1673ffffffffffffffffffffffffffffffffffffffff1673ffffffffffffffffffffffffffffffffffffffff168152602001600282018054600181600116156101000203166002900480601f016020809104026020016040519081016040528092919081815260200182805460018160011615610100020316600290048015613f7a5780601f10613f4f57610100808354040283529160200191613f7a565b820191906000526020600020905b815481529060010190602001808311613f5d57829003601f168201915b50505050508152602001600382018054600181600116156101000203166002900480601f01602080910402602001604051908101604052809291908181526020018280546001816001161561010002031660029004801561401c5780601f10613ff15761010080835404028352916020019161401c565b820191906000526020600020905b815481529060010190602001808311613fff57829003601f168201915b50505050508152602001600482018054600181600116156101000203166002900480601f0160208091040260200160405190810160405280929190818152602001828054600181600116156101000203166002900480156140be5780601f10614093576101008083540402835291602001916140be565b820191906000526020600020905b8154815290600101906020018083116140a157829003601f168201915b505050505081525050905080600001518160200151826040015183606001518460800151829250819150809050955095509550955095505091939590929450565b60008060405180807f6372656174654f72646572202331000000000000000000000000000000000000815250600e01905060405180910390a0600d805480919060010161414c91906152a2565b915060405180807f6372656174654f72646572202332000000000000000000000000000000000000815250600e01905060405180910390a0600d8281548110151561419357fe5b9060005260206000209060060201905060405180807f6372656174654f72646572202333000000000000000000000000000000000000815250600e01905060405180910390a086816001018190555060405180807f6372656174654f72646572202334000000000000000000000000000000000000815250600e01905060405180910390a085816002018190555060405180807f6372656174654f72646572202335000000000000000000000000000000000000815250600e01905060405180910390a084816003018190555060405180807f6372656174654f72646572202336000000000000000000000000000000000000815250600e01905060405180910390a081816000018190555060405180807f6372656174654f72646572202337000000000000000000000000000000000000815250600e01905060405180910390a083816004018190555060405180807f6372656174654f72646572202338000000000000000000000000000000000000815250600e01905060405180910390a082816005018190555060405180807f6372656174654f72646572202339000000000000000000000000000000000000815250600e01905060405180910390a0600860008973ffffffffffffffffffffffffffffffffffffffff1673ffffffffffffffffffffffffffffffffffffffff16815260200190815260200160002082908060018154018082558091505090600182039060005260206000200160009091929091909150555060405180807f6372656174654f72646572202331300000000000000000000000000000000000815250600f01905060405180910390a07fdbfdff4ea503e152ab2fb1f60ff8e2434f5642cff68cb295db49e4e5ad5323c9828260010154836002015484600301548560040154866005015460405180878152602001868152602001858152602001848152602001838152602001828152602001965050505050505060405180910390a160405180807f6372656174654f72646572202331310000000000000000000000000000000000815250600f01905060405180910390a0819150509695505050505050565b60006144b3615151565b600060405180807f73656c6c50726f64756374202331000000000000000000000000000000000000815250600e01905060405180910390a0600086101580156145015750600c805490508611155b1515614575576040517f08c379a000000000000000000000000000000000000000000000000000000000815260040180806020018281038252601f8152602001807f73746f72652070726f6475637420696420646f6573206e6f742065786973740081525060200191505060405180910390fd5b60405180807f73656c6c50726f64756374202332000000000000000000000000000000000000815250600e01905060405180910390a0600c868154811015156145ba57fe5b906000526020600020906006020160c0604051908101604052908160008201548152602001600182015481526020016002820154815260200160038201548152602001600482015481526020016005820160009054906101000a900460ff16600181111561462457fe5b600181111561462f57fe5b81525050915060405180807f73656c6c50726f64756374202333000000000000000000000000000000000000815250600e01905060405180910390a08682602001511415156146e6576040517f08c379a00000000000000000000000000000000000000000000000000000000081526004018080602001828103825260178152602001807f73746f726520696420646f6573206e6f74206d6174636800000000000000000081525060200191505060405180910390fd5b60405180807f73656c6c50726f64756374202334000000000000000000000000000000000000815250600e01905060405180910390a0600082608001511115156147be576040517f08c379a00000000000000000000000000000000000000000000000000000000081526004018080602001828103825260278152602001807f696e73756666696369656e7420696e76656e746f7279206f662073746f72652081526020017f70726f647563740000000000000000000000000000000000000000000000000081525060400191505060405180910390fd5b60405180807f73656c6c50726f64756374202335000000000000000000000000000000000000815250600e01905060405180910390a0600c8681548110151561480357fe5b9060005260206000209060060201600301548402905060405180807f73656c6c50726f64756374202336000000000000000000000000000000000000815250600e01905060405180910390a080600360003373ffffffffffffffffffffffffffffffffffffffff1673ffffffffffffffffffffffffffffffffffffffff1681526020019081526020016000205410151515614906576040517f08c379a000000000000000000000000000000000000000000000000000000000815260040180806020018281038252601c8152602001807f62757965722068617320696e73756666696369656e742066756e64730000000081525060200191505060405180910390fd5b60405180807f73656c6c50726f64756374202337000000000000000000000000000000000000815250600e01905060405180910390a06001600c8781548110151561494d57fe5b90600052602060002090600602016004016000828254039250508190555060405180807f73656c6c50726f64756374202338000000000000000000000000000000000000815250600e01905060405180910390a06149f381600360003373ffffffffffffffffffffffffffffffffffffffff1673ffffffffffffffffffffffffffffffffffffffff16815260200190815260200160002054614f3e90919063ffffffff16565b5060405180807f73656c6c50726f64756374202339000000000000000000000000000000000000815250600e01905060405180910390a0614a5d81600a89815481101515614a3d57fe5b906000526020600020906005020160040154614f5790919063ffffffff16565b5060405180807f73656c6c50726f64756374202331300000000000000000000000000000000000815250600f01905060405180910390a0614aa6338888888660600151896140ff565b92505050949350505050565b6000600c80549050905090565b600080600080600080614ad06152d4565b600d88815481101515614adf57fe5b906000526020600020906006020160c0604051908101604052908160008201548152602001600182015481526020016002820154815260200160038201548152602001600482015481526020016005820154815250509050806000015181602001518260400151836060015184608001518560a001519650965096509650965096505091939550919395565b60015481565b600080600c8054809190600101614b88919061530b565b9150600c82815481101515614b9957fe5b906000526020600020906006020190508681600101819055508581600201819055508181600001819055508481600301819055508381600401819055508260ff166001811115614be557fe5b8160050160006101000a81548160ff02191690836001811115614c0457fe5b0217905550600760008881526020019081526020016000208290806001815401808255809150509060018203906000526020600020016000909192909190915055507fc37a30aa9383268ada71ddf15f71337c4a20bfa590e49d9229445f0adb6603e9828260010154836002015484600301548560040154604051808681526020018581526020018481526020018381526020018281526020019550505050505060405180910390a18191505095945050505050565b600a81815481101515614cc957fe5b90600052602060002090600502016000915090508060000154908060010160009054906101000a900473ffffffffffffffffffffffffffffffffffffffff1690806002018054600181600116156101000203166002900480601f016020809104026020016040519081016040528092919081815260200182805460018160011615610100020316600290048015614da15780601f10614d7657610100808354040283529160200191614da1565b820191906000526020600020905b815481529060010190602001808311614d8457829003601f168201915b505050505090806003018054600181600116156101000203166002900480601f016020809104026020016040519081016040528092919081815260200182805460018160011615610100020316600290048015614e3f5780601f10614e1457610100808354040283529160200191614e3f565b820191906000526020600020905b815481529060010190602001808311614e2257829003601f168201915b5050505050908060040154905085565b6000809054906101000a900473ffffffffffffffffffffffffffffffffffffffff1673ffffffffffffffffffffffffffffffffffffffff163373ffffffffffffffffffffffffffffffffffffffff16141515614eaa57600080fd5b614eb381614f73565b50565b600460205281600052604060002081815481101515614ed157fe5b90600052602060002001600091509150505481565b600c81815481101515614ef557fe5b90600052602060002090600602016000915090508060000154908060010154908060020154908060030154908060040154908060050160009054906101000a900460ff16905086565b6000828211151515614f4c57fe5b818303905092915050565b60008183019050828110151515614f6a57fe5b80905092915050565b600073ffffffffffffffffffffffffffffffffffffffff168173ffffffffffffffffffffffffffffffffffffffff1614151515614faf57600080fd5b8073ffffffffffffffffffffffffffffffffffffffff166000809054906101000a900473ffffffffffffffffffffffffffffffffffffffff1673ffffffffffffffffffffffffffffffffffffffff167f8be0079c531659141344cd1fd0a4f28419497f9722a3daafe3b4186f6b6457e060405160405180910390a3806000806101000a81548173ffffffffffffffffffffffffffffffffffffffff021916908373ffffffffffffffffffffffffffffffffffffffff16021790555050565b81548183558181111561509a57600502816005028360005260206000209182019101615099919061533d565b5b505050565b828054600181600116156101000203166002900490600052602060002090601f016020900481019282601f106150e057805160ff191683800117855561510e565b8280016001018555821561510e579182015b8281111561510d5782518255916020019190600101906150f2565b5b50905061511b91906153b7565b5090565b81548183558181111561514c5760050281600502836000526020600020918201910161514b91906153dc565b5b505050565b60c06040519081016040528060008152602001600081526020016000815260200160008152602001600081526020016000600181111561518d57fe5b81525090565b8154818355818111156151c0576005028160050283600052602060002091820191016151bf919061545a565b5b505050565b60a06040519081016040528060008152602001600073ffffffffffffffffffffffffffffffffffffffff1681526020016060815260200160608152602001600081525090565b60a06040519081016040528060008152602001600073ffffffffffffffffffffffffffffffffffffffff168152602001606081526020016000600281111561524f57fe5b8152602001600081525090565b60a06040519081016040528060008152602001600073ffffffffffffffffffffffffffffffffffffffff1681526020016060815260200160608152602001606081525090565b8154818355818111156152cf576006028160060283600052602060002091820191016152ce91906154d0565b5b505050565b60c0604051908101604052806000815260200160008152602001600081526020016000815260200160008152602001600081525090565b81548183558181111561533857600602816006028360005260206000209182019101615337919061551f565b5b505050565b6153b491905b808211156153b0576000808201600090556001820160006101000a81549073ffffffffffffffffffffffffffffffffffffffff021916905560028201600061538b919061557a565b6003820160006101000a81549060ff0219169055600482016000905550600501615343565b5090565b90565b6153d991905b808211156153d55760008160009055506001016153bd565b5090565b90565b61545791905b80821115615453576000808201600090556001820160006101000a81549073ffffffffffffffffffffffffffffffffffffffff021916905560028201600061542a919061557a565b60038201600061543a919061557a565b60048201600061544a919061557a565b506005016153e2565b5090565b90565b6154cd91905b808211156154c9576000808201600090556001820160006101000a81549073ffffffffffffffffffffffffffffffffffffffff02191690556002820160006154a8919061557a565b6003820160006154b8919061557a565b600482016000905550600501615460565b5090565b90565b61551c91905b808211156155185760008082016000905560018201600090556002820160009055600382016000905560048201600090556005820160009055506006016154d6565b5090565b90565b61557791905b808211156155735760008082016000905560018201600090556002820160009055600382016000905560048201600090556005820160006101000a81549060ff021916905550600601615525565b5090565b90565b50805460018160011615610100020316600290046000825580601f106155a057506155bf565b601f0160209004906000526020600020908101906155be91906153b7565b5b505600a165627a7a72305820d15683cdb73614f52610f2c59ce9e18daf36ffdbc9bb270a2cefdc8ac12dca810029",
  "source": "pragma solidity ^0.4.17;\r\n//npm install -E openzeppelin-solidity\r\nimport \"openzeppelin-solidity/contracts/ownership/Ownable.sol\";\r\nimport \"openzeppelin-solidity/contracts/math/SafeMath.sol\";\r\n\r\ncontract MarketPlace is Ownable {\r\n   /** MarketPlace \r\n   The central marketplace is managed by a group of administrators.\r\n    Admins allow store owners to add stores to the marketplace. \r\n    Store owners can manage their stores inventory and funds.\r\n    Shoppers can visit stores and purchase goods that are in stock using cryptocurrency */\r\n\r\n   // Assigned at the construction\r\n   // phase, where `msg.sender` is the account\r\n   // creating this contract.\r\n    using SafeMath for uint;\r\n    uint public creationTime = now;\r\n\r\n    address owner; /* Owner of contract */\r\n    constructor() public\r\n     {\r\n    // Assigned at the construction\r\n    // phase, create ADMIN user as the where `msg.sender` is the account\r\n    // creating this contract.\r\n    //\r\n        owner = msg.sender;\r\n        createUser(msg.sender, \"Admin\", 0, 0);\r\n        emit log(\"owner = msg.sender\");\r\n    }\r\n\r\n    modifier ownerRestricted {\r\n        require(owner == msg.sender, \"restricted feature\");\r\n        _;\r\n        // the \"_;\"!  will\r\n        // be replaced by the actual function\r\n        // body when the modifier is used.\r\n    } \r\n\r\n    function destroyContract() external ownerRestricted {\r\n        selfdestruct(owner);\r\n    }\r\n\r\n    mapping (address => uint) balance;\r\n\r\n    // Structure for a user\r\n    struct user\r\n    {\r\n        uint uid;\r\n        address user;\r\n        string username;\r\n        userType usertype;\r\n        uint256 amount;\r\n    }\r\n    enum userType {Admin, Owner, Shopper}\r\n\r\n    // define store entity\r\n    struct store\r\n    {\r\n        uint sid;\r\n        address owner;\r\n        string name;\r\n        string description;\r\n        uint256 amount;\r\n    }\r\n\r\n    // define product entity\r\n    struct product\r\n    {\r\n        uint pid;\r\n        address owner;\r\n        string name;\r\n        string description;\r\n        string imgsrc;\r\n    }\r\n\r\n    struct storeproduct\r\n    {\r\n        uint spid;\r\n        uint sid;\r\n        uint pid;\r\n        uint256 price;\r\n        uint256 qty_avail;\r\n        productStatus status;\r\n    }          \r\n    enum productStatus { Available, BackOrder}\r\n\r\n    struct order\r\n    {\r\n        uint oid;\r\n        // uint uid;\r\n        uint sid;\r\n        uint spid;\r\n        uint pid;\r\n        uint256 price;\r\n        uint256 qty;\r\n    }    \r\n\r\n    mapping(address => uint[]) public UserOwnerMap;\r\n    mapping(address => uint[]) public StoreOwnerMap;\r\n    mapping(address => uint[]) public ProductOwnerMap;\r\n    mapping(uint => uint[]) public StoreProductMap;\r\n    mapping(address => uint[]) public OrderOwnerMap;\r\n\r\n    user[] public users;                    /* Array of user structures i.e. users */\r\n    store[] public stores;                  /* Array of store structures i.e. stores */\r\n    product[] public products;              /* Array of product structures i.e. products */\r\n    storeproduct[] public storeproducts;    /* Array of product in a store */\r\n    order[] public orders;                  /* Array of order of product in a store by a user */\r\n\r\n    // onlyAdministrator\r\n    modifier onlyAdministrator (address sid)\r\n    {\r\n    /*\r\n        // if address not that of Administrator then  \r\n        if (temp.userType != userTypes.Admin)\r\n        {\r\n            emit throwError(\"Error: user is not Admin !\");            \r\n            revert();\r\n        }\r\n    */\r\n        _;\r\n    }\r\n    // list all of the events and what we need to know about them\r\n    event throwError(string message);\r\n    event log(string message);\r\n    event userCreated(uint uid, address user, string username, uint8 usertype, uint256 amount, uint timestamp);\r\n    event userUpdated(uint uid, string username, uint8 usertype, uint timestamp);\r\n    event storeCreated(uint sid, address owner, string name, string description, uint256 amount, uint timestamp);\r\n    event storeUpdated(uint sid, string name, string description, uint timestamp);\r\n    event productCreated(uint pid, address owner, string name, string description, string imgsrc);\r\n    event productUpdated(uint pid, string name, string description, string imgsrc, uint timestamp);\r\n    event storeproductCreated(uint spid, uint sid, uint pid, uint256 price, uint256 qty_avail);\r\n    event storeproductUpdated(uint spid, uint sid, uint pid, uint256 price, uint256 qty_avail, uint status, uint timestamp);\r\n    event orderCreated (uint oid, uint uid, uint sid, uint pid, uint256 price,uint256 qty);\r\n  \r\n    // these functions facilitate the CRUD for the MArketPlace Bill of Materials\r\n    // The BOM includes users: Admins and Store Owners\r\n    //                  stores, products and orders\r\n\r\n    function createUser( address _user, string _username, uint8 _usertype, uint256 _amount) public returns (uint id)\r\n    {\r\n        id = users.length++;\r\n        user storage newUser = users[id];\r\n        newUser.user = _user;\r\n        newUser.usertype = userType(_usertype);\r\n        newUser.username = _username;\r\n        newUser.uid = id;\r\n        newUser.amount = _amount;\r\n        UserOwnerMap[newUser.user].push(id);\r\n        emit userCreated(id, newUser.user, newUser.username, (uint8)(newUser.usertype), newUser.amount, now);\r\n        return id;\r\n    }\r\n\r\n    function updateUser( uint _uid, string _username, uint8 _usertype)\r\n        public returns (bool success)\r\n    {\r\n        /* Only allow changes to usertype */\r\n        users[_uid].usertype = userType(_usertype);\r\n        emit userUpdated(_uid, _username, (uint8)(_usertype), now);\r\n        return true;\r\n    }\r\n\r\n    function getUser(uint idx) public view returns (uint, address, string, uint8, uint256)\r\n    {\r\n        user memory temp = users[idx];\r\n        return (temp.uid, temp.user, temp.username, uint8(temp.usertype), temp.amount);\r\n    }\r\n\r\n    function getUserCount() public view returns (uint)\r\n    {\r\n        return users.length;\r\n    }\r\n\r\n    function createStore( address _owner, string _name, string _description, uint256 _amount ) public returns (uint id)\r\n    {\r\n        id = stores.length++;\r\n        store storage newStore = stores[id];\r\n        newStore.owner = _owner;\r\n        newStore.sid = id;\r\n        newStore.name = _name;\r\n        newStore.description = _description;\r\n        newStore.amount = _amount;\r\n        StoreOwnerMap[newStore.owner].push(id);\r\n        emit storeCreated(id, newStore.owner, newStore.name, newStore.description, newStore.amount, now);\r\n        return id;\r\n    }\r\n    \r\n    function updateStore( uint _sid, string _storename, string _storedescription)\r\n        public returns (bool success)\r\n    {\r\n        /* Only allow changes to description */\r\n        stores[_sid].description = _storedescription;\r\n        emit storeUpdated(_sid, _storename, _storedescription, now);\r\n        return true;\r\n    }\r\n\r\n    function getStore(uint idx) public view returns (uint, address, string, string, uint256)\r\n    {\r\n        store memory temp = stores[idx];\r\n        return (temp.sid, temp.owner, temp.name, temp.description, temp.amount);\r\n    }\r\n\r\n    function getStoreCount() public view returns (uint)\r\n    {\r\n        return stores.length;\r\n    }\r\n\r\n    function getStoreForOwner(address _owner, uint idx) public view returns (uint, address, string, string, uint256)\r\n    {\r\n        if (getStoreCountForOwner(_owner) >= idx)\r\n        {\r\n            return getStore(StoreOwnerMap[_owner][idx]);\r\n        }\r\n        else\r\n        {\r\n            revert(\"store index does not exist for this owner!\");\r\n        }\r\n    }\r\n\r\n    function getStoreCountForOwner(address _owner) public view returns (uint)\r\n    {\r\n        return StoreOwnerMap[_owner].length;\r\n    }\r\n\r\n    function createProduct( address _owner, string _name, string _description, string _imgsrc ) public returns (uint id)\r\n    {\r\n        emit log(\"MarketPlace createProduct#1\");\r\n        id = products.length++;\r\n        product storage newProduct = products[id];\r\n        newProduct.pid = id;\r\n        newProduct.owner = _owner;\r\n        newProduct.name = _name;\r\n        newProduct.description = _description;\r\n        newProduct.imgsrc = _imgsrc;\r\n        emit log(\"MarketPlace createProduct#2\");\r\n        ProductOwnerMap[newProduct.owner].push(id);\r\n        emit productCreated(id, newProduct.owner, newProduct.name, newProduct.description, newProduct.imgsrc);\r\n        emit log(\"MarketPlace createProduct#3\");\r\n        return id;\r\n    }\r\n\r\n    function updateProduct( uint _pid, string _name, string _description, string _imgsrc)\r\n        public returns (bool success)\r\n    {\r\n        /* Only allow changes to description and imgsrc */\r\n        products[_pid].description = _description;\r\n        products[_pid].imgsrc = _imgsrc;\r\n        emit productUpdated(_pid, _name, _description, _imgsrc, now);\r\n        return true;\r\n    }\r\n\r\n    function getProduct(uint idx) public view returns ( uint, address, string, string, string )\r\n    {\r\n        product memory temp = products[idx];\r\n        return (temp.pid, temp.owner, temp.name, temp.description, temp.imgsrc);\r\n    }\r\n\r\n    function getProductCount() public view returns (uint)\r\n    {\r\n        return products.length;\r\n    }\r\n    \r\n    function getProductForOwner(address _owner, uint idx) public view returns ( uint, address, string, string, string )\r\n    {\r\n        if (getProductCountForOwner(_owner) >= idx)\r\n        {\r\n            return getProduct(ProductOwnerMap[_owner][idx]);\r\n        }\r\n        else\r\n        {\r\n            revert(\"product index does not exist for this owner!\");\r\n        }\r\n    }\r\n\r\n    function getProductCountForOwner(address _owner) public view returns (uint)\r\n    {\r\n        return ProductOwnerMap[_owner].length;\r\n    }\r\n\r\n    function createStoreProduct( uint _sid, uint _pid, uint256 _price, uint256 _qty_avail, uint8 _status) public returns (uint id)\r\n    {\r\n        id = storeproducts.length++;\r\n        storeproduct storage newStoreProduct = storeproducts[id];\r\n        newStoreProduct.sid = _sid;\r\n        newStoreProduct.pid = _pid;\r\n        newStoreProduct.spid = id;\r\n        newStoreProduct.price = _price;\r\n        newStoreProduct.qty_avail = _qty_avail;\r\n        newStoreProduct.status = productStatus(_status);\r\n        StoreProductMap[_sid].push(id);\r\n        emit storeproductCreated(id, newStoreProduct.sid, newStoreProduct.pid, newStoreProduct.price, newStoreProduct.qty_avail);\r\n        return id;\r\n    }\r\n    \r\n    function updateStoreProduct( uint _spid, uint _sid, uint _pid, uint256 _price, uint256 _qty_avail, uint8 _status)\r\n        public returns (bool success)\r\n    {\r\n        /* Only allow changes to price, qty_avail, and status */\r\n        require(storeproducts[_spid].sid == _sid, \"store id mismatch during updateStoreProduct()\");\r\n        require(storeproducts[_spid].pid == _pid, \"product id mismatch during updateStoreProduct()\");\r\n        storeproducts[_spid].price = _price;\r\n        storeproducts[_spid].qty_avail = _qty_avail;\r\n        storeproducts[_spid].status = productStatus(_status);\r\n        emit storeproductUpdated(_spid, _sid, _pid, _price, _qty_avail, (uint8)(_status), now);\r\n        return true;\r\n    }\r\n    \r\n    function getStoreProduct(uint idx) public view returns ( uint, uint, uint, uint256, uint256, uint8)\r\n    {\r\n        storeproduct memory temp = storeproducts[idx];\r\n        return (temp.spid, temp.sid, temp.pid, temp.price, temp.qty_avail, uint8(temp.status));\r\n    }  \r\n\r\n    function getStoreProductCount() public view returns (uint)\r\n    {\r\n        return storeproducts.length;\r\n    }\r\n\r\n    // return the StoreProduct for the provided store and storeproduct index\r\n    function getStoreProductForStore(uint _sid, uint _idx) public view returns ( uint, uint, uint, uint256, uint256, uint)\r\n    {\r\n        if (getStoreProductCountForStore(_sid) >= _idx)\r\n        {\r\n            return getStoreProduct(StoreProductMap[_sid][_idx]);\r\n        }\r\n        else\r\n        {\r\n            revert(\"store product index does not exist for this store!\");\r\n        }\r\n    }  \r\n\r\n    function getStoreProductCountForStore(uint _sid) public view returns (uint)\r\n    {\r\n        return StoreProductMap[_sid].length;\r\n    }\r\n\r\n    function createOrder( address _owner, uint _sid, uint _spid, uint _pid, uint256 _price, uint256 _qty) public returns (uint id)\r\n    {\r\n        log0(\"createOrder #1\");\r\n        id = orders.length++;\r\n        log0(\"createOrder #2\");\r\n        order storage newOrder = orders[id];\r\n        log0(\"createOrder #3\");\r\n        newOrder.sid = _sid;\r\n        log0(\"createOrder #4\");\r\n        newOrder.spid = _spid;\r\n        log0(\"createOrder #5\");\r\n        newOrder.pid = _pid;\r\n        log0(\"createOrder #6\");\r\n        newOrder.oid = id;\r\n        log0(\"createOrder #7\");\r\n        newOrder.price = _price;\r\n        log0(\"createOrder #8\");\r\n        newOrder.qty = _qty;\r\n        log0(\"createOrder #9\");\r\n        OrderOwnerMap[_owner].push(id);\r\n        log0(\"createOrder #10\");\r\n        emit orderCreated(id, newOrder.sid, newOrder.spid, newOrder.pid, newOrder.price, newOrder.qty);\r\n        log0(\"createOrder #11\");\r\n        return id;\r\n    }\r\n    \r\n    function getOrder(uint idx) public view returns ( uint, uint, uint, uint, uint256, uint256)\r\n    {\r\n        order memory temp = orders[idx];\r\n        return (temp.oid, temp.sid, temp.spid, temp.pid, temp.price, temp.qty);\r\n    } \r\n\r\n    function getOrderCount() public view returns (uint)\r\n    {\r\n        return orders.length;\r\n    } \r\n\r\n    function sellProduct(uint sid, uint spid, uint pid, uint qty) public payable returns (uint)\r\n    {\r\n        // ensure store product id is within array boundary \r\n        log0(\"sellProduct #1\");\r\n        require(spid >= 0 && spid <= storeproducts.length, \"store product id does not exist\");\r\n        // get store product\r\n        log0(\"sellProduct #2\");\r\n        storeproduct memory temp = storeproducts[spid];\r\n        // ensure store id matches \r\n        log0(\"sellProduct #3\");\r\n        require (temp.sid == sid, \"store id does not match\");\r\n        // ensure at least 1 available \r\n        log0(\"sellProduct #4\");\r\n        require (temp.qty_avail > 0, \"insufficient inventory of store product\");\r\n        // calculate transaction amount\r\n        log0(\"sellProduct #5\");\r\n        uint transAmount = qty * storeproducts[spid].price;\r\n        // ensure buyer has sufficient funds \r\n        log0(\"sellProduct #6\");\r\n        require (balance[msg.sender] >= transAmount, \"buyer has insufficient funds\");\r\n        // decrease inventory by 1\r\n        log0(\"sellProduct #7\");\r\n        storeproducts[spid].qty_avail -= 1;\r\n        // decrease buyers wallet by transaction amount\r\n        log0(\"sellProduct #8\");\r\n        balance[msg.sender].sub(transAmount);\r\n        // increase store amount by transaction amount\r\n        log0(\"sellProduct #9\");\r\n        stores[sid].amount.add(transAmount);\r\n        /**\r\n        \r\n    */\r\n        // create the order\r\n        log0(\"sellProduct #10\");\r\n        return createOrder(msg.sender, sid, spid, pid, temp.price, qty);\r\n    }                       \r\n\r\n    function withdraw(uint sid, uint256 amount) public payable returns (bool success)\r\n    {\r\n        // ensure message is from store owner\r\n        require(stores[sid].owner == msg.sender, \"must be owner of store\");\r\n        // ensure store has requested funds\r\n        require(stores[sid].amount >= amount, \"amount greater than store value\");\r\n        // decrease stores wallet by transaction amount\r\n        stores[sid].amount.sub(amount);\r\n        // increase callers wallet by transaction amount\r\n        balance[msg.sender].add(amount);\r\n        return true;\r\n    }\r\n\r\n    function mul(uint256 _a, uint256 _b) internal pure returns (uint256 c) {\r\n        // Gas optimization: this is cheaper than asserting 'a' not being zero, but the\r\n        // benefit is lost if 'b' is also tested.\r\n        // See: https://github.com/OpenZeppelin/openzeppelin-solidity/pull/522\r\n        if (_a == 0) {\r\n            return 0;\r\n        }\r\n\r\n        c = _a * _b;\r\n        assert(c / _a == _b);\r\n        return c;\r\n    }\r\n\r\n    /**\r\n    * @dev Integer division of two numbers, truncating the quotient.\r\n    */\r\n    function div(uint256 _a, uint256 _b) internal pure returns (uint256) {\r\n        // assert(_b > 0); // Solidity automatically throws when dividing by 0\r\n        // uint256 c = _a / _b;\r\n        // assert(_a == _b * c + _a % _b); // There is no case in which this doesn't hold\r\n        return _a / _b;\r\n    }\r\n\r\n    /**\r\n    * @dev Subtracts two numbers, throws on overflow (i.e. if subtrahend is greater than minuend).\r\n    */\r\n    function sub(uint256 _a, uint256 _b) internal pure returns (uint256) {\r\n        assert(_b <= _a);\r\n        return _a - _b;\r\n    }\r\n\r\n    /**\r\n    * @dev Adds two numbers, throws on overflow.\r\n    */\r\n    function add(uint256 _a, uint256 _b) internal pure returns (uint256 c) {\r\n        c = _a + _b;\r\n        assert(c >= _a);\r\n        return c;\r\n    }\r\n}",
  "sourcePath": "C:\\Users\\jbambara\\Documents\\GitHub\\marketplace\\contracts\\MarketPlace.sol",
  "compiler": {
    "name": "solc",
    "version": "0.4.24+commit.e67f0147.Emscripten.clang"
  },
  "schemaVersion": "2.0.1",
  "updatedAt": "2018-08-23T22:35:19.841Z"
}