{
  "contractName": "MarketPlace",
  "abi": [
    {
      "constant": true,
      "inputs": [
        {
          "name": "",
          "type": "address"
        },
        {
          "name": "",
          "type": "uint256"
        }
      ],
      "name": "StoreOwnerMap",
      "outputs": [
        {
          "name": "",
          "type": "uint256"
        }
      ],
      "payable": false,
      "stateMutability": "view",
      "type": "function"
    },
    {
      "constant": true,
      "inputs": [
        {
          "name": "",
          "type": "uint256"
        }
      ],
      "name": "users",
      "outputs": [
        {
          "name": "uid",
          "type": "uint256"
        },
        {
          "name": "user",
          "type": "address"
        },
        {
          "name": "username",
          "type": "string"
        },
        {
          "name": "usertype",
          "type": "string"
        },
        {
          "name": "amount",
          "type": "uint256"
        },
        {
          "name": "timestamp",
          "type": "uint256"
        }
      ],
      "payable": false,
      "stateMutability": "view",
      "type": "function"
    },
    {
      "constant": true,
      "inputs": [
        {
          "name": "",
          "type": "address"
        },
        {
          "name": "",
          "type": "uint256"
        }
      ],
      "name": "ProductOwnerMap",
      "outputs": [
        {
          "name": "",
          "type": "uint256"
        }
      ],
      "payable": false,
      "stateMutability": "view",
      "type": "function"
    },
    {
      "constant": true,
      "inputs": [
        {
          "name": "",
          "type": "uint256"
        }
      ],
      "name": "products",
      "outputs": [
        {
          "name": "pid",
          "type": "uint256"
        },
        {
          "name": "name",
          "type": "string"
        },
        {
          "name": "description",
          "type": "string"
        },
        {
          "name": "price",
          "type": "uint256"
        },
        {
          "name": "status",
          "type": "uint8"
        }
      ],
      "payable": false,
      "stateMutability": "view",
      "type": "function"
    },
    {
      "constant": true,
      "inputs": [
        {
          "name": "",
          "type": "uint256"
        }
      ],
      "name": "orders",
      "outputs": [
        {
          "name": "oid",
          "type": "uint256"
        },
        {
          "name": "uid",
          "type": "uint256"
        },
        {
          "name": "sid",
          "type": "uint256"
        },
        {
          "name": "pid",
          "type": "uint256"
        },
        {
          "name": "price",
          "type": "uint256"
        },
        {
          "name": "qty",
          "type": "uint256"
        }
      ],
      "payable": false,
      "stateMutability": "view",
      "type": "function"
    },
    {
      "constant": true,
      "inputs": [
        {
          "name": "",
          "type": "uint256"
        }
      ],
      "name": "stores",
      "outputs": [
        {
          "name": "sid",
          "type": "uint256"
        },
        {
          "name": "owner",
          "type": "address"
        },
        {
          "name": "name",
          "type": "string"
        },
        {
          "name": "description",
          "type": "string"
        },
        {
          "name": "amount",
          "type": "uint256"
        }
      ],
      "payable": false,
      "stateMutability": "view",
      "type": "function"
    },
    {
      "constant": true,
      "inputs": [
        {
          "name": "",
          "type": "address"
        },
        {
          "name": "",
          "type": "uint256"
        }
      ],
      "name": "UserOwnerMap",
      "outputs": [
        {
          "name": "",
          "type": "uint256"
        }
      ],
      "payable": false,
      "stateMutability": "view",
      "type": "function"
    },
    {
      "constant": true,
      "inputs": [
        {
          "name": "",
          "type": "uint256"
        }
      ],
      "name": "storeproducts",
      "outputs": [
        {
          "name": "spid",
          "type": "uint256"
        },
        {
          "name": "sid",
          "type": "uint256"
        },
        {
          "name": "pid",
          "type": "uint256"
        },
        {
          "name": "price",
          "type": "uint256"
        },
        {
          "name": "qty_avail",
          "type": "uint256"
        }
      ],
      "payable": false,
      "stateMutability": "view",
      "type": "function"
    },
    {
      "inputs": [],
      "payable": false,
      "stateMutability": "nonpayable",
      "type": "constructor"
    },
    {
      "anonymous": false,
      "inputs": [
        {
          "indexed": false,
          "name": "message",
          "type": "string"
        }
      ],
      "name": "throwError",
      "type": "event"
    },
    {
      "anonymous": false,
      "inputs": [
        {
          "indexed": false,
          "name": "sid",
          "type": "uint256"
        },
        {
          "indexed": false,
          "name": "owner",
          "type": "address"
        },
        {
          "indexed": false,
          "name": "name",
          "type": "string"
        },
        {
          "indexed": false,
          "name": "description",
          "type": "string"
        },
        {
          "indexed": false,
          "name": "amount",
          "type": "uint256"
        }
      ],
      "name": "storeCreated",
      "type": "event"
    },
    {
      "anonymous": false,
      "inputs": [
        {
          "indexed": false,
          "name": "uid",
          "type": "uint256"
        },
        {
          "indexed": false,
          "name": "user",
          "type": "address"
        },
        {
          "indexed": false,
          "name": "username",
          "type": "string"
        },
        {
          "indexed": false,
          "name": "usertype",
          "type": "string"
        },
        {
          "indexed": false,
          "name": "amount",
          "type": "uint256"
        },
        {
          "indexed": false,
          "name": "timestamp",
          "type": "uint256"
        }
      ],
      "name": "userCreated",
      "type": "event"
    },
    {
      "anonymous": false,
      "inputs": [
        {
          "indexed": false,
          "name": "pid",
          "type": "uint256"
        },
        {
          "indexed": false,
          "name": "name",
          "type": "string"
        },
        {
          "indexed": false,
          "name": "description",
          "type": "string"
        },
        {
          "indexed": false,
          "name": "price",
          "type": "uint256"
        }
      ],
      "name": "productCreated",
      "type": "event"
    },
    {
      "anonymous": false,
      "inputs": [
        {
          "indexed": false,
          "name": "spid",
          "type": "uint256"
        },
        {
          "indexed": false,
          "name": "sid",
          "type": "uint256"
        },
        {
          "indexed": false,
          "name": "pid",
          "type": "uint256"
        },
        {
          "indexed": false,
          "name": "price",
          "type": "uint256"
        },
        {
          "indexed": false,
          "name": "qty_avail",
          "type": "uint256"
        }
      ],
      "name": "storeproductCreated",
      "type": "event"
    },
    {
      "anonymous": false,
      "inputs": [
        {
          "indexed": false,
          "name": "oid",
          "type": "uint256"
        },
        {
          "indexed": false,
          "name": "uid",
          "type": "uint256"
        },
        {
          "indexed": false,
          "name": "sid",
          "type": "uint256"
        },
        {
          "indexed": false,
          "name": "pid",
          "type": "uint256"
        },
        {
          "indexed": false,
          "name": "price",
          "type": "uint256"
        },
        {
          "indexed": false,
          "name": "qty",
          "type": "uint256"
        }
      ],
      "name": "orderCreated",
      "type": "event"
    },
    {
      "constant": false,
      "inputs": [
        {
          "name": "_user",
          "type": "address"
        },
        {
          "name": "_username",
          "type": "string"
        },
        {
          "name": "_usertype",
          "type": "string"
        },
        {
          "name": "_amount",
          "type": "uint256"
        }
      ],
      "name": "createUser",
      "outputs": [
        {
          "name": "id",
          "type": "uint256"
        }
      ],
      "payable": false,
      "stateMutability": "nonpayable",
      "type": "function"
    },
    {
      "constant": true,
      "inputs": [
        {
          "name": "idx",
          "type": "uint256"
        }
      ],
      "name": "getUser",
      "outputs": [
        {
          "name": "",
          "type": "uint256"
        },
        {
          "name": "",
          "type": "address"
        },
        {
          "name": "",
          "type": "string"
        },
        {
          "name": "",
          "type": "string"
        },
        {
          "name": "",
          "type": "uint256"
        }
      ],
      "payable": false,
      "stateMutability": "view",
      "type": "function"
    },
    {
      "constant": true,
      "inputs": [],
      "name": "getUserCount",
      "outputs": [
        {
          "name": "",
          "type": "uint256"
        }
      ],
      "payable": false,
      "stateMutability": "view",
      "type": "function"
    },
    {
      "constant": false,
      "inputs": [
        {
          "name": "_owner",
          "type": "address"
        },
        {
          "name": "_name",
          "type": "string"
        },
        {
          "name": "_description",
          "type": "string"
        },
        {
          "name": "_amount",
          "type": "uint256"
        }
      ],
      "name": "createStore",
      "outputs": [
        {
          "name": "id",
          "type": "uint256"
        }
      ],
      "payable": false,
      "stateMutability": "nonpayable",
      "type": "function"
    },
    {
      "constant": true,
      "inputs": [
        {
          "name": "idx",
          "type": "uint256"
        }
      ],
      "name": "getStore",
      "outputs": [
        {
          "name": "",
          "type": "uint256"
        },
        {
          "name": "",
          "type": "address"
        },
        {
          "name": "",
          "type": "string"
        },
        {
          "name": "",
          "type": "string"
        },
        {
          "name": "",
          "type": "uint256"
        }
      ],
      "payable": false,
      "stateMutability": "view",
      "type": "function"
    },
    {
      "constant": true,
      "inputs": [],
      "name": "getStoreCount",
      "outputs": [
        {
          "name": "",
          "type": "uint256"
        }
      ],
      "payable": false,
      "stateMutability": "view",
      "type": "function"
    },
    {
      "constant": false,
      "inputs": [
        {
          "name": "_name",
          "type": "string"
        },
        {
          "name": "_description",
          "type": "string"
        },
        {
          "name": "_price",
          "type": "uint256"
        }
      ],
      "name": "createProduct",
      "outputs": [
        {
          "name": "id",
          "type": "uint256"
        }
      ],
      "payable": false,
      "stateMutability": "nonpayable",
      "type": "function"
    },
    {
      "constant": true,
      "inputs": [],
      "name": "getProductCount",
      "outputs": [
        {
          "name": "",
          "type": "uint256"
        }
      ],
      "payable": false,
      "stateMutability": "view",
      "type": "function"
    },
    {
      "constant": true,
      "inputs": [
        {
          "name": "idx",
          "type": "uint256"
        }
      ],
      "name": "getProduct",
      "outputs": [
        {
          "name": "",
          "type": "string"
        },
        {
          "name": "",
          "type": "string"
        },
        {
          "name": "",
          "type": "uint256"
        },
        {
          "name": "",
          "type": "uint256"
        }
      ],
      "payable": false,
      "stateMutability": "view",
      "type": "function"
    },
    {
      "constant": false,
      "inputs": [
        {
          "name": "_sowner",
          "type": "address"
        },
        {
          "name": "_sid",
          "type": "uint256"
        },
        {
          "name": "_pid",
          "type": "uint256"
        },
        {
          "name": "_price",
          "type": "uint256"
        },
        {
          "name": "_qty_avail",
          "type": "uint256"
        }
      ],
      "name": "createStoreProduct",
      "outputs": [
        {
          "name": "id",
          "type": "uint256"
        }
      ],
      "payable": false,
      "stateMutability": "nonpayable",
      "type": "function"
    },
    {
      "constant": true,
      "inputs": [
        {
          "name": "idx",
          "type": "uint256"
        }
      ],
      "name": "getStoreProduct",
      "outputs": [
        {
          "name": "",
          "type": "uint256"
        },
        {
          "name": "",
          "type": "uint256"
        },
        {
          "name": "",
          "type": "uint256"
        },
        {
          "name": "",
          "type": "uint256"
        },
        {
          "name": "",
          "type": "uint256"
        }
      ],
      "payable": false,
      "stateMutability": "view",
      "type": "function"
    },
    {
      "constant": true,
      "inputs": [],
      "name": "getStoreProductCount",
      "outputs": [
        {
          "name": "",
          "type": "uint256"
        }
      ],
      "payable": false,
      "stateMutability": "view",
      "type": "function"
    },
    {
      "constant": false,
      "inputs": [
        {
          "name": "_sowner",
          "type": "address"
        },
        {
          "name": "_uid",
          "type": "uint256"
        },
        {
          "name": "_sid",
          "type": "uint256"
        },
        {
          "name": "_pid",
          "type": "uint256"
        },
        {
          "name": "_price",
          "type": "uint256"
        },
        {
          "name": "_qty",
          "type": "uint256"
        }
      ],
      "name": "createOrder",
      "outputs": [
        {
          "name": "id",
          "type": "uint256"
        }
      ],
      "payable": false,
      "stateMutability": "nonpayable",
      "type": "function"
    },
    {
      "constant": true,
      "inputs": [
        {
          "name": "idx",
          "type": "uint256"
        }
      ],
      "name": "getOrder",
      "outputs": [
        {
          "name": "",
          "type": "uint256"
        },
        {
          "name": "",
          "type": "uint256"
        },
        {
          "name": "",
          "type": "uint256"
        },
        {
          "name": "",
          "type": "uint256"
        },
        {
          "name": "",
          "type": "uint256"
        },
        {
          "name": "",
          "type": "uint256"
        }
      ],
      "payable": false,
      "stateMutability": "view",
      "type": "function"
    },
    {
      "constant": true,
      "inputs": [],
      "name": "getOrderCount",
      "outputs": [
        {
          "name": "",
          "type": "uint256"
        }
      ],
      "payable": false,
      "stateMutability": "view",
      "type": "function"
    },
    {
      "constant": true,
      "inputs": [
        {
          "name": "pid",
          "type": "uint256"
        },
        {
          "name": "sid",
          "type": "uint256"
        },
        {
          "name": "qty",
          "type": "uint256"
        }
      ],
      "name": "sellProduct",
      "outputs": [
        {
          "name": "",
          "type": "uint256"
        }
      ],
      "payable": false,
      "stateMutability": "view",
      "type": "function"
    }
  ],
  "bytecode": "0x608060405234801561001057600080fd5b50612df5806100206000396000f30060806040526004361061013e576000357c0100000000000000000000000000000000000000000000000000000000900463ffffffff16806302a11eb714610143578063258e1ff7146101a45780632ef68f4614610201578063365b98b2146102ee5780634a348da9146104485780635a494fd814610473578063740f3d22146104d45780637acc0b20146105295780637bf194091461065e578063834031201461074b5780638d0a5fbb1461089e57806398e8bd97146108c9578063a1422209146108f4578063a85c38ef146109c1578063b0467deb14610a25578063b5cb15f714610b78578063b7fd7e7f14610ba3578063b9db15b414610c22578063bc3934f714610d42578063c6025dad14610dcb578063d09ef24114610df6578063e8a59cd814610e5a578063f9c9929e14610fad578063fe5ed7d61461100e575b600080fd5b34801561014f57600080fd5b5061018e600480360381019080803573ffffffffffffffffffffffffffffffffffffffff1690602001909291908035906020019092919050505061106b565b6040518082815260200191505060405180910390f35b3480156101b057600080fd5b506101cf6004803603810190808035906020019092919050505061109b565b604051808681526020018581526020018481526020018381526020018281526020019550505050505060405180910390f35b34801561020d57600080fd5b506102d8600480360381019080803573ffffffffffffffffffffffffffffffffffffffff169060200190929190803590602001908201803590602001908080601f0160208091040260200160405190810160405280939291908181526020018383808284378201915050505050509192919290803590602001908201803590602001908080601f016020809104026020016040519081016040528093929190818152602001838380828437820191505050505050919291929080359060200190929190505050611135565b6040518082815260200191505060405180910390f35b3480156102fa57600080fd5b506103196004803603810190808035906020019092919050505061144d565b604051808781526020018673ffffffffffffffffffffffffffffffffffffffff1673ffffffffffffffffffffffffffffffffffffffff1681526020018060200180602001858152602001848152602001838103835287818151815260200191508051906020019080838360005b838110156103a1578082015181840152602081019050610386565b50505050905090810190601f1680156103ce5780820380516001836020036101000a031916815260200191505b50838103825286818151815260200191508051906020019080838360005b838110156104075780820151818401526020810190506103ec565b50505050905090810190601f1680156104345780820380516001836020036101000a031916815260200191505b509850505050505050505060405180910390f35b34801561045457600080fd5b5061045d6115e8565b6040518082815260200191505060405180910390f35b34801561047f57600080fd5b506104be600480360381019080803573ffffffffffffffffffffffffffffffffffffffff169060200190929190803590602001909291905050506115f5565b6040518082815260200191505060405180910390f35b3480156104e057600080fd5b50610513600480360381019080803590602001909291908035906020019092919080359060200190929190505050611625565b6040518082815260200191505060405180910390f35b34801561053557600080fd5b506105546004803603810190808035906020019092919050505061162e565b60405180868152602001806020018060200185815260200184600181111561057857fe5b60ff168152602001838103835287818151815260200191508051906020019080838360005b838110156105b857808201518184015260208101905061059d565b50505050905090810190601f1680156105e55780820380516001836020036101000a031916815260200191505b50838103825286818151815260200191508051906020019080838360005b8381101561061e578082015181840152602081019050610603565b50505050905090810190601f16801561064b5780820380516001836020036101000a031916815260200191505b5097505050505050505060405180910390f35b34801561066a57600080fd5b50610735600480360381019080803573ffffffffffffffffffffffffffffffffffffffff169060200190929190803590602001908201803590602001908080601f0160208091040260200160405190810160405280939291908181526020018383808284378201915050505050509192919290803590602001908201803590602001908080601f0160208091040260200160405190810160405280939291908181526020018383808284378201915050505050509192919290803590602001909291905050506117b0565b6040518082815260200191505060405180910390f35b34801561075757600080fd5b5061077660048036038101908080359060200190929190505050611abd565b604051808681526020018573ffffffffffffffffffffffffffffffffffffffff1673ffffffffffffffffffffffffffffffffffffffff1681526020018060200180602001848152602001838103835286818151815260200191508051906020019080838360005b838110156107f85780820151818401526020810190506107dd565b50505050905090810190601f1680156108255780820380516001836020036101000a031916815260200191505b50838103825285818151815260200191508051906020019080838360005b8381101561085e578082015181840152602081019050610843565b50505050905090810190601f16801561088b5780820380516001836020036101000a031916815260200191505b5097505050505050505060405180910390f35b3480156108aa57600080fd5b506108b3611cd9565b6040518082815260200191505060405180910390f35b3480156108d557600080fd5b506108de611ce6565b6040518082815260200191505060405180910390f35b34801561090057600080fd5b506109ab600480360381019080803590602001908201803590602001908080601f0160208091040260200160405190810160405280939291908181526020018383808284378201915050505050509192919290803590602001908201803590602001908080601f016020809104026020016040519081016040528093929190818152602001838380828437820191505050505050919291929080359060200190929190505050611cf3565b6040518082815260200191505060405180910390f35b3480156109cd57600080fd5b506109ec60048036038101908080359060200190929190505050611efd565b60405180878152602001868152602001858152602001848152602001838152602001828152602001965050505050505060405180910390f35b348015610a3157600080fd5b50610a5060048036038101908080359060200190929190505050611f48565b604051808681526020018573ffffffffffffffffffffffffffffffffffffffff1673ffffffffffffffffffffffffffffffffffffffff1681526020018060200180602001848152602001838103835286818151815260200191508051906020019080838360005b83811015610ad2578082015181840152602081019050610ab7565b50505050905090810190601f168015610aff5780820380516001836020036101000a031916815260200191505b50838103825285818151815260200191508051906020019080838360005b83811015610b38578082015181840152602081019050610b1d565b50505050905090810190601f168015610b655780820380516001836020036101000a031916815260200191505b5097505050505050505060405180910390f35b348015610b8457600080fd5b50610b8d61216e565b6040518082815260200191505060405180910390f35b348015610baf57600080fd5b50610c0c600480360381019080803573ffffffffffffffffffffffffffffffffffffffff1690602001909291908035906020019092919080359060200190929190803590602001909291908035906020019092919050505061217b565b6040518082815260200191505060405180910390f35b348015610c2e57600080fd5b50610c4d600480360381019080803590602001909291905050506122bd565b604051808060200180602001858152602001848152602001838103835287818151815260200191508051906020019080838360005b83811015610c9d578082015181840152602081019050610c82565b50505050905090810190601f168015610cca5780820380516001836020036101000a031916815260200191505b50838103825286818151815260200191508051906020019080838360005b83811015610d03578082015181840152602081019050610ce8565b50505050905090810190601f168015610d305780820380516001836020036101000a031916815260200191505b50965050505050505060405180910390f35b348015610d4e57600080fd5b50610db5600480360381019080803573ffffffffffffffffffffffffffffffffffffffff16906020019092919080359060200190929190803590602001909291908035906020019092919080359060200190929190803590602001909291905050506124a5565b6040518082815260200191505060405180910390f35b348015610dd757600080fd5b50610de06125fd565b6040518082815260200191505060405180910390f35b348015610e0257600080fd5b50610e216004803603810190808035906020019092919050505061260a565b60405180878152602001868152602001858152602001848152602001838152602001828152602001965050505050505060405180910390f35b348015610e6657600080fd5b50610e85600480360381019080803590602001909291905050506126b6565b604051808681526020018573ffffffffffffffffffffffffffffffffffffffff1673ffffffffffffffffffffffffffffffffffffffff1681526020018060200180602001848152602001838103835286818151815260200191508051906020019080838360005b83811015610f07578082015181840152602081019050610eec565b50505050905090810190601f168015610f345780820380516001836020036101000a031916815260200191505b50838103825285818151815260200191508051906020019080838360005b83811015610f6d578082015181840152602081019050610f52565b50505050905090810190601f168015610f9a5780820380516001836020036101000a031916815260200191505b5097505050505050505060405180910390f35b348015610fb957600080fd5b50610ff8600480360381019080803573ffffffffffffffffffffffffffffffffffffffff1690602001909291908035906020019092919050505061284b565b6040518082815260200191505060405180910390f35b34801561101a57600080fd5b506110396004803603810190808035906020019092919050505061287b565b604051808681526020018581526020018481526020018381526020018281526020019550505050505060405180910390f35b60016020528160005260406000208181548110151561108657fe5b90600052602060002001600091509150505481565b60008060008060006110ab6128c0565b6006878154811015156110ba57fe5b906000526020600020906005020160a0604051908101604052908160008201548152602001600182015481526020016002820154815260200160038201548152602001600482015481525050905080600001518160200151826040015183606001518460800151955095509550955095505091939590929450565b6000806003805480919060010161114c91906128f0565b915060038281548110151561115d57fe5b90600052602060002090600602019050858160010160006101000a81548173ffffffffffffffffffffffffffffffffffffffff021916908373ffffffffffffffffffffffffffffffffffffffff160217905550838160030190805190602001906111c8929190612922565b50848160020190805190602001906111e1929190612922565b508181600001819055508281600401819055506000808260010160009054906101000a900473ffffffffffffffffffffffffffffffffffffffff1673ffffffffffffffffffffffffffffffffffffffff1673ffffffffffffffffffffffffffffffffffffffff1681526020019081526020016000208290806001815401808255809150509060018203906000526020600020016000909192909190915055507f7f13c84efc405875f9e84c81565d435642d035f43a5e43b19b8b938d5ecfb6d5828260010160009054906101000a900473ffffffffffffffffffffffffffffffffffffffff16836002018460030185600001548660040154604051808781526020018673ffffffffffffffffffffffffffffffffffffffff1673ffffffffffffffffffffffffffffffffffffffff16815260200180602001806020018581526020018481526020018381038352878181546001816001161561010002031660029004815260200191508054600181600116156101000203166002900480156113aa5780601f1061137f576101008083540402835291602001916113aa565b820191906000526020600020905b81548152906001019060200180831161138d57829003601f168201915b505083810382528681815460018160011615610100020316600290048152602001915080546001816001161561010002031660029004801561142d5780601f106114025761010080835404028352916020019161142d565b820191906000526020600020905b81548152906001019060200180831161141057829003601f168201915b50509850505050505050505060405180910390a181915050949350505050565b60038181548110151561145c57fe5b90600052602060002090600602016000915090508060000154908060010160009054906101000a900473ffffffffffffffffffffffffffffffffffffffff1690806002018054600181600116156101000203166002900480601f0160208091040260200160405190810160405280929190818152602001828054600181600116156101000203166002900480156115345780601f1061150957610100808354040283529160200191611534565b820191906000526020600020905b81548152906001019060200180831161151757829003601f168201915b505050505090806003018054600181600116156101000203166002900480601f0160208091040260200160405190810160405280929190818152602001828054600181600116156101000203166002900480156115d25780601f106115a7576101008083540402835291602001916115d2565b820191906000526020600020905b8154815290600101906020018083116115b557829003601f168201915b5050505050908060040154908060050154905086565b6000600580549050905090565b60026020528160005260406000208181548110151561161057fe5b90600052602060002001600091509150505481565b60009392505050565b60058181548110151561163d57fe5b9060005260206000209060050201600091509050806000015490806001018054600181600116156101000203166002900480601f0160208091040260200160405190810160405280929190818152602001828054600181600116156101000203166002900480156116ef5780601f106116c4576101008083540402835291602001916116ef565b820191906000526020600020905b8154815290600101906020018083116116d257829003601f168201915b505050505090806002018054600181600116156101000203166002900480601f01602080910402602001604051908101604052809291908181526020018280546001816001161561010002031660029004801561178d5780601f106117625761010080835404028352916020019161178d565b820191906000526020600020905b81548152906001019060200180831161177057829003601f168201915b5050505050908060030154908060040160009054906101000a900460ff16905085565b600080600480548091906001016117c791906129a2565b91506004828154811015156117d857fe5b90600052602060002090600502019050858160010160006101000a81548173ffffffffffffffffffffffffffffffffffffffff021916908373ffffffffffffffffffffffffffffffffffffffff1602179055508181600001819055508481600201908051906020019061184c929190612922565b5083816003019080519060200190611865929190612922565b50828160040181905550600160008260010160009054906101000a900473ffffffffffffffffffffffffffffffffffffffff1673ffffffffffffffffffffffffffffffffffffffff1673ffffffffffffffffffffffffffffffffffffffff1681526020019081526020016000208290806001815401808255809150509060018203906000526020600020016000909192909190915055507fc6ca9b5a69bf50769d285e16546e8dd58f82367b5c87bb70b20df33455ce3a8a828260010160009054906101000a900473ffffffffffffffffffffffffffffffffffffffff1683600201846003018560040154604051808681526020018573ffffffffffffffffffffffffffffffffffffffff1673ffffffffffffffffffffffffffffffffffffffff1681526020018060200180602001848152602001838103835286818154600181600116156101000203166002900481526020019150805460018160011615610100020316600290048015611a1b5780601f106119f057610100808354040283529160200191611a1b565b820191906000526020600020905b8154815290600101906020018083116119fe57829003601f168201915b5050838103825285818154600181600116156101000203166002900481526020019150805460018160011615610100020316600290048015611a9e5780601f10611a7357610100808354040283529160200191611a9e565b820191906000526020600020905b815481529060010190602001808311611a8157829003601f168201915b505097505050505050505060405180910390a181915050949350505050565b6000806060806000611acd6129d4565b600487815481101515611adc57fe5b906000526020600020906005020160a06040519081016040529081600082015481526020016001820160009054906101000a900473ffffffffffffffffffffffffffffffffffffffff1673ffffffffffffffffffffffffffffffffffffffff1673ffffffffffffffffffffffffffffffffffffffff168152602001600282018054600181600116156101000203166002900480601f016020809104026020016040519081016040528092919081815260200182805460018160011615610100020316600290048015611bef5780601f10611bc457610100808354040283529160200191611bef565b820191906000526020600020905b815481529060010190602001808311611bd257829003601f168201915b50505050508152602001600382018054600181600116156101000203166002900480601f016020809104026020016040519081016040528092919081815260200182805460018160011615610100020316600290048015611c915780601f10611c6657610100808354040283529160200191611c91565b820191906000526020600020905b815481529060010190602001808311611c7457829003601f168201915b50505050508152602001600482015481525050905080600001518160200151826040015183606001518460800151829250819150955095509550955095505091939590929450565b6000600780549050905090565b6000600480549050905090565b60008060058054809190600101611d0a9190612a1a565b9150600582815481101515611d1b57fe5b9060005260206000209060050201905084816001019080519060200190611d43929190612922565b5083816002019080519060200190611d5c929190612922565b5081816000018190555082816003018190555060008160040160006101000a81548160ff02191690836001811115611d9057fe5b02179055507f39f1e8902af55cdf36ccffcaefd93ae2501c51fe7bbc49d9524305e14601d85c8282600101836002018460030154604051808581526020018060200180602001848152602001838103835286818154600181600116156101000203166002900481526020019150805460018160011615610100020316600290048015611e5d5780601f10611e3257610100808354040283529160200191611e5d565b820191906000526020600020905b815481529060010190602001808311611e4057829003601f168201915b5050838103825285818154600181600116156101000203166002900481526020019150805460018160011615610100020316600290048015611ee05780601f10611eb557610100808354040283529160200191611ee0565b820191906000526020600020905b815481529060010190602001808311611ec357829003601f168201915b5050965050505050505060405180910390a1819150509392505050565b600781815481101515611f0c57fe5b90600052602060002090600602016000915090508060000154908060010154908060020154908060030154908060040154908060050154905086565b6000806060806000611f58612a4c565b600387815481101515611f6757fe5b906000526020600020906006020160c06040519081016040529081600082015481526020016001820160009054906101000a900473ffffffffffffffffffffffffffffffffffffffff1673ffffffffffffffffffffffffffffffffffffffff1673ffffffffffffffffffffffffffffffffffffffff168152602001600282018054600181600116156101000203166002900480601f01602080910402602001604051908101604052809291908181526020018280546001816001161561010002031660029004801561207a5780601f1061204f5761010080835404028352916020019161207a565b820191906000526020600020905b81548152906001019060200180831161205d57829003601f168201915b50505050508152602001600382018054600181600116156101000203166002900480601f01602080910402602001604051908101604052809291908181526020018280546001816001161561010002031660029004801561211c5780601f106120f15761010080835404028352916020019161211c565b820191906000526020600020905b8154815290600101906020018083116120ff57829003601f168201915b5050505050815260200160048201548152602001600582015481525050905080600001518160200151826040015183606001518460800151829250819150955095509550955095505091939590929450565b6000600380549050905090565b600080600680548091906001016121929190612a99565b91506006828154811015156121a357fe5b90600052602060002090600502019050858160010181905550848160020181905550818160000181905550838160030181905550828160040181905550600260008873ffffffffffffffffffffffffffffffffffffffff1673ffffffffffffffffffffffffffffffffffffffff1681526020019081526020016000208290806001815401808255809150509060018203906000526020600020016000909192909190915055507fc37a30aa9383268ada71ddf15f71337c4a20bfa590e49d9229445f0adb6603e9828260010154836002015484600301548560040154604051808681526020018581526020018481526020018381526020018281526020019550505050505060405180910390a18191505095945050505050565b6060806000806122cb612acb565b6005868154811015156122da57fe5b906000526020600020906005020160a0604051908101604052908160008201548152602001600182018054600181600116156101000203166002900480601f0160208091040260200160405190810160405280929190818152602001828054600181600116156101000203166002900480156123975780601f1061236c57610100808354040283529160200191612397565b820191906000526020600020905b81548152906001019060200180831161237a57829003601f168201915b50505050508152602001600282018054600181600116156101000203166002900480601f0160208091040260200160405190810160405280929190818152602001828054600181600116156101000203166002900480156124395780601f1061240e57610100808354040283529160200191612439565b820191906000526020600020905b81548152906001019060200180831161241c57829003601f168201915b50505050508152602001600382015481526020016004820160009054906101000a900460ff16600181111561246a57fe5b600181111561247557fe5b81525050905080602001518160400151826000015183606001518393508292509450945094509450509193509193565b600080600780548091906001016124bc9190612b06565b91506007828154811015156124cd57fe5b90600052602060002090600602019050868160010181905550858160020181905550848160030181905550818160000181905550838160040181905550828160050181905550600260008973ffffffffffffffffffffffffffffffffffffffff1673ffffffffffffffffffffffffffffffffffffffff1681526020019081526020016000208290806001815401808255809150509060018203906000526020600020016000909192909190915055507fdbfdff4ea503e152ab2fb1f60ff8e2434f5642cff68cb295db49e4e5ad5323c9828260010154836002015484600301548560040154866005015460405180878152602001868152602001858152602001848152602001838152602001828152602001965050505050505060405180910390a1819150509695505050505050565b6000600680549050905090565b60008060008060008061261b612b38565b60078881548110151561262a57fe5b906000526020600020906006020160c0604051908101604052908160008201548152602001600182015481526020016002820154815260200160038201548152602001600482015481526020016005820154815250509050806020015181600001518260400151836060015184608001518560a001519650965096509650965096505091939550919395565b6004818154811015156126c557fe5b90600052602060002090600502016000915090508060000154908060010160009054906101000a900473ffffffffffffffffffffffffffffffffffffffff1690806002018054600181600116156101000203166002900480601f01602080910402602001604051908101604052809291908181526020018280546001816001161561010002031660029004801561279d5780601f106127725761010080835404028352916020019161279d565b820191906000526020600020905b81548152906001019060200180831161278057829003601f168201915b505050505090806003018054600181600116156101000203166002900480601f01602080910402602001604051908101604052809291908181526020018280546001816001161561010002031660029004801561283b5780601f106128105761010080835404028352916020019161283b565b820191906000526020600020905b81548152906001019060200180831161281e57829003601f168201915b5050505050908060040154905085565b60006020528160005260406000208181548110151561286657fe5b90600052602060002001600091509150505481565b60068181548110151561288a57fe5b90600052602060002090600502016000915090508060000154908060010154908060020154908060030154908060040154905085565b60a06040519081016040528060008152602001600081526020016000815260200160008152602001600081525090565b81548183558181111561291d5760060281600602836000526020600020918201910161291c9190612b6f565b5b505050565b828054600181600116156101000203166002900490600052602060002090601f016020900481019282601f1061296357805160ff1916838001178555612991565b82800160010185558215612991579182015b82811115612990578251825591602001919060010190612975565b5b50905061299e9190612bed565b5090565b8154818355818111156129cf576005028160050283600052602060002091820191016129ce9190612c12565b5b505050565b60a06040519081016040528060008152602001600073ffffffffffffffffffffffffffffffffffffffff1681526020016060815260200160608152602001600081525090565b815481835581811115612a4757600502816005028360005260206000209182019101612a469190612c88565b5b505050565b60c06040519081016040528060008152602001600073ffffffffffffffffffffffffffffffffffffffff168152602001606081526020016060815260200160008152602001600081525090565b815481835581811115612ac657600502816005028360005260206000209182019101612ac59190612ceb565b5b505050565b60a0604051908101604052806000815260200160608152602001606081526020016000815260200160006001811115612b0057fe5b81525090565b815481835581811115612b3357600602816006028360005260206000209182019101612b329190612d32565b5b505050565b60c0604051908101604052806000815260200160008152602001600081526020016000815260200160008152602001600081525090565b612bea91905b80821115612be6576000808201600090556001820160006101000a81549073ffffffffffffffffffffffffffffffffffffffff0219169055600282016000612bbd9190612d81565b600382016000612bcd9190612d81565b6004820160009055600582016000905550600601612b75565b5090565b90565b612c0f91905b80821115612c0b576000816000905550600101612bf3565b5090565b90565b612c8591905b80821115612c81576000808201600090556001820160006101000a81549073ffffffffffffffffffffffffffffffffffffffff0219169055600282016000612c609190612d81565b600382016000612c709190612d81565b600482016000905550600501612c18565b5090565b90565b612ce891905b80821115612ce457600080820160009055600182016000612caf9190612d81565b600282016000612cbf9190612d81565b60038201600090556004820160006101000a81549060ff021916905550600501612c8e565b5090565b90565b612d2f91905b80821115612d2b57600080820160009055600182016000905560028201600090556003820160009055600482016000905550600501612cf1565b5090565b90565b612d7e91905b80821115612d7a576000808201600090556001820160009055600282016000905560038201600090556004820160009055600582016000905550600601612d38565b5090565b90565b50805460018160011615610100020316600290046000825580601f10612da75750612dc6565b601f016020900490600052602060002090810190612dc59190612bed565b5b505600a165627a7a72305820d14a4e96ebd574a3d8cf04083c48144e5f9b3544d7788b3ba2521676166e362f0029",
  "source": "pragma solidity ^0.4.17;\r\n\r\ncontract MarketPlace {\r\nstruct user   {\r\n        uint uid;\r\n        address user;\r\n        string username;\r\n        string usertype;\r\n        uint256 amount;\r\n        uint timestamp;\r\n    }\r\nenum userTypes { Admin, Owner, Shopper}\r\n\r\n// define store entity\r\nstruct store{\r\n        uint sid;\r\n        address owner;\r\n        string name;\r\n        string description;\r\n        uint256 amount;\r\n }\r\n// define product entity\r\nstruct product {\r\n        uint pid;\r\n        string name;\r\n        string description;\r\n        uint256 price;\r\n        productStatus status;\r\n                }\r\nenum productStatus { Available, BackOrder}\r\n\r\nstruct storeproduct {\r\n        uint spid;\r\n        uint sid;\r\n        uint pid;\r\n        uint256 price;\r\n        uint256 qty_avail;\r\n              }          \r\n\r\nstruct order {\r\n        uint oid;\r\n        uint uid;\r\n        uint sid;\r\n        uint pid;\r\n        uint256 price;\r\n        uint256 qty;\r\n              }    \r\n\r\n mapping(address => uint[]) public UserOwnerMap;\r\n mapping(address => uint[]) public StoreOwnerMap;\r\n mapping(address => uint[]) public ProductOwnerMap;\r\n\r\n user[] public users;\r\n store[] public stores;\r\n product[] public products;\r\n storeproduct[] public storeproducts;\r\n order[] public orders;\r\n\r\n \r\n \r\n\r\n modifier onlyAministrator (address sid) {\r\n   /*\r\n       \r\n        // if address not that of Administrator then  \r\n        if (temp.userType != userTypes.Admin)\r\n        {\r\n            emit throwError(\"Error: user is not Admin !\");            \r\n            revert();\r\n        }\r\n\r\n        */\r\n        _;\r\n    }\r\n\r\n    event throwError(string message);\r\n    event storeCreated(uint sid,   address owner,     string name,        string description,        uint256 amount);\r\n    event userCreated(uint uid,    address user,  string username, string usertype,        uint256 amount,  uint timestamp);\r\n    event productCreated(uint pid, string name, string description, uint256 price);\r\n    event storeproductCreated(uint spid,   uint sid,     uint pid,    uint256 price,uint256 qty_avail );\r\n    event orderCreated (uint oid, uint uid, uint sid, uint pid, uint256 price,uint256 qty);\r\n  \r\n       \r\n\r\n    constructor() public {\r\n    }\r\n\r\n    function createUser( address _user,\r\n                          string _username,\r\n                          string _usertype,\r\n                          uint256 _amount )\r\n                           public returns (uint id)\r\n    {\r\n        \r\n        id = users.length++;\r\n        user storage newUser = users[id];\r\n        newUser.user = _user;\r\n        newUser.usertype = _usertype;\r\n        newUser.username = _username;\r\n        newUser.uid = id;\r\n        newUser.amount = _amount;\r\n        UserOwnerMap[newUser.user].push(id);\r\n\r\n        emit userCreated(id, newUser.user , newUser.username , newUser.usertype ,   newUser.uid,    newUser.amount );\r\n\r\n        return id;\r\n    }\r\n    \r\n    function getUser(uint idx) public view returns (uint, address,  string, string,   uint256)\r\n    {\r\n        user memory temp = users[idx];\r\n        return (temp.uid, temp.user, temp.username, temp.usertype,   temp.amount);\r\n    }\r\n\r\n     function getUserCount() public view returns (uint)\r\n    {\r\n        return users.length;\r\n    }\r\n\r\n    function createStore( address _owner, \r\n                          string _name,\r\n\t\t\t\t\t\t  string _description,\r\n                          uint256 _amount )\r\n                          public returns (uint id)\r\n    {\r\n        \r\n        id = stores.length++;\r\n        store storage newStore = stores[id];\r\n        \r\n        newStore.owner = _owner;\r\n        newStore.sid= id;\r\n\t\tnewStore.name = _name;\r\n\t\tnewStore.description= _description;\r\n        newStore.amount = _amount;\r\n        StoreOwnerMap[newStore.owner].push(id);\r\n\r\n        emit storeCreated(id, newStore.owner, newStore.name ,   newStore.description,    newStore.amount );\r\n\r\n        return id;\r\n    }\r\n    \r\n    function getStore(uint idx) public view returns (uint, address,  string, string,  uint256)\r\n    {\r\n        store memory temp = stores[idx];\r\n        return (temp.sid, temp.owner, temp.name,  temp.description,   temp.amount);\r\n    }\r\n    function getStoreCount() public view returns (uint)\r\n    {\r\n        return stores.length;\r\n    }\r\n    function createProduct( string _name,\r\n\t\t\t\t\t\t            string _description,\r\n                        uint256 _price )\r\n                        public returns (uint id)\r\n    {\r\n        \r\n        id = products.length++;\r\n        product storage newProduct = products[id];\r\n        \r\n        newProduct.name = _name;\r\n        newProduct.description = _description;\r\n        newProduct.pid= id;\r\n        newProduct.price = _price;\r\n\t\tnewProduct.status = productStatus.Available;\r\n       \r\n        emit productCreated(id, newProduct.name , newProduct.description ,     newProduct.price );\r\n\r\n        return id;\r\n    }\r\n\r\n    function getProductCount() public view returns (uint)\r\n    {\r\n        return products.length;\r\n    }\r\n    \r\n    function getProduct(uint idx) public view returns ( string, string,  uint, uint256)\r\n    {\r\n        product memory temp = products[idx];\r\n        return (temp.name, temp.description,  temp.pid,   temp.price);\r\n    }\r\n\r\n  function createStoreProduct( address _sowner,  uint _sid, uint _pid, uint256 _price,  uint256 _qty_avail)\r\n                             public returns (uint id)\r\n    {\r\n        \r\n        id = storeproducts.length++;\r\n        storeproduct storage newStoreProduct = storeproducts[id];\r\n        \r\n        newStoreProduct.sid = _sid;\r\n        newStoreProduct.pid = _pid;\r\n        newStoreProduct.spid= id;\r\n        newStoreProduct.price = _price;\r\n\t\tnewStoreProduct.qty_avail = _qty_avail;\r\n        ProductOwnerMap[_sowner].push(id);\r\n\r\n        emit storeproductCreated(id, newStoreProduct.sid , newStoreProduct.pid ,   newStoreProduct.price,    newStoreProduct.qty_avail );\r\n\r\n        return id;\r\n    }\r\n    \r\n    function getStoreProduct(uint idx) public view returns ( uint,  uint,  uint, uint256  , uint256)\r\n    {\r\n        storeproduct memory temp = storeproducts[idx];\r\n        return ( temp.spid, temp.sid,temp.pid,  temp.price,   temp.qty_avail);\r\n    }  \r\n\r\n    function getStoreProductCount() public view returns (uint)\r\n    {\r\n        return storeproducts.length;\r\n    }\r\n\r\n    function createOrder( address _sowner,  uint _uid , uint _sid, uint _pid, uint256 _price,  uint256 _qty)\r\n                             public returns (uint id)\r\n    {\r\n        \r\n        id = orders.length++;\r\n        order storage newOrder = orders[id];\r\n        \r\n        newOrder.uid = _uid;\r\n\t\tnewOrder.sid = _sid;\r\n        newOrder.pid = _pid;\r\n        newOrder.oid = id;\r\n        newOrder.price = _price;\r\n\t\tnewOrder.qty = _qty;\r\n        ProductOwnerMap[_sowner].push(id);\r\n\r\n        emit orderCreated(id, newOrder.uid , newOrder.sid ,  newOrder.pid ,   newOrder.price,    newOrder.qty );\r\n\r\n        return id;\r\n    }\r\n    \r\n    function getOrder(uint idx) public view returns ( uint,  uint,  uint, uint, uint256  , uint256)\r\n    {\r\n        order memory temp = orders[idx];\r\n        //  product name and description temp.pid \r\n        //  store info temp.sid \r\n        //  user info  temp.uid \r\n\r\n        return ( temp.uid, temp.oid, temp.sid, temp.pid,  temp.price,   temp.qty);\r\n    } \r\n\r\n    function getOrderCount() public view returns (uint)\r\n    {\r\n        return orders.length;\r\n    } \r\n\r\n    function sellProduct(uint pid, uint sid, uint qty) public view returns ( uint)\r\n    {\r\n      //getStoreProduct (_sid, _pid);\r\n      // ensure we have at least 1 \r\n      //createOrder( _sowner,   _uid ,  _sid,  _pid,  _price,   _qty)\r\n      // decrease inventory by 1\r\n      // decrease sellers wallet by price\r\n      // increase store owners wallet by price\r\n                             \r\n    }                       \r\n////////////////////\r\n\r\n}",
  "sourcePath": "C:\\MyDocs\\UCNY\\BlockChain\\ConsensysAcademy\\marketplace\\contracts\\MarketPlace.sol",
  "compiler": {
    "name": "solc",
    "version": "0.4.24+commit.e67f0147.Emscripten.clang"
  },
  "schemaVersion": "2.0.1",
  "updatedAt": "2018-07-27T22:00:04.397Z"
}